{
  "_format": "hh-sol-artifact-1",
  "contractName": "FractionTokenFactory",
  "sourceName": "contracts/FractionTokenFactory.sol",
  "abi": [
    {
      "inputs": [],
      "name": "ReentrancyGuardReentrantCall",
      "type": "error"
    },
    {
      "anonymous": false,
      "inputs": [
        {
          "indexed": false,
          "internalType": "uint256",
          "name": "propertyId",
          "type": "uint256"
        },
        {
          "indexed": false,
          "internalType": "address",
          "name": "tokenAddress",
          "type": "address"
        },
        {
          "indexed": false,
          "internalType": "uint256",
          "name": "totalSupply",
          "type": "uint256"
        }
      ],
      "name": "FractionTokenCreated",
      "type": "event"
    },
    {
      "anonymous": false,
      "inputs": [
        {
          "indexed": false,
          "internalType": "uint256",
          "name": "propertyId",
          "type": "uint256"
        },
        {
          "indexed": true,
          "internalType": "address",
          "name": "from",
          "type": "address"
        },
        {
          "indexed": true,
          "internalType": "address",
          "name": "to",
          "type": "address"
        }
      ],
      "name": "FullOwnershipTransferred",
      "type": "event"
    },
    {
      "anonymous": false,
      "inputs": [
        {
          "indexed": false,
          "internalType": "uint256",
          "name": "propertyId",
          "type": "uint256"
        },
        {
          "indexed": true,
          "internalType": "address",
          "name": "owner",
          "type": "address"
        }
      ],
      "name": "PropertyDefractionalized",
      "type": "event"
    },
    {
      "inputs": [
        {
          "internalType": "uint256",
          "name": "propertyId",
          "type": "uint256"
        },
        {
          "internalType": "string",
          "name": "name",
          "type": "string"
        },
        {
          "internalType": "string",
          "name": "symbol",
          "type": "string"
        },
        {
          "internalType": "uint256",
          "name": "totalSupply",
          "type": "uint256"
        },
        {
          "internalType": "address",
          "name": "propertyNFTAddr",
          "type": "address"
        }
      ],
      "name": "createFractionToken",
      "outputs": [
        {
          "internalType": "address",
          "name": "",
          "type": "address"
        }
      ],
      "stateMutability": "nonpayable",
      "type": "function"
    },
    {
      "inputs": [
        {
          "internalType": "uint256",
          "name": "propertyId",
          "type": "uint256"
        },
        {
          "internalType": "address",
          "name": "propertyNFTAddr",
          "type": "address"
        }
      ],
      "name": "defractionalizeProperty",
      "outputs": [],
      "stateMutability": "nonpayable",
      "type": "function"
    },
    {
      "inputs": [
        {
          "internalType": "uint256",
          "name": "propertyId",
          "type": "uint256"
        },
        {
          "internalType": "address",
          "name": "owner",
          "type": "address"
        }
      ],
      "name": "getFractionBalance",
      "outputs": [
        {
          "internalType": "uint256",
          "name": "",
          "type": "uint256"
        }
      ],
      "stateMutability": "view",
      "type": "function"
    },
    {
      "inputs": [
        {
          "internalType": "uint256",
          "name": "propertyId",
          "type": "uint256"
        }
      ],
      "name": "getFractionToken",
      "outputs": [
        {
          "internalType": "address",
          "name": "",
          "type": "address"
        }
      ],
      "stateMutability": "view",
      "type": "function"
    },
    {
      "inputs": [
        {
          "internalType": "uint256",
          "name": "propertyId",
          "type": "uint256"
        },
        {
          "internalType": "address",
          "name": "owner",
          "type": "address"
        }
      ],
      "name": "hasFullOwnership",
      "outputs": [
        {
          "internalType": "bool",
          "name": "",
          "type": "bool"
        }
      ],
      "stateMutability": "view",
      "type": "function"
    },
    {
      "inputs": [
        {
          "internalType": "uint256",
          "name": "",
          "type": "uint256"
        }
      ],
      "name": "isPropertyFractionalized",
      "outputs": [
        {
          "internalType": "bool",
          "name": "",
          "type": "bool"
        }
      ],
      "stateMutability": "view",
      "type": "function"
    },
    {
      "inputs": [
        {
          "internalType": "uint256",
          "name": "",
          "type": "uint256"
        }
      ],
      "name": "propertyToFractionToken",
      "outputs": [
        {
          "internalType": "address",
          "name": "",
          "type": "address"
        }
      ],
      "stateMutability": "view",
      "type": "function"
    },
    {
      "inputs": [
        {
          "internalType": "uint256",
          "name": "",
          "type": "uint256"
        }
      ],
      "name": "propertyToTotalSupply",
      "outputs": [
        {
          "internalType": "uint256",
          "name": "",
          "type": "uint256"
        }
      ],
      "stateMutability": "view",
      "type": "function"
    },
    {
      "inputs": [
        {
          "internalType": "uint256",
          "name": "propertyId",
          "type": "uint256"
        },
        {
          "internalType": "address",
          "name": "to",
          "type": "address"
        },
        {
          "internalType": "address",
          "name": "propertyNFTAddr",
          "type": "address"
        }
      ],
      "name": "transferFullOwnership",
      "outputs": [],
      "stateMutability": "nonpayable",
      "type": "function"
    }
  ],
  "bytecode": "0x6080604052348015600f57600080fd5b506001600055611c50806100246000396000f3fe608060405234801561001057600080fd5b50600436106100935760003560e01c8063998c7e5011610066578063998c7e5014610142578063a0dd9f4914610157578063b28163e41461016a578063b2a5872214610193578063c9a9fa8d146101a657600080fd5b80631982b1ca146100985780635133ee1b146100cb5780635f3c904e146100f657806373f258ae14610119575b600080fd5b6100b86100a6366004610d51565b60026020526000908152604090205481565b6040519081526020015b60405180910390f35b6100de6100d9366004610e27565b6101c9565b6040516001600160a01b0390911681526020016100c2565b610109610104366004610eb8565b610535565b60405190151581526020016100c2565b6100de610127366004610d51565b6000908152600160205260409020546001600160a01b031690565b610155610150366004610ee8565b610607565b005b6100b8610165366004610eb8565b61096d565b6100de610178366004610d51565b6001602052600090815260409020546001600160a01b031681565b6101556101a1366004610eb8565b610a0a565b6101096101b4366004610d51565b60036020526000908152604090205460ff1681565b6000858152600160205260408120546001600160a01b0316156102335760405162461bcd60e51b815260206004820152601d60248201527f4672616374696f6e20746f6b656e20616c72656164792065786973747300000060448201526064015b60405180910390fd5b6040516331a9108f60e11b81526004810187905282906001600160a01b03821690636352211e90602401602060405180830381865afa925050508015610296575060408051601f3d908101601f1916820190925261029391810190610f2a565b60015b6102e25760405162461bcd60e51b815260206004820152601760248201527f50726f706572747920646f6573206e6f74206578697374000000000000000000604482015260640161022a565b336001600160a01b038216146103485760405162461bcd60e51b815260206004820152602560248201527f4f6e6c792070726f7065727479206f776e65722063616e206672616374696f6e604482015264616c697a6560d81b606482015260840161022a565b604051633933baff60e21b8152600481018990526001600160a01b0383169063e4ceebfc90602401602060405180830381865afa15801561038d573d6000803e3d6000fd5b505050506040513d601f19601f820116820180604052508101906103b19190610f4e565b6103fd5760405162461bcd60e51b815260206004820152601960248201527f50726f7065727479206e6f742066756c6c79207369676e656400000000000000604482015260640161022a565b506040516323b872dd60e01b81526001600160a01b038416906323b872dd9061042e90339030908c90600401610f70565b600060405180830381600087803b15801561044857600080fd5b505af115801561045c573d6000803e3d6000fd5b5050505060008686868a3360405161047390610d44565b610481959493929190610fda565b604051809103906000f08015801561049d573d6000803e3d6000fd5b50600089815260016020818152604080842080546001600160a01b0319166001600160a01b038716908117909155600283528185208b90556003835293819020805460ff191690931790925581518c81529081019290925281018790529091507f108631c23df8322936e7ca83e421e51b05feb51ed6a540e5f9d48ee1f06619239060600160405180910390a1979650505050505050565b60008281526003602052604081205460ff1661055357506000610601565b6000838152600160205260409020546001600160a01b03168061057a576000915050610601565b6000848152600260205260408082205490516370a0823160e01b81526001600160a01b038681166004830152849391908416906370a0823190602401602060405180830381865afa1580156105d3573d6000803e3d6000fd5b505050506040513d601f19601f820116820180604052508101906105f79190611026565b9190911493505050505b92915050565b61060f610d1a565b60008381526003602052604090205460ff1661066d5760405162461bcd60e51b815260206004820152601b60248201527f50726f7065727479206e6f74206672616374696f6e616c697a65640000000000604482015260640161022a565b6001600160a01b0382166106b75760405162461bcd60e51b8152602060048201526011602482015270125b9d985b1a59081c9958da5c1a595b9d607a1b604482015260640161022a565b6000838152600160205260409020546001600160a01b0316806107175760405162461bcd60e51b8152602060048201526018602482015277119c9858dd1a5bdb881d1bdad95b881b9bdd08199bdd5b9960421b604482015260640161022a565b6000848152600260205260408082205490516370a0823160e01b81523360048201528392906001600160a01b038416906370a0823190602401602060405180830381865afa15801561076d573d6000803e3d6000fd5b505050506040513d601f19601f820116820180604052508101906107919190611026565b90508181146107e25760405162461bcd60e51b815260206004820152601a60248201527f4d757374206f776e2031303025206f66206672616374696f6e73000000000000604482015260640161022a565b6040516323b872dd60e01b81526001600160a01b038416906323b872dd9061081490339061dead908790600401610f70565b6020604051808303816000875af1158015610833573d6000803e3d6000fd5b505050506040513d601f19601f820116820180604052508101906108579190610f4e565b61089b5760405162461bcd60e51b81526020600482015260156024820152744661696c656420746f206275726e20746f6b656e7360581b604482015260640161022a565b6040516323b872dd60e01b81526001600160a01b038616906323b872dd906108cb9030908a908c90600401610f70565b600060405180830381600087803b1580156108e557600080fd5b505af11580156108f9573d6000803e3d6000fd5b50505060008881526003602052604090819020805460ff19169055516001600160a01b038816915033907f4ee54ea6c6e416266de18a59a51a867b566e5efdf1ffe57519063d019b7bf84e90610952908b815260200190565b60405180910390a3505050506109686001600055565b505050565b6000828152600160205260408120546001600160a01b031680610994576000915050610601565b6040516370a0823160e01b81526001600160a01b0384811660048301528291908216906370a0823190602401602060405180830381865afa1580156109dd573d6000803e3d6000fd5b505050506040513d601f19601f82011682018060405250810190610a019190611026565b95945050505050565b610a12610d1a565b60008281526003602052604090205460ff16610a705760405162461bcd60e51b815260206004820152601b60248201527f50726f7065727479206e6f74206672616374696f6e616c697a65640000000000604482015260640161022a565b6000828152600160205260409020546001600160a01b031680610ad05760405162461bcd60e51b8152602060048201526018602482015277119c9858dd1a5bdb881d1bdad95b881b9bdd08199bdd5b9960421b604482015260640161022a565b6000838152600260205260408082205490516370a0823160e01b81523360048201528392906001600160a01b038416906370a0823190602401602060405180830381865afa158015610b26573d6000803e3d6000fd5b505050506040513d601f19601f82011682018060405250810190610b4a9190611026565b9050818114610b9b5760405162461bcd60e51b815260206004820152601a60248201527f4d757374206f776e2031303025206f66206672616374696f6e73000000000000604482015260640161022a565b6040516323b872dd60e01b81526001600160a01b038416906323b872dd90610bcd90339061dead908790600401610f70565b6020604051808303816000875af1158015610bec573d6000803e3d6000fd5b505050506040513d601f19601f82011682018060405250810190610c109190610f4e565b610c545760405162461bcd60e51b81526020600482015260156024820152744661696c656420746f206275726e20746f6b656e7360581b604482015260640161022a565b6040516323b872dd60e01b81526001600160a01b038616906323b872dd90610c8490309033908b90600401610f70565b600060405180830381600087803b158015610c9e57600080fd5b505af1158015610cb2573d6000803e3d6000fd5b50505060008781526003602052604090819020805460ff19169055513391507f127fa53c9c04331b47ca4141142ff584c36a921b7edb32e38be22f1dd514439f90610d009089815260200190565b60405180910390a250505050610d166001600055565b5050565b600260005403610d3d57604051633ee5aeb560e01b815260040160405180910390fd5b6002600055565b610bdb8061104083390190565b600060208284031215610d6357600080fd5b5035919050565b634e487b7160e01b600052604160045260246000fd5b600082601f830112610d9157600080fd5b813567ffffffffffffffff811115610dab57610dab610d6a565b604051601f8201601f19908116603f0116810167ffffffffffffffff81118282101715610dda57610dda610d6a565b604052818152838201602001851015610df257600080fd5b816020850160208301376000918101602001919091529392505050565b6001600160a01b0381168114610e2457600080fd5b50565b600080600080600060a08688031215610e3f57600080fd5b85359450602086013567ffffffffffffffff811115610e5d57600080fd5b610e6988828901610d80565b945050604086013567ffffffffffffffff811115610e8657600080fd5b610e9288828901610d80565b935050606086013591506080860135610eaa81610e0f565b809150509295509295909350565b60008060408385031215610ecb57600080fd5b823591506020830135610edd81610e0f565b809150509250929050565b600080600060608486031215610efd57600080fd5b833592506020840135610f0f81610e0f565b91506040840135610f1f81610e0f565b809150509250925092565b600060208284031215610f3c57600080fd5b8151610f4781610e0f565b9392505050565b600060208284031215610f6057600080fd5b81518015158114610f4757600080fd5b6001600160a01b039384168152919092166020820152604081019190915260600190565b6000815180845260005b81811015610fba57602081850181015186830182015201610f9e565b506000602082860101526020601f19601f83011685010191505092915050565b60a081526000610fed60a0830188610f94565b8281036020840152610fff8188610f94565b6040840196909652505060608101929092526001600160a01b031660809091015292915050565b60006020828403121561103857600080fd5b505191905056fe608060405234801561001057600080fd5b50604051610bdb380380610bdb83398101604081905261002f91610288565b8484600361003d83826103b1565b50600461004a82826103b1565b505050600582905561005c8184610066565b5050505050610496565b6001600160a01b0382166100955760405163ec442f0560e01b8152600060048201526024015b60405180910390fd5b6100a1600083836100a5565b5050565b6001600160a01b0383166100d05780600260008282546100c5919061046f565b909155506101429050565b6001600160a01b038316600090815260208190526040902054818110156101235760405163391434e360e21b81526001600160a01b0385166004820152602481018290526044810183905260640161008c565b6001600160a01b03841660009081526020819052604090209082900390555b6001600160a01b03821661015e5760028054829003905561017d565b6001600160a01b03821660009081526020819052604090208054820190555b816001600160a01b0316836001600160a01b03167fddf252ad1be2c89b69c2b068fc378daa952ba7f163c4a11628f55a4df523b3ef836040516101c291815260200190565b60405180910390a3505050565b634e487b7160e01b600052604160045260246000fd5b600082601f8301126101f657600080fd5b81516001600160401b0381111561020f5761020f6101cf565b604051601f8201601f19908116603f011681016001600160401b038111828210171561023d5761023d6101cf565b60405281815283820160200185101561025557600080fd5b60005b8281101561027457602081860181015183830182015201610258565b506000918101602001919091529392505050565b600080600080600060a086880312156102a057600080fd5b85516001600160401b038111156102b657600080fd5b6102c2888289016101e5565b602088015190965090506001600160401b038111156102e057600080fd5b6102ec888289016101e5565b6040880151606089015160808a0151929750909550935090506001600160a01b038116811461031a57600080fd5b809150509295509295909350565b600181811c9082168061033c57607f821691505b60208210810361035c57634e487b7160e01b600052602260045260246000fd5b50919050565b601f8211156103ac57806000526020600020601f840160051c810160208510156103895750805b601f840160051c820191505b818110156103a95760008155600101610395565b50505b505050565b81516001600160401b038111156103ca576103ca6101cf565b6103de816103d88454610328565b84610362565b6020601f82116001811461041257600083156103fa5750848201515b600019600385901b1c1916600184901b1784556103a9565b600084815260208120601f198516915b828110156104425787850151825560209485019460019092019101610422565b50848210156104605786840151600019600387901b60f8161c191681555b50505050600190811b01905550565b8082018082111561049057634e487b7160e01b600052601160045260246000fd5b92915050565b610736806104a56000396000f3fe608060405234801561001057600080fd5b506004361061009e5760003560e01c806370a082311161006657806370a082311461011857806395d89b4114610141578063a9059cbb14610149578063dd62ed3e1461015c578063ee7a3b8e1461019557600080fd5b806306fdde03146100a3578063095ea7b3146100c157806318160ddd146100e457806323b872dd146100f6578063313ce56714610109575b600080fd5b6100ab61019e565b6040516100b8919061057f565b60405180910390f35b6100d46100cf3660046105e9565b610230565b60405190151581526020016100b8565b6002545b6040519081526020016100b8565b6100d4610104366004610613565b61024a565b604051601281526020016100b8565b6100e8610126366004610650565b6001600160a01b031660009081526020819052604090205490565b6100ab61026e565b6100d46101573660046105e9565b61027d565b6100e861016a366004610672565b6001600160a01b03918216600090815260016020908152604080832093909416825291909152205490565b6100e860055481565b6060600380546101ad906106a5565b80601f01602080910402602001604051908101604052809291908181526020018280546101d9906106a5565b80156102265780601f106101fb57610100808354040283529160200191610226565b820191906000526020600020905b81548152906001019060200180831161020957829003601f168201915b5050505050905090565b60003361023e81858561028b565b60019150505b92915050565b60003361025885828561029d565b610263858585610321565b506001949350505050565b6060600480546101ad906106a5565b60003361023e818585610321565b6102988383836001610380565b505050565b6001600160a01b0383811660009081526001602090815260408083209386168352929052205460001981101561031b578181101561030c57604051637dc7a0d960e11b81526001600160a01b038416600482015260248101829052604481018390526064015b60405180910390fd5b61031b84848484036000610380565b50505050565b6001600160a01b03831661034b57604051634b637e8f60e11b815260006004820152602401610303565b6001600160a01b0382166103755760405163ec442f0560e01b815260006004820152602401610303565b610298838383610455565b6001600160a01b0384166103aa5760405163e602df0560e01b815260006004820152602401610303565b6001600160a01b0383166103d457604051634a1406b160e11b815260006004820152602401610303565b6001600160a01b038085166000908152600160209081526040808320938716835292905220829055801561031b57826001600160a01b0316846001600160a01b03167f8c5be1e5ebec7d5bd14f71427d1e84f3dd0314c0f7b2291e5b200ac8c7c3b9258460405161044791815260200190565b60405180910390a350505050565b6001600160a01b03831661048057806002600082825461047591906106df565b909155506104f29050565b6001600160a01b038316600090815260208190526040902054818110156104d35760405163391434e360e21b81526001600160a01b03851660048201526024810182905260448101839052606401610303565b6001600160a01b03841660009081526020819052604090209082900390555b6001600160a01b03821661050e5760028054829003905561052d565b6001600160a01b03821660009081526020819052604090208054820190555b816001600160a01b0316836001600160a01b03167fddf252ad1be2c89b69c2b068fc378daa952ba7f163c4a11628f55a4df523b3ef8360405161057291815260200190565b60405180910390a3505050565b602081526000825180602084015260005b818110156105ad5760208186018101516040868401015201610590565b506000604082850101526040601f19601f83011684010191505092915050565b80356001600160a01b03811681146105e457600080fd5b919050565b600080604083850312156105fc57600080fd5b610605836105cd565b946020939093013593505050565b60008060006060848603121561062857600080fd5b610631846105cd565b925061063f602085016105cd565b929592945050506040919091013590565b60006020828403121561066257600080fd5b61066b826105cd565b9392505050565b6000806040838503121561068557600080fd5b61068e836105cd565b915061069c602084016105cd565b90509250929050565b600181811c908216806106b957607f821691505b6020821081036106d957634e487b7160e01b600052602260045260246000fd5b50919050565b8082018082111561024457634e487b7160e01b600052601160045260246000fdfea2646970667358221220ec788ad3c5cfcfac9d9f17656cb26c97cea69c39551c83694b85072ab2c7cc1164736f6c634300081b0033a264697066735822122015881a3487e191659267db3df77755477869b12bb09174db64780ebfad4d25e064736f6c634300081b0033",
  "linkReferences": {},
  "deployedLinkReferences": {}
}