{
  "_format": "hh-sol-artifact-1",
  "contractName": "HybridEscrow",
  "sourceName": "contracts/HybridEscrow.sol",
  "abi": [
    {
      "inputs": [
        {
          "internalType": "address",
          "name": "_buyer",
          "type": "address"
        },
        {
          "internalType": "address",
          "name": "_seller",
          "type": "address"
        },
        {
          "internalType": "uint256",
          "name": "_price",
          "type": "uint256"
        },
        {
          "internalType": "enum HybridEscrow.EscrowType",
          "name": "_type",
          "type": "uint8"
        },
        {
          "internalType": "address",
          "name": "_propertyNFT",
          "type": "address"
        },
        {
          "internalType": "uint256",
          "name": "_tokenId",
          "type": "uint256"
        }
      ],
      "stateMutability": "nonpayable",
      "type": "constructor"
    },
    {
      "inputs": [],
      "name": "ReentrancyGuardReentrantCall",
      "type": "error"
    },
    {
      "anonymous": false,
      "inputs": [
        {
          "indexed": true,
          "internalType": "address",
          "name": "seller",
          "type": "address"
        },
        {
          "indexed": false,
          "internalType": "enum HybridEscrow.EscrowType",
          "name": "escrowType",
          "type": "uint8"
        }
      ],
      "name": "AssetDeposited",
      "type": "event"
    },
    {
      "anonymous": false,
      "inputs": [],
      "name": "EscrowCancelled",
      "type": "event"
    },
    {
      "anonymous": false,
      "inputs": [
        {
          "indexed": true,
          "internalType": "address",
          "name": "buyer",
          "type": "address"
        },
        {
          "indexed": true,
          "internalType": "address",
          "name": "seller",
          "type": "address"
        }
      ],
      "name": "EscrowFinalized",
      "type": "event"
    },
    {
      "anonymous": false,
      "inputs": [
        {
          "indexed": true,
          "internalType": "address",
          "name": "buyer",
          "type": "address"
        },
        {
          "indexed": false,
          "internalType": "uint256",
          "name": "amount",
          "type": "uint256"
        }
      ],
      "name": "PaymentDeposited",
      "type": "event"
    },
    {
      "inputs": [],
      "name": "buyer",
      "outputs": [
        {
          "internalType": "address",
          "name": "",
          "type": "address"
        }
      ],
      "stateMutability": "view",
      "type": "function"
    },
    {
      "inputs": [],
      "name": "cancel",
      "outputs": [],
      "stateMutability": "nonpayable",
      "type": "function"
    },
    {
      "inputs": [],
      "name": "depositFractionalAsset",
      "outputs": [],
      "stateMutability": "nonpayable",
      "type": "function"
    },
    {
      "inputs": [],
      "name": "depositNFTAsset",
      "outputs": [],
      "stateMutability": "nonpayable",
      "type": "function"
    },
    {
      "inputs": [],
      "name": "depositPayment",
      "outputs": [],
      "stateMutability": "payable",
      "type": "function"
    },
    {
      "inputs": [],
      "name": "escrowType",
      "outputs": [
        {
          "internalType": "enum HybridEscrow.EscrowType",
          "name": "",
          "type": "uint8"
        }
      ],
      "stateMutability": "view",
      "type": "function"
    },
    {
      "inputs": [],
      "name": "finalize",
      "outputs": [],
      "stateMutability": "nonpayable",
      "type": "function"
    },
    {
      "inputs": [],
      "name": "fractionAmount",
      "outputs": [
        {
          "internalType": "uint256",
          "name": "",
          "type": "uint256"
        }
      ],
      "stateMutability": "view",
      "type": "function"
    },
    {
      "inputs": [],
      "name": "fractionToken",
      "outputs": [
        {
          "internalType": "contract IERC20",
          "name": "",
          "type": "address"
        }
      ],
      "stateMutability": "view",
      "type": "function"
    },
    {
      "inputs": [],
      "name": "getStatus",
      "outputs": [
        {
          "internalType": "bool",
          "name": "_isBuyerDeposited",
          "type": "bool"
        },
        {
          "internalType": "bool",
          "name": "_isSellerDeposited",
          "type": "bool"
        },
        {
          "internalType": "bool",
          "name": "_isFinalized",
          "type": "bool"
        }
      ],
      "stateMutability": "view",
      "type": "function"
    },
    {
      "inputs": [
        {
          "internalType": "address",
          "name": "_fractionToken",
          "type": "address"
        },
        {
          "internalType": "uint256",
          "name": "_fractionAmount",
          "type": "uint256"
        }
      ],
      "name": "initializeFractionalEscrow",
      "outputs": [],
      "stateMutability": "nonpayable",
      "type": "function"
    },
    {
      "inputs": [],
      "name": "isBuyerDeposited",
      "outputs": [
        {
          "internalType": "bool",
          "name": "",
          "type": "bool"
        }
      ],
      "stateMutability": "view",
      "type": "function"
    },
    {
      "inputs": [],
      "name": "isFinalized",
      "outputs": [
        {
          "internalType": "bool",
          "name": "",
          "type": "bool"
        }
      ],
      "stateMutability": "view",
      "type": "function"
    },
    {
      "inputs": [],
      "name": "isSellerDeposited",
      "outputs": [
        {
          "internalType": "bool",
          "name": "",
          "type": "bool"
        }
      ],
      "stateMutability": "view",
      "type": "function"
    },
    {
      "inputs": [],
      "name": "price",
      "outputs": [
        {
          "internalType": "uint256",
          "name": "",
          "type": "uint256"
        }
      ],
      "stateMutability": "view",
      "type": "function"
    },
    {
      "inputs": [],
      "name": "propertyNFT",
      "outputs": [
        {
          "internalType": "contract IERC721",
          "name": "",
          "type": "address"
        }
      ],
      "stateMutability": "view",
      "type": "function"
    },
    {
      "inputs": [],
      "name": "seller",
      "outputs": [
        {
          "internalType": "address",
          "name": "",
          "type": "address"
        }
      ],
      "stateMutability": "view",
      "type": "function"
    },
    {
      "inputs": [],
      "name": "tokenId",
      "outputs": [
        {
          "internalType": "uint256",
          "name": "",
          "type": "uint256"
        }
      ],
      "stateMutability": "view",
      "type": "function"
    }
  ],
  "bytecode": "0x608060405234801561001057600080fd5b506040516112c73803806112c783398101604081905261002f916100db565b6001600081905580546001600160a01b038089166001600160a01b03199283161783556002805491891691909216179055600385905560048054859263ff0000001990911690630100000090849081111561008c5761008c61014e565b0217905550600680546001600160a01b0319166001600160a01b0393909316929092179091556005555061016492505050565b80516001600160a01b03811681146100d657600080fd5b919050565b60008060008060008060c087890312156100f457600080fd5b6100fd876100bf565b955061010b602088016100bf565b6040880151606089015191965094506002811061012757600080fd5b9250610135608088016100bf565b9150600060a08801519050809150509295509295509295565b634e487b7160e01b600052602160045260246000fd5b611154806101736000396000f3fe6080604052600436106101095760003560e01c80636df4503511610095578063aa5e215311610064578063aa5e2153146102ce578063d35eaf72146102d6578063ea8a1af0146102f0578063ed1ef48014610305578063fdde36eb1461033357600080fd5b80636df45035146102495780637150d8ae146102785780638d4e408314610298578063a035b1fe146102b857600080fd5b806340273512116100dc57806340273512146101a6578063457dfc67146101bc5780634bb278f3146101dc5780634e69d560146101f1578063527ed6401461023457600080fd5b806308551a531461010e578063135a15711461014b57806317d70f7c1461016257806337f7683814610186575b600080fd5b34801561011a57600080fd5b5060025461012e906001600160a01b031681565b6040516001600160a01b0390911681526020015b60405180910390f35b34801561015757600080fd5b50610160610353565b005b34801561016e57600080fd5b5061017860055481565b604051908152602001610142565b34801561019257600080fd5b5060065461012e906001600160a01b031681565b3480156101b257600080fd5b5061017860085481565b3480156101c857600080fd5b5060075461012e906001600160a01b031681565b3480156101e857600080fd5b506101606105b2565b3480156101fd57600080fd5b506004546040805160ff80841615158252610100840481161515602083015262010000909304909216151590820152606001610142565b34801561024057600080fd5b506101606108ef565b34801561025557600080fd5b5060045461026890610100900460ff1681565b6040519015158152602001610142565b34801561028457600080fd5b5060015461012e906001600160a01b031681565b3480156102a457600080fd5b506004546102689062010000900460ff1681565b3480156102c457600080fd5b5061017860035481565b610160610a80565b3480156102e257600080fd5b506004546102689060ff1681565b3480156102fc57600080fd5b50610160610ba5565b34801561031157600080fd5b50600454610326906301000000900460ff1681565b6040516101429190610ff0565b34801561033f57600080fd5b5061016061034e366004611018565b610ea4565b6002546001600160a01b031633146103a05760405162461bcd60e51b815260206004820152600b60248201526a27b7363c9039b2b63632b960a91b60448201526064015b60405180910390fd5b600454610100900460ff16156103c85760405162461bcd60e51b815260040161039790611050565b60016004546301000000900460ff1660018111156103e8576103e8610fda565b146104055760405162461bcd60e51b81526004016103979061107b565b6007546001600160a01b03166104675760405162461bcd60e51b815260206004820152602160248201527f4672616374696f6e616c20657363726f77206e6f7420696e697469616c697a656044820152601960fa1b6064820152608401610397565b60045462010000900460ff16156104905760405162461bcd60e51b8152600401610397906110a6565b6007546002546008546040516323b872dd60e01b81526001600160a01b03938416936323b872dd936104ca939116913091906004016110d1565b6020604051808303816000875af11580156104e9573d6000803e3d6000fd5b505050506040513d601f19601f8201168201806040525081019061050d91906110f5565b6105595760405162461bcd60e51b815260206004820152601e60248201527f4672616374696f6e20746f6b656e207472616e73666572206661696c656400006044820152606401610397565b6004805461ff0019166101001790556002546040516001600160a01b03909116907ffcc189e4c1132cff7967bc3c42306fe72aa9247884e67556d6ce3dedfd834260906105a890600190610ff0565b60405180910390a2565b6105ba610fb0565b6001546001600160a01b031633146106145760405162461bcd60e51b815260206004820152601760248201527f4f6e6c792062757965722063616e2066696e616c697a650000000000000000006044820152606401610397565b60045460ff16801561062d5750600454610100900460ff165b61066f5760405162461bcd60e51b8152602060048201526013602482015272457363726f77206e6f7420636f6d706c65746560681b6044820152606401610397565b60045462010000900460ff16156106985760405162461bcd60e51b8152600401610397906110a6565b6004805462ff000019166201000017905560006004546301000000900460ff1660018111156106c9576106c9610fda565b03610740576006546001546005546040516323b872dd60e01b81526001600160a01b03938416936323b872dd9361070993309392909116916004016110d1565b600060405180830381600087803b15801561072357600080fd5b505af1158015610737573d6000803e3d6000fd5b50505050610809565b60075460015460085460405163a9059cbb60e01b81526001600160a01b039283166004820152602481019190915291169063a9059cbb906044016020604051808303816000875af1158015610799573d6000803e3d6000fd5b505050506040513d601f19601f820116820180604052508101906107bd91906110f5565b6108095760405162461bcd60e51b815260206004820152601e60248201527f4672616374696f6e20746f6b656e207472616e73666572206661696c656400006044820152606401610397565b6002546003546040516000926001600160a01b031691908381818185875af1925050503d8060008114610858576040519150601f19603f3d011682016040523d82523d6000602084013e61085d565b606091505b50509050806108a35760405162461bcd60e51b815260206004820152601260248201527108cc2d2d8cac840e8de40e6cadcc8408aa8960731b6044820152606401610397565b6002546001546040516001600160a01b0392831692909116907f5fd99efb29276a590c02728d3552c18065de03b9c4875f0f6ff13d2e5c083cff90600090a3506108ed6001600055565b565b6002546001600160a01b031633146109375760405162461bcd60e51b815260206004820152600b60248201526a27b7363c9039b2b63632b960a91b6044820152606401610397565b600454610100900460ff161561095f5760405162461bcd60e51b815260040161039790611050565b60006004546301000000900460ff16600181111561097f5761097f610fda565b1461099c5760405162461bcd60e51b81526004016103979061107b565b60045462010000900460ff16156109c55760405162461bcd60e51b8152600401610397906110a6565b6006546002546005546040516323b872dd60e01b81526001600160a01b03938416936323b872dd936109ff939116913091906004016110d1565b600060405180830381600087803b158015610a1957600080fd5b505af1158015610a2d573d6000803e3d6000fd5b50506004805461ff00191661010017905550506002546040516001600160a01b03909116907ffcc189e4c1132cff7967bc3c42306fe72aa9247884e67556d6ce3dedfd834260906105a890600090610ff0565b6001546001600160a01b03163314610ac75760405162461bcd60e51b815260206004820152600a60248201526927b7363c90313abcb2b960b11b6044820152606401610397565b6003543414610b0c5760405162461bcd60e51b8152602060048201526011602482015270125b98dbdc9c9958dd081c185e5b595b9d607a1b6044820152606401610397565b60045460ff1615610b2f5760405162461bcd60e51b815260040161039790611050565b60045462010000900460ff1615610b585760405162461bcd60e51b8152600401610397906110a6565b6004805460ff19166001908117909155546040513481526001600160a01b03909116907fd348a8f42fae8db1d0030271b37ed6d94a5e292ff36db57b244ffe13f494dd45906020016105a8565b610bad610fb0565b60045462010000900460ff1615610bd65760405162461bcd60e51b8152600401610397906110a6565b6001546001600160a01b0316331480610bf957506002546001600160a01b031633145b610c455760405162461bcd60e51b815260206004820152601760248201527f4f6e6c7920706172746965732063616e2063616e63656c0000000000000000006044820152606401610397565b60045460ff1615610cf0576001546003546040516000926001600160a01b031691908381818185875af1925050503d8060008114610c9f576040519150601f19603f3d011682016040523d82523d6000602084013e610ca4565b606091505b5050905080610cee5760405162461bcd60e51b81526020600482015260166024820152752330b4b632b2103a37903932b33ab73210313abcb2b960511b6044820152606401610397565b505b600454610100900460ff1615610e605760006004546301000000900460ff166001811115610d2057610d20610fda565b03610d97576006546002546005546040516323b872dd60e01b81526001600160a01b03938416936323b872dd93610d6093309392909116916004016110d1565b600060405180830381600087803b158015610d7a57600080fd5b505af1158015610d8e573d6000803e3d6000fd5b50505050610e60565b60075460025460085460405163a9059cbb60e01b81526001600160a01b039283166004820152602481019190915291169063a9059cbb906044016020604051808303816000875af1158015610df0573d6000803e3d6000fd5b505050506040513d601f19601f82011682018060405250810190610e1491906110f5565b610e605760405162461bcd60e51b815260206004820152601a60248201527f4661696c656420746f2072657475726e206672616374696f6e730000000000006044820152606401610397565b6004805462ff00001916620100001790556040517f6e3be9294e58d10b9c8053cfd5e09871b67e442fe394d6b0870d336b9df984a990600090a16108ed6001600055565b6002546001600160a01b03163314610efe5760405162461bcd60e51b815260206004820152601a60248201527f4f6e6c792073656c6c65722063616e20696e697469616c697a650000000000006044820152606401610397565b60016004546301000000900460ff166001811115610f1e57610f1e610fda565b14610f3b5760405162461bcd60e51b81526004016103979061107b565b6007546001600160a01b031615610f8a5760405162461bcd60e51b8152602060048201526013602482015272105b1c9958591e481a5b9a5d1a585b1a5e9959606a1b6044820152606401610397565b600780546001600160a01b0319166001600160a01b039390931692909217909155600855565b600260005403610fd357604051633ee5aeb560e01b815260040160405180910390fd5b6002600055565b634e487b7160e01b600052602160045260246000fd5b602081016002831061101257634e487b7160e01b600052602160045260246000fd5b91905290565b6000806040838503121561102b57600080fd5b82356001600160a01b038116811461104257600080fd5b946020939093013593505050565b602080825260119082015270105b1c9958591e4819195c1bdcda5d1959607a1b604082015260600190565b60208082526011908201527057726f6e6720657363726f77207479706560781b604082015260600190565b602080825260119082015270105b1c9958591e48199a5b985b1a5e9959607a1b604082015260600190565b6001600160a01b039384168152919092166020820152604081019190915260600190565b60006020828403121561110757600080fd5b8151801515811461111757600080fd5b939250505056fea2646970667358221220a5a0ff61a8c7243212209deed22d4f07f5cc279ef3169b704a3b21fdb5c7e53364736f6c634300081b0033",
  "linkReferences": {},
  "deployedLinkReferences": {}
}