{
  "_format": "hh-sol-artifact-1",
  "contractName": "HybridEscrow",
  "sourceName": "contracts/HybridEscrow.sol",
  "abi": [
    {
      "inputs": [
        {
          "internalType": "address",
          "name": "_buyer",
          "type": "address"
        },
        {
          "internalType": "address",
          "name": "_seller",
          "type": "address"
        },
        {
          "internalType": "uint256",
          "name": "_price",
          "type": "uint256"
        },
        {
          "internalType": "enum HybridEscrow.EscrowType",
          "name": "_type",
          "type": "uint8"
        },
        {
          "internalType": "address",
          "name": "_propertyNFT",
          "type": "address"
        },
        {
          "internalType": "uint256",
          "name": "_tokenId",
          "type": "uint256"
        }
      ],
      "stateMutability": "nonpayable",
      "type": "constructor"
    },
    {
      "inputs": [],
      "name": "ReentrancyGuardReentrantCall",
      "type": "error"
    },
    {
      "inputs": [],
      "name": "buyer",
      "outputs": [
        {
          "internalType": "address",
          "name": "",
          "type": "address"
        }
      ],
      "stateMutability": "view",
      "type": "function"
    },
    {
      "inputs": [],
      "name": "depositAsset",
      "outputs": [],
      "stateMutability": "nonpayable",
      "type": "function"
    },
    {
      "inputs": [],
      "name": "depositPayment",
      "outputs": [],
      "stateMutability": "payable",
      "type": "function"
    },
    {
      "inputs": [],
      "name": "escrowType",
      "outputs": [
        {
          "internalType": "enum HybridEscrow.EscrowType",
          "name": "",
          "type": "uint8"
        }
      ],
      "stateMutability": "view",
      "type": "function"
    },
    {
      "inputs": [],
      "name": "finalize",
      "outputs": [],
      "stateMutability": "nonpayable",
      "type": "function"
    },
    {
      "inputs": [],
      "name": "isBuyerDeposited",
      "outputs": [
        {
          "internalType": "bool",
          "name": "",
          "type": "bool"
        }
      ],
      "stateMutability": "view",
      "type": "function"
    },
    {
      "inputs": [],
      "name": "isSellerDeposited",
      "outputs": [
        {
          "internalType": "bool",
          "name": "",
          "type": "bool"
        }
      ],
      "stateMutability": "view",
      "type": "function"
    },
    {
      "inputs": [],
      "name": "price",
      "outputs": [
        {
          "internalType": "uint256",
          "name": "",
          "type": "uint256"
        }
      ],
      "stateMutability": "view",
      "type": "function"
    },
    {
      "inputs": [],
      "name": "propertyNFT",
      "outputs": [
        {
          "internalType": "contract IERC721",
          "name": "",
          "type": "address"
        }
      ],
      "stateMutability": "view",
      "type": "function"
    },
    {
      "inputs": [],
      "name": "seller",
      "outputs": [
        {
          "internalType": "address",
          "name": "",
          "type": "address"
        }
      ],
      "stateMutability": "view",
      "type": "function"
    },
    {
      "inputs": [],
      "name": "tokenId",
      "outputs": [
        {
          "internalType": "uint256",
          "name": "",
          "type": "uint256"
        }
      ],
      "stateMutability": "view",
      "type": "function"
    }
  ],
  "bytecode": "0x608060405234801561001057600080fd5b506040516107d13803806107d183398101604081905261002f916100d9565b6001600081905580546001600160a01b038089166001600160a01b03199283161783556002805491891691909216179055600385905560048054859262ff000019909116906201000090849081111561008a5761008a61014c565b0217905550600680546001600160a01b0319166001600160a01b0393909316929092179091556005555061016292505050565b80516001600160a01b03811681146100d457600080fd5b919050565b60008060008060008060c087890312156100f257600080fd5b6100fb876100bd565b9550610109602088016100bd565b6040880151606089015191965094506002811061012557600080fd5b9250610133608088016100bd565b9150600060a08801519050809150509295509295509295565b634e487b7160e01b600052602160045260246000fd5b610660806101716000396000f3fe60806040526004361061009c5760003560e01c80637150d8ae116100645780637150d8ae14610168578063a035b1fe14610188578063aa5e21531461019e578063ccc41f24146101a6578063d35eaf72146101bb578063ed1ef480146101d557600080fd5b806308551a53146100a157806317d70f7c146100de57806337f76838146101025780634bb278f3146101225780636df4503514610139575b600080fd5b3480156100ad57600080fd5b506002546100c1906001600160a01b031681565b6040516001600160a01b0390911681526020015b60405180910390f35b3480156100ea57600080fd5b506100f460055481565b6040519081526020016100d5565b34801561010e57600080fd5b506006546100c1906001600160a01b031681565b34801561012e57600080fd5b50610137610202565b005b34801561014557600080fd5b5060045461015890610100900460ff1681565b60405190151581526020016100d5565b34801561017457600080fd5b506001546100c1906001600160a01b031681565b34801561019457600080fd5b506100f460035481565b6101376103df565b3480156101b257600080fd5b506101376104c1565b3480156101c757600080fd5b506004546101589060ff1681565b3480156101e157600080fd5b506004546101f59062010000900460ff1681565b6040516100d59190610602565b61020a6105d8565b6001546001600160a01b031633146102695760405162461bcd60e51b815260206004820152601760248201527f4f6e6c792062757965722063616e2066696e616c697a6500000000000000000060448201526064015b60405180910390fd5b60045460ff1680156102825750600454610100900460ff165b6102c45760405162461bcd60e51b8152602060048201526013602482015272457363726f77206e6f7420636f6d706c65746560681b6044820152606401610260565b6006546001546005546040516323b872dd60e01b81523060048201526001600160a01b03928316602482015260448101919091529116906323b872dd90606401600060405180830381600087803b15801561031e57600080fd5b505af1158015610332573d6000803e3d6000fd5b5050600254600354604051600094506001600160a01b039092169250908381818185875af1925050503d8060008114610387576040519150601f19603f3d011682016040523d82523d6000602084013e61038c565b606091505b50509050806103d25760405162461bcd60e51b815260206004820152601260248201527108cc2d2d8cac840e8de40e6cadcc8408aa8960731b6044820152606401610260565b506103dd6001600055565b565b6001546001600160a01b031633146104265760405162461bcd60e51b815260206004820152600a60248201526927b7363c90313abcb2b960b11b6044820152606401610260565b600354341461046b5760405162461bcd60e51b8152602060048201526011602482015270125b98dbdc9c9958dd081c185e5b595b9d607a1b6044820152606401610260565b60045460ff16156104b25760405162461bcd60e51b8152602060048201526011602482015270105b1c9958591e4819195c1bdcda5d1959607a1b6044820152606401610260565b6004805460ff19166001179055565b6002546001600160a01b031633146105095760405162461bcd60e51b815260206004820152600b60248201526a27b7363c9039b2b63632b960a91b6044820152606401610260565b600454610100900460ff16156105555760405162461bcd60e51b8152602060048201526011602482015270105b1c9958591e4819195c1bdcda5d1959607a1b6044820152606401610260565b6006546002546005546040516323b872dd60e01b81526001600160a01b03928316600482015230602482015260448101919091529116906323b872dd90606401600060405180830381600087803b1580156105af57600080fd5b505af11580156105c3573d6000803e3d6000fd5b50506004805461ff0019166101001790555050565b6002600054036105fb57604051633ee5aeb560e01b815260040160405180910390fd5b6002600055565b602081016002831061062457634e487b7160e01b600052602160045260246000fd5b9190529056fea264697066735822122031ef6c5af78a45fff80e3694725a298ee155329fdf8756e736fb45386b430b6e64736f6c634300081b0033",
  "linkReferences": {},
  "deployedLinkReferences": {}
}