{
  "_format": "hh-sol-artifact-1",
  "contractName": "LastWillRegistry",
  "sourceName": "contracts/LastWillRegistry.sol",
  "abi": [
    {
      "inputs": [
        {
          "internalType": "address",
          "name": "_propertyNFT",
          "type": "address"
        },
        {
          "internalType": "address",
          "name": "initialOwner",
          "type": "address"
        }
      ],
      "stateMutability": "nonpayable",
      "type": "constructor"
    },
    {
      "inputs": [
        {
          "internalType": "address",
          "name": "owner",
          "type": "address"
        }
      ],
      "name": "OwnableInvalidOwner",
      "type": "error"
    },
    {
      "inputs": [
        {
          "internalType": "address",
          "name": "account",
          "type": "address"
        }
      ],
      "name": "OwnableUnauthorizedAccount",
      "type": "error"
    },
    {
      "inputs": [],
      "name": "ReentrancyGuardReentrantCall",
      "type": "error"
    },
    {
      "anonymous": false,
      "inputs": [
        {
          "indexed": true,
          "internalType": "address",
          "name": "executor",
          "type": "address"
        },
        {
          "indexed": false,
          "internalType": "bool",
          "name": "status",
          "type": "bool"
        }
      ],
      "name": "ExecutorAuthorized",
      "type": "event"
    },
    {
      "anonymous": false,
      "inputs": [
        {
          "indexed": true,
          "internalType": "address",
          "name": "previousOwner",
          "type": "address"
        },
        {
          "indexed": true,
          "internalType": "address",
          "name": "newOwner",
          "type": "address"
        }
      ],
      "name": "OwnershipTransferred",
      "type": "event"
    },
    {
      "anonymous": false,
      "inputs": [
        {
          "indexed": true,
          "internalType": "uint256",
          "name": "tokenId",
          "type": "uint256"
        },
        {
          "indexed": true,
          "internalType": "address",
          "name": "owner",
          "type": "address"
        },
        {
          "indexed": true,
          "internalType": "address",
          "name": "beneficiary",
          "type": "address"
        },
        {
          "indexed": false,
          "internalType": "address",
          "name": "witness1",
          "type": "address"
        },
        {
          "indexed": false,
          "internalType": "address",
          "name": "witness2",
          "type": "address"
        },
        {
          "indexed": false,
          "internalType": "string",
          "name": "ipfsHash",
          "type": "string"
        }
      ],
      "name": "WillCreated",
      "type": "event"
    },
    {
      "anonymous": false,
      "inputs": [
        {
          "indexed": true,
          "internalType": "uint256",
          "name": "tokenId",
          "type": "uint256"
        },
        {
          "indexed": true,
          "internalType": "address",
          "name": "beneficiary",
          "type": "address"
        },
        {
          "indexed": false,
          "internalType": "address",
          "name": "executor",
          "type": "address"
        },
        {
          "indexed": false,
          "internalType": "uint256",
          "name": "timestamp",
          "type": "uint256"
        }
      ],
      "name": "WillExecuted",
      "type": "event"
    },
    {
      "anonymous": false,
      "inputs": [
        {
          "indexed": true,
          "internalType": "uint256",
          "name": "tokenId",
          "type": "uint256"
        },
        {
          "indexed": true,
          "internalType": "address",
          "name": "owner",
          "type": "address"
        },
        {
          "indexed": false,
          "internalType": "uint256",
          "name": "timestamp",
          "type": "uint256"
        }
      ],
      "name": "WillRevoked",
      "type": "event"
    },
    {
      "anonymous": false,
      "inputs": [
        {
          "indexed": true,
          "internalType": "uint256",
          "name": "tokenId",
          "type": "uint256"
        },
        {
          "indexed": true,
          "internalType": "address",
          "name": "oldBeneficiary",
          "type": "address"
        },
        {
          "indexed": true,
          "internalType": "address",
          "name": "newBeneficiary",
          "type": "address"
        }
      ],
      "name": "WillTransferred",
      "type": "event"
    },
    {
      "anonymous": false,
      "inputs": [
        {
          "indexed": true,
          "internalType": "uint256",
          "name": "tokenId",
          "type": "uint256"
        },
        {
          "indexed": true,
          "internalType": "address",
          "name": "witness",
          "type": "address"
        },
        {
          "indexed": false,
          "internalType": "bool",
          "name": "approved",
          "type": "bool"
        }
      ],
      "name": "WillWitnessed",
      "type": "event"
    },
    {
      "inputs": [
        {
          "internalType": "address",
          "name": "",
          "type": "address"
        }
      ],
      "name": "authorizedExecutors",
      "outputs": [
        {
          "internalType": "bool",
          "name": "",
          "type": "bool"
        }
      ],
      "stateMutability": "view",
      "type": "function"
    },
    {
      "inputs": [
        {
          "internalType": "uint256",
          "name": "tokenId",
          "type": "uint256"
        },
        {
          "internalType": "address",
          "name": "beneficiary",
          "type": "address"
        },
        {
          "internalType": "address",
          "name": "witness1",
          "type": "address"
        },
        {
          "internalType": "address",
          "name": "witness2",
          "type": "address"
        },
        {
          "internalType": "string",
          "name": "ipfsHash",
          "type": "string"
        }
      ],
      "name": "createWill",
      "outputs": [],
      "stateMutability": "nonpayable",
      "type": "function"
    },
    {
      "inputs": [
        {
          "internalType": "uint256",
          "name": "tokenId",
          "type": "uint256"
        }
      ],
      "name": "executeWill",
      "outputs": [],
      "stateMutability": "nonpayable",
      "type": "function"
    },
    {
      "inputs": [
        {
          "internalType": "uint256",
          "name": "tokenId",
          "type": "uint256"
        }
      ],
      "name": "getWill",
      "outputs": [
        {
          "internalType": "address",
          "name": "beneficiary",
          "type": "address"
        },
        {
          "internalType": "address",
          "name": "witness1",
          "type": "address"
        },
        {
          "internalType": "address",
          "name": "witness2",
          "type": "address"
        },
        {
          "internalType": "uint256",
          "name": "createdAt",
          "type": "uint256"
        },
        {
          "internalType": "uint256",
          "name": "executionDate",
          "type": "uint256"
        },
        {
          "internalType": "bool",
          "name": "isActive",
          "type": "bool"
        },
        {
          "internalType": "bool",
          "name": "isExecuted",
          "type": "bool"
        },
        {
          "internalType": "string",
          "name": "ipfsHash",
          "type": "string"
        },
        {
          "internalType": "enum LastWillRegistry.WitnessStatus",
          "name": "witness1Status",
          "type": "uint8"
        },
        {
          "internalType": "enum LastWillRegistry.WitnessStatus",
          "name": "witness2Status",
          "type": "uint8"
        }
      ],
      "stateMutability": "view",
      "type": "function"
    },
    {
      "inputs": [
        {
          "internalType": "uint256",
          "name": "tokenId",
          "type": "uint256"
        }
      ],
      "name": "hasActiveWill",
      "outputs": [
        {
          "internalType": "bool",
          "name": "",
          "type": "bool"
        }
      ],
      "stateMutability": "view",
      "type": "function"
    },
    {
      "inputs": [
        {
          "internalType": "uint256",
          "name": "tokenId",
          "type": "uint256"
        }
      ],
      "name": "isWillReadyForExecution",
      "outputs": [
        {
          "internalType": "bool",
          "name": "",
          "type": "bool"
        }
      ],
      "stateMutability": "view",
      "type": "function"
    },
    {
      "inputs": [],
      "name": "owner",
      "outputs": [
        {
          "internalType": "address",
          "name": "",
          "type": "address"
        }
      ],
      "stateMutability": "view",
      "type": "function"
    },
    {
      "inputs": [],
      "name": "propertyNFT",
      "outputs": [
        {
          "internalType": "contract IPropertyNFT",
          "name": "",
          "type": "address"
        }
      ],
      "stateMutability": "view",
      "type": "function"
    },
    {
      "inputs": [],
      "name": "renounceOwnership",
      "outputs": [],
      "stateMutability": "nonpayable",
      "type": "function"
    },
    {
      "inputs": [
        {
          "internalType": "uint256",
          "name": "tokenId",
          "type": "uint256"
        }
      ],
      "name": "revokeWill",
      "outputs": [],
      "stateMutability": "nonpayable",
      "type": "function"
    },
    {
      "inputs": [
        {
          "internalType": "address",
          "name": "executor",
          "type": "address"
        },
        {
          "internalType": "bool",
          "name": "status",
          "type": "bool"
        }
      ],
      "name": "setExecutorAuthorization",
      "outputs": [],
      "stateMutability": "nonpayable",
      "type": "function"
    },
    {
      "inputs": [
        {
          "internalType": "address",
          "name": "newOwner",
          "type": "address"
        }
      ],
      "name": "transferOwnership",
      "outputs": [],
      "stateMutability": "nonpayable",
      "type": "function"
    },
    {
      "inputs": [
        {
          "internalType": "uint256",
          "name": "tokenId",
          "type": "uint256"
        },
        {
          "internalType": "address",
          "name": "newBeneficiary",
          "type": "address"
        }
      ],
      "name": "updateBeneficiary",
      "outputs": [],
      "stateMutability": "nonpayable",
      "type": "function"
    },
    {
      "inputs": [
        {
          "internalType": "uint256",
          "name": "",
          "type": "uint256"
        },
        {
          "internalType": "uint256",
          "name": "",
          "type": "uint256"
        }
      ],
      "name": "willWitnesses",
      "outputs": [
        {
          "internalType": "address",
          "name": "",
          "type": "address"
        }
      ],
      "stateMutability": "view",
      "type": "function"
    },
    {
      "inputs": [
        {
          "internalType": "uint256",
          "name": "",
          "type": "uint256"
        }
      ],
      "name": "wills",
      "outputs": [
        {
          "internalType": "address",
          "name": "beneficiary",
          "type": "address"
        },
        {
          "internalType": "address",
          "name": "witness1",
          "type": "address"
        },
        {
          "internalType": "address",
          "name": "witness2",
          "type": "address"
        },
        {
          "internalType": "uint256",
          "name": "createdAt",
          "type": "uint256"
        },
        {
          "internalType": "uint256",
          "name": "executionDate",
          "type": "uint256"
        },
        {
          "internalType": "bool",
          "name": "isActive",
          "type": "bool"
        },
        {
          "internalType": "bool",
          "name": "isExecuted",
          "type": "bool"
        },
        {
          "internalType": "string",
          "name": "ipfsHash",
          "type": "string"
        },
        {
          "internalType": "enum LastWillRegistry.WitnessStatus",
          "name": "witness1Status",
          "type": "uint8"
        },
        {
          "internalType": "enum LastWillRegistry.WitnessStatus",
          "name": "witness2Status",
          "type": "uint8"
        }
      ],
      "stateMutability": "view",
      "type": "function"
    },
    {
      "inputs": [
        {
          "internalType": "uint256",
          "name": "tokenId",
          "type": "uint256"
        },
        {
          "internalType": "bool",
          "name": "approve",
          "type": "bool"
        }
      ],
      "name": "witnessWill",
      "outputs": [],
      "stateMutability": "nonpayable",
      "type": "function"
    }
  ],
  "bytecode": "0x608060405234801561001057600080fd5b50604051611dbf380380611dbf83398101604081905261002f91610155565b806001600160a01b03811661005f57604051631e4fbdf760e01b8152600060048201526024015b60405180910390fd5b610068816100e9565b50600180556001600160a01b0382166100c35760405162461bcd60e51b815260206004820152601b60248201527f496e76616c69642050726f70657274794e4654206164647265737300000000006044820152606401610056565b50600580546001600160a01b0319166001600160a01b0392909216919091179055610188565b600080546001600160a01b038381166001600160a01b0319831681178455604051919092169283917f8be0079c531659141344cd1fd0a4f28419497f9722a3daafe3b4186f6b6457e09190a35050565b80516001600160a01b038116811461015057600080fd5b919050565b6000806040838503121561016857600080fd5b61017183610139565b915061017f60208401610139565b90509250929050565b611c28806101976000396000f3fe608060405234801561001057600080fd5b50600436106101005760003560e01c80638db7fbe711610097578063e53b174611610066578063e53b174614610231578063eaac26b114610244578063ee7afefa14610257578063f2fde38b1461026a57600080fd5b80638db7fbe7146101e5578063a50d6583146101f8578063b32935181461020b578063be3fc68f1461021e57600080fd5b8063679d86a7116100d3578063679d86a7146101965780636a80b6f0146101b9578063715018a6146101cc5780638da5cb5b146101d457600080fd5b806337f76838146101055780633e8eb5a4146101355780634192bbb01461014a57806343fdc25f14610173575b600080fd5b600554610118906001600160a01b031681565b6040516001600160a01b0390911681526020015b60405180910390f35b6101486101433660046116f3565b61027d565b005b61015d610158366004611723565b6104ae565b60405161012c9a999897969594939291906117ba565b610186610181366004611723565b610699565b604051901515815260200161012c565b6101866101a436600461183a565b60046020526000908152604090205460ff1681565b6101486101c7366004611723565b6106d7565b610148610843565b6000546001600160a01b0316610118565b61015d6101f3366004611723565b610857565b61014861020636600461186c565b61094e565b610186610219366004611723565b610bb8565b61014861022c366004611898565b610d93565b61014861023f366004611723565b610e50565b6101486102523660046118da565b611133565b6101186102653660046119d5565b6115c4565b61014861027836600461183a565b6115fc565b6005546040516331a9108f60e11b815260048101849052839133916001600160a01b0390911690636352211e90602401602060405180830381865afa1580156102ca573d6000803e3d6000fd5b505050506040513d601f19601f820116820180604052508101906102ee91906119f7565b6001600160a01b03161461031d5760405162461bcd60e51b815260040161031490611a14565b60405180910390fd5b6000838152600260205260409020600581015460ff1661034f5760405162461bcd60e51b815260040161031490611a40565b6005810154610100900460ff16156103a95760405162461bcd60e51b815260206004820152601b60248201527f43616e6e6f74207570646174652065786563757465642077696c6c00000000006044820152606401610314565b6001600160a01b0383166103f55760405162461bcd60e51b8152602060048201526013602482015272496e76616c69642062656e656669636961727960681b6044820152606401610314565b336001600160a01b0384160361044d5760405162461bcd60e51b815260206004820152601e60248201527f43616e6e6f7420626520796f7572206f776e2062656e656669636961727900006044820152606401610314565b80546001600160a01b031981166001600160a01b03858116918217845560078401805461ffff19169055604051921691829087907f437cd4041bedf8ce8343995e706d7f4fda710b90d763747ab4a6eff573c6f8ff90600090a45050505050565b600081815260026020818152604080842081516101408101835281546001600160a01b03908116825260018301548116948201949094529381015490921690830152600381015460608381019190915260048201546080840152600582015460ff808216151560a086015261010090910416151560c0840152600682018054859485948594859485948594929385938493849391929160e08401919061055390611a75565b80601f016020809104026020016040519081016040528092919081815260200182805461057f90611a75565b80156105cc5780601f106105a1576101008083540402835291602001916105cc565b820191906000526020600020905b8154815290600101906020018083116105af57829003601f168201915b5050509183525050600782015460209091019060ff1660028111156105f3576105f3611782565b600281111561060457610604611782565b81526020016007820160019054906101000a900460ff16600281111561062c5761062c611782565b600281111561063d5761063d611782565b815250509050806000015181602001518260400151836060015184608001518560a001518660c001518760e001518861010001518961012001519a509a509a509a509a509a509a509a509a509a50509193959799509193959799565b60008181526002602052604081206005015460ff1680156106d15750600082815260026020526040902060050154610100900460ff16155b92915050565b6005546040516331a9108f60e11b815260048101839052829133916001600160a01b0390911690636352211e90602401602060405180830381865afa158015610724573d6000803e3d6000fd5b505050506040513d601f19601f8201168201806040525081019061074891906119f7565b6001600160a01b03161461076e5760405162461bcd60e51b815260040161031490611a14565b6000828152600260205260409020600581015460ff166107a05760405162461bcd60e51b815260040161031490611a40565b6005810154610100900460ff16156107fa5760405162461bcd60e51b815260206004820152601b60248201527f43616e6e6f74207265766f6b652065786563757465642077696c6c00000000006044820152606401610314565b60058101805460ff19169055604051428152339084907f5259aa3ac94d584e8e95b587c0e699c4a2b4ff9152eb08228bf8d9a5b152d541906020015b60405180910390a3505050565b61084b611637565b6108556000611664565b565b600260208190526000918252604090912080546001820154928201546003830154600484015460058501546006860180546001600160a01b039687169887169795909616959394929360ff80841694610100909404169291906108b990611a75565b80601f01602080910402602001604051908101604052809291908181526020018280546108e590611a75565b80156109325780601f1061090757610100808354040283529160200191610932565b820191906000526020600020905b81548152906001019060200180831161091557829003601f168201915b5050506007909301549192505060ff808216916101009004168a565b6000828152600260205260409020600581015460ff166109805760405162461bcd60e51b815260040161031490611a40565b6005810154610100900460ff16156109d25760405162461bcd60e51b815260206004820152601560248201527415da5b1b08185b1c9958591e48195e1958dd5d1959605a1b6044820152606401610314565b60018101546001600160a01b03163314806109f9575060028101546001600160a01b031633145b610a455760405162461bcd60e51b815260206004820152601b60248201527f4e6f742061207769746e65737320666f7220746869732077696c6c00000000006044820152606401610314565b60018101546001600160a01b03163303610aec576000600782015460ff166002811115610a7457610a74611782565b14610ab55760405162461bcd60e51b8152602060048201526011602482015270105b1c9958591e481dda5d1b995cdcd959607a1b6044820152606401610314565b81610ac1576002610ac4565b60015b60078201805460ff19166001836002811115610ae257610ae2611782565b0217905550610b82565b60006007820154610100900460ff166002811115610b0c57610b0c611782565b14610b4d5760405162461bcd60e51b8152602060048201526011602482015270105b1c9958591e481dda5d1b995cdcd959607a1b6044820152606401610314565b81610b59576002610b5c565b60015b60078201805461ff001916610100836002811115610b7c57610b7c611782565b02179055505b6040518215158152339084907f0a84b0f5ac379a61e45440a75a9fc204f6bdefd8298915e0f6374a8b00e15be790602001610836565b600081815260026020818152604080842081516101408101835281546001600160a01b039081168252600183015481169482019490945293810154909216908301526003810154606083015260048101546080830152600581015460ff808216151560a085015261010090910416151560c08301526006810180548493929160e0840191610c4590611a75565b80601f0160208091040260200160405190810160405280929190818152602001828054610c7190611a75565b8015610cbe5780601f10610c9357610100808354040283529160200191610cbe565b820191906000526020600020905b815481529060010190602001808311610ca157829003601f168201915b5050509183525050600782015460209091019060ff166002811115610ce557610ce5611782565b6002811115610cf657610cf6611782565b81526020016007820160019054906101000a900460ff166002811115610d1e57610d1e611782565b6002811115610d2f57610d2f611782565b8152505090508060a001518015610d4857508060c00151155b8015610d6a575060018161010001516002811115610d6857610d68611782565b145b8015610d8c575060018161012001516002811115610d8a57610d8a611782565b145b9392505050565b610d9b611637565b6001600160a01b038216610df15760405162461bcd60e51b815260206004820152601860248201527f496e76616c6964206578656375746f72206164647265737300000000000000006044820152606401610314565b6001600160a01b038216600081815260046020908152604091829020805460ff191685151590811790915591519182527f61e59429ef81596566b5f5d75085a25d4043be4dd2ba28cc98d8677718e6d0c3910160405180910390a25050565b610e586116b4565b3360009081526004602052604090205460ff1680610e8057506000546001600160a01b031633145b610ecc5760405162461bcd60e51b815260206004820152601760248201527f4e6f7420617574686f72697a6564206578656375746f720000000000000000006044820152606401610314565b6000818152600260205260409020600581015460ff16610efe5760405162461bcd60e51b815260040161031490611a40565b6005810154610100900460ff1615610f505760405162461bcd60e51b815260206004820152601560248201527415da5b1b08185b1c9958591e48195e1958dd5d1959605a1b6044820152606401610314565b6001600782015460ff166002811115610f6b57610f6b611782565b148015610f95575060016007820154610100900460ff166002811115610f9357610f93611782565b145b610fe15760405162461bcd60e51b815260206004820152601860248201527f57696c6c206e6f742066756c6c79207769746e657373656400000000000000006044820152606401610314565b6005546040516331a9108f60e11b8152600481018490526000916001600160a01b031690636352211e90602401602060405180830381865afa15801561102b573d6000803e3d6000fd5b505050506040513d601f19601f8201168201806040525081019061104f91906119f7565b6005838101805461ffff191661010017905542600480860191909155905484546040516323b872dd60e01b81526001600160a01b038581169482019490945290831660248201526044810187905292935016906323b872dd90606401600060405180830381600087803b1580156110c557600080fd5b505af11580156110d9573d6000803e3d6000fd5b50508354604080513381524260208201526001600160a01b0390921693508692507fa9824014d0e4888dc504c30c049344b7e7420fe8658f50314f8b7e543c57cf51910160405180910390a3505061113060018055565b50565b6005546040516331a9108f60e11b815260048101879052869133916001600160a01b0390911690636352211e90602401602060405180830381865afa158015611180573d6000803e3d6000fd5b505050506040513d601f19601f820116820180604052508101906111a491906119f7565b6001600160a01b0316146111ca5760405162461bcd60e51b815260040161031490611a14565b60008681526002602052604090206005015460ff161561123a5760405162461bcd60e51b815260206004820152602560248201527f57696c6c20616c72656164792065786973747320666f7220746869732070726f604482015264706572747960d81b6064820152608401610314565b6001600160a01b0385166112865760405162461bcd60e51b8152602060048201526013602482015272496e76616c69642062656e656669636961727960681b6044820152606401610314565b6001600160a01b038416158015906112a657506001600160a01b03831615155b6112e65760405162461bcd60e51b8152602060048201526011602482015270496e76616c6964207769746e657373657360781b6044820152606401610314565b826001600160a01b0316846001600160a01b0316036113475760405162461bcd60e51b815260206004820152601b60248201527f5769746e6573736573206d75737420626520646966666572656e7400000000006044820152606401610314565b336001600160a01b0386160361139f5760405162461bcd60e51b815260206004820152601e60248201527f43616e6e6f7420626520796f7572206f776e2062656e656669636961727900006044820152606401610314565b60008251116113e55760405162461bcd60e51b815260206004820152601260248201527112541194c81a185cda081c995c5d5a5c995960721b6044820152606401610314565b604051806101400160405280866001600160a01b03168152602001856001600160a01b03168152602001846001600160a01b03168152602001428152602001600081526020016001151581526020016000151581526020018381526020016000600281111561145657611456611782565b815260200160009052600087815260026020818152604092839020845181546001600160a01b039182166001600160a01b031991821617835592860151600183018054918316918516919091179055938501519281018054939094169290911691909117909155606082015160038201556080820151600482015560a082015160058201805460c085015115156101000261ff00199315159390931661ffff199091161791909117905560e082015160068201906115149082611afe565b5061010082015160078201805460ff1916600183600281111561153957611539611782565b021790555061012082015160078201805461ff00191661010083600281111561156457611564611782565b0217905550905050846001600160a01b0316336001600160a01b0316877f41563ee9df94e46a2953c9b40a5c4ccec12fa1b3e640c10754f2760c19aa08718787876040516115b493929190611bbd565b60405180910390a4505050505050565b600360205281600052604060002081815481106115e057600080fd5b6000918252602090912001546001600160a01b03169150829050565b611604611637565b6001600160a01b03811661162e57604051631e4fbdf760e01b815260006004820152602401610314565b61113081611664565b6000546001600160a01b031633146108555760405163118cdaa760e01b8152336004820152602401610314565b600080546001600160a01b038381166001600160a01b0319831681178455604051919092169283917f8be0079c531659141344cd1fd0a4f28419497f9722a3daafe3b4186f6b6457e09190a35050565b6002600154036116d757604051633ee5aeb560e01b815260040160405180910390fd5b6002600155565b6001600160a01b038116811461113057600080fd5b6000806040838503121561170657600080fd5b823591506020830135611718816116de565b809150509250929050565b60006020828403121561173557600080fd5b5035919050565b6000815180845260005b8181101561176257602081850181015186830182015201611746565b506000602082860101526020601f19601f83011685010191505092915050565b634e487b7160e01b600052602160045260246000fd5b600381106117b657634e487b7160e01b600052602160045260246000fd5b9052565b6001600160a01b038b811682528a8116602083015289166040820152606081018890526080810187905285151560a082015284151560c082015261014060e0820181905260009061180d9083018661173c565b905061181d610100830185611798565b61182b610120830184611798565b9b9a5050505050505050505050565b60006020828403121561184c57600080fd5b8135610d8c816116de565b8035801515811461186757600080fd5b919050565b6000806040838503121561187f57600080fd5b8235915061188f60208401611857565b90509250929050565b600080604083850312156118ab57600080fd5b82356118b6816116de565b915061188f60208401611857565b634e487b7160e01b600052604160045260246000fd5b600080600080600060a086880312156118f257600080fd5b853594506020860135611904816116de565b93506040860135611914816116de565b92506060860135611924816116de565b9150608086013567ffffffffffffffff81111561194057600080fd5b8601601f8101881361195157600080fd5b803567ffffffffffffffff81111561196b5761196b6118c4565b604051601f8201601f19908116603f0116810167ffffffffffffffff8111828210171561199a5761199a6118c4565b6040528181528282016020018a10156119b257600080fd5b816020840160208301376000602083830101528093505050509295509295909350565b600080604083850312156119e857600080fd5b50508035926020909101359150565b600060208284031215611a0957600080fd5b8151610d8c816116de565b6020808252601290820152712737ba10383937b832b93a3c9037bbb732b960711b604082015260600190565b6020808252818101527f4e6f206163746976652077696c6c20666f7220746869732070726f7065727479604082015260600190565b600181811c90821680611a8957607f821691505b602082108103611aa957634e487b7160e01b600052602260045260246000fd5b50919050565b601f821115611af957806000526020600020601f840160051c81016020851015611ad65750805b601f840160051c820191505b81811015611af65760008155600101611ae2565b50505b505050565b815167ffffffffffffffff811115611b1857611b186118c4565b611b2c81611b268454611a75565b84611aaf565b6020601f821160018114611b605760008315611b485750848201515b600019600385901b1c1916600184901b178455611af6565b600084815260208120601f198516915b82811015611b905787850151825560209485019460019092019101611b70565b5084821015611bae5786840151600019600387901b60f8161c191681555b50505050600190811b01905550565b6001600160a01b03848116825283166020820152606060408201819052600090611be99083018461173c565b9594505050505056fea264697066735822122067afa5aa20bd647e360e4323eceb19dec52d71bed7bd1928072a859c210f14a664736f6c634300081b0033",
  "linkReferences": {},
  "deployedLinkReferences": {}
}