{
  "_format": "hh-sol-artifact-1",
  "contractName": "PropertyNFT",
  "sourceName": "contracts/PropertyNFT.sol",
  "abi": [
    {
      "inputs": [
        {
          "internalType": "address",
          "name": "initialOwner",
          "type": "address"
        }
      ],
      "stateMutability": "nonpayable",
      "type": "constructor"
    },
    {
      "inputs": [],
      "name": "AccessControlBadConfirmation",
      "type": "error"
    },
    {
      "inputs": [
        {
          "internalType": "address",
          "name": "account",
          "type": "address"
        },
        {
          "internalType": "bytes32",
          "name": "neededRole",
          "type": "bytes32"
        }
      ],
      "name": "AccessControlUnauthorizedAccount",
      "type": "error"
    },
    {
      "inputs": [
        {
          "internalType": "address",
          "name": "sender",
          "type": "address"
        },
        {
          "internalType": "uint256",
          "name": "tokenId",
          "type": "uint256"
        },
        {
          "internalType": "address",
          "name": "owner",
          "type": "address"
        }
      ],
      "name": "ERC721IncorrectOwner",
      "type": "error"
    },
    {
      "inputs": [
        {
          "internalType": "address",
          "name": "operator",
          "type": "address"
        },
        {
          "internalType": "uint256",
          "name": "tokenId",
          "type": "uint256"
        }
      ],
      "name": "ERC721InsufficientApproval",
      "type": "error"
    },
    {
      "inputs": [
        {
          "internalType": "address",
          "name": "approver",
          "type": "address"
        }
      ],
      "name": "ERC721InvalidApprover",
      "type": "error"
    },
    {
      "inputs": [
        {
          "internalType": "address",
          "name": "operator",
          "type": "address"
        }
      ],
      "name": "ERC721InvalidOperator",
      "type": "error"
    },
    {
      "inputs": [
        {
          "internalType": "address",
          "name": "owner",
          "type": "address"
        }
      ],
      "name": "ERC721InvalidOwner",
      "type": "error"
    },
    {
      "inputs": [
        {
          "internalType": "address",
          "name": "receiver",
          "type": "address"
        }
      ],
      "name": "ERC721InvalidReceiver",
      "type": "error"
    },
    {
      "inputs": [
        {
          "internalType": "address",
          "name": "sender",
          "type": "address"
        }
      ],
      "name": "ERC721InvalidSender",
      "type": "error"
    },
    {
      "inputs": [
        {
          "internalType": "uint256",
          "name": "tokenId",
          "type": "uint256"
        }
      ],
      "name": "ERC721NonexistentToken",
      "type": "error"
    },
    {
      "inputs": [
        {
          "internalType": "address",
          "name": "owner",
          "type": "address"
        }
      ],
      "name": "OwnableInvalidOwner",
      "type": "error"
    },
    {
      "inputs": [
        {
          "internalType": "address",
          "name": "account",
          "type": "address"
        }
      ],
      "name": "OwnableUnauthorizedAccount",
      "type": "error"
    },
    {
      "anonymous": false,
      "inputs": [
        {
          "indexed": true,
          "internalType": "address",
          "name": "owner",
          "type": "address"
        },
        {
          "indexed": true,
          "internalType": "address",
          "name": "approved",
          "type": "address"
        },
        {
          "indexed": true,
          "internalType": "uint256",
          "name": "tokenId",
          "type": "uint256"
        }
      ],
      "name": "Approval",
      "type": "event"
    },
    {
      "anonymous": false,
      "inputs": [
        {
          "indexed": true,
          "internalType": "address",
          "name": "owner",
          "type": "address"
        },
        {
          "indexed": true,
          "internalType": "address",
          "name": "operator",
          "type": "address"
        },
        {
          "indexed": false,
          "internalType": "bool",
          "name": "approved",
          "type": "bool"
        }
      ],
      "name": "ApprovalForAll",
      "type": "event"
    },
    {
      "anonymous": false,
      "inputs": [
        {
          "indexed": true,
          "internalType": "address",
          "name": "previousOwner",
          "type": "address"
        },
        {
          "indexed": true,
          "internalType": "address",
          "name": "newOwner",
          "type": "address"
        }
      ],
      "name": "OwnershipTransferred",
      "type": "event"
    },
    {
      "anonymous": false,
      "inputs": [
        {
          "indexed": true,
          "internalType": "uint256",
          "name": "tokenId",
          "type": "uint256"
        },
        {
          "indexed": true,
          "internalType": "address",
          "name": "signer",
          "type": "address"
        },
        {
          "indexed": false,
          "internalType": "string",
          "name": "role",
          "type": "string"
        }
      ],
      "name": "PropertySigned",
      "type": "event"
    },
    {
      "anonymous": false,
      "inputs": [
        {
          "indexed": true,
          "internalType": "bytes32",
          "name": "role",
          "type": "bytes32"
        },
        {
          "indexed": true,
          "internalType": "bytes32",
          "name": "previousAdminRole",
          "type": "bytes32"
        },
        {
          "indexed": true,
          "internalType": "bytes32",
          "name": "newAdminRole",
          "type": "bytes32"
        }
      ],
      "name": "RoleAdminChanged",
      "type": "event"
    },
    {
      "anonymous": false,
      "inputs": [
        {
          "indexed": true,
          "internalType": "bytes32",
          "name": "role",
          "type": "bytes32"
        },
        {
          "indexed": true,
          "internalType": "address",
          "name": "account",
          "type": "address"
        },
        {
          "indexed": true,
          "internalType": "address",
          "name": "sender",
          "type": "address"
        }
      ],
      "name": "RoleGranted",
      "type": "event"
    },
    {
      "anonymous": false,
      "inputs": [
        {
          "indexed": true,
          "internalType": "bytes32",
          "name": "role",
          "type": "bytes32"
        },
        {
          "indexed": true,
          "internalType": "address",
          "name": "account",
          "type": "address"
        },
        {
          "indexed": true,
          "internalType": "address",
          "name": "sender",
          "type": "address"
        }
      ],
      "name": "RoleRevoked",
      "type": "event"
    },
    {
      "anonymous": false,
      "inputs": [
        {
          "indexed": true,
          "internalType": "address",
          "name": "from",
          "type": "address"
        },
        {
          "indexed": true,
          "internalType": "address",
          "name": "to",
          "type": "address"
        },
        {
          "indexed": true,
          "internalType": "uint256",
          "name": "tokenId",
          "type": "uint256"
        }
      ],
      "name": "Transfer",
      "type": "event"
    },
    {
      "inputs": [],
      "name": "DEFAULT_ADMIN_ROLE",
      "outputs": [
        {
          "internalType": "bytes32",
          "name": "",
          "type": "bytes32"
        }
      ],
      "stateMutability": "view",
      "type": "function"
    },
    {
      "inputs": [],
      "name": "IVSL_ROLE",
      "outputs": [
        {
          "internalType": "bytes32",
          "name": "",
          "type": "bytes32"
        }
      ],
      "stateMutability": "view",
      "type": "function"
    },
    {
      "inputs": [],
      "name": "NOTARY_ROLE",
      "outputs": [
        {
          "internalType": "bytes32",
          "name": "",
          "type": "bytes32"
        }
      ],
      "stateMutability": "view",
      "type": "function"
    },
    {
      "inputs": [],
      "name": "SURVEYOR_ROLE",
      "outputs": [
        {
          "internalType": "bytes32",
          "name": "",
          "type": "bytes32"
        }
      ],
      "stateMutability": "view",
      "type": "function"
    },
    {
      "inputs": [
        {
          "internalType": "address",
          "name": "to",
          "type": "address"
        },
        {
          "internalType": "uint256",
          "name": "tokenId",
          "type": "uint256"
        }
      ],
      "name": "approve",
      "outputs": [],
      "stateMutability": "nonpayable",
      "type": "function"
    },
    {
      "inputs": [
        {
          "internalType": "address",
          "name": "owner",
          "type": "address"
        }
      ],
      "name": "balanceOf",
      "outputs": [
        {
          "internalType": "uint256",
          "name": "",
          "type": "uint256"
        }
      ],
      "stateMutability": "view",
      "type": "function"
    },
    {
      "inputs": [
        {
          "internalType": "uint256",
          "name": "tokenId",
          "type": "uint256"
        }
      ],
      "name": "getApproved",
      "outputs": [
        {
          "internalType": "address",
          "name": "",
          "type": "address"
        }
      ],
      "stateMutability": "view",
      "type": "function"
    },
    {
      "inputs": [
        {
          "internalType": "uint256",
          "name": "tokenId",
          "type": "uint256"
        }
      ],
      "name": "getMetadata",
      "outputs": [
        {
          "internalType": "string",
          "name": "ipfsHash",
          "type": "string"
        },
        {
          "internalType": "string",
          "name": "dbHash",
          "type": "string"
        }
      ],
      "stateMutability": "view",
      "type": "function"
    },
    {
      "inputs": [
        {
          "internalType": "bytes32",
          "name": "role",
          "type": "bytes32"
        }
      ],
      "name": "getRoleAdmin",
      "outputs": [
        {
          "internalType": "bytes32",
          "name": "",
          "type": "bytes32"
        }
      ],
      "stateMutability": "view",
      "type": "function"
    },
    {
      "inputs": [
        {
          "internalType": "address",
          "name": "account",
          "type": "address"
        }
      ],
      "name": "getRolesOf",
      "outputs": [
        {
          "internalType": "bool",
          "name": "surveyor",
          "type": "bool"
        },
        {
          "internalType": "bool",
          "name": "notary",
          "type": "bool"
        },
        {
          "internalType": "bool",
          "name": "ivsl",
          "type": "bool"
        }
      ],
      "stateMutability": "view",
      "type": "function"
    },
    {
      "inputs": [
        {
          "internalType": "uint256",
          "name": "tokenId",
          "type": "uint256"
        }
      ],
      "name": "getSignatures",
      "outputs": [
        {
          "internalType": "address",
          "name": "surveyor",
          "type": "address"
        },
        {
          "internalType": "address",
          "name": "notary",
          "type": "address"
        },
        {
          "internalType": "address",
          "name": "ivsl",
          "type": "address"
        }
      ],
      "stateMutability": "view",
      "type": "function"
    },
    {
      "inputs": [
        {
          "internalType": "bytes32",
          "name": "role",
          "type": "bytes32"
        },
        {
          "internalType": "address",
          "name": "account",
          "type": "address"
        }
      ],
      "name": "grantRole",
      "outputs": [],
      "stateMutability": "nonpayable",
      "type": "function"
    },
    {
      "inputs": [
        {
          "internalType": "bytes32",
          "name": "role",
          "type": "bytes32"
        },
        {
          "internalType": "address",
          "name": "account",
          "type": "address"
        }
      ],
      "name": "hasRole",
      "outputs": [
        {
          "internalType": "bool",
          "name": "",
          "type": "bool"
        }
      ],
      "stateMutability": "view",
      "type": "function"
    },
    {
      "inputs": [
        {
          "internalType": "address",
          "name": "owner",
          "type": "address"
        },
        {
          "internalType": "address",
          "name": "operator",
          "type": "address"
        }
      ],
      "name": "isApprovedForAll",
      "outputs": [
        {
          "internalType": "bool",
          "name": "",
          "type": "bool"
        }
      ],
      "stateMutability": "view",
      "type": "function"
    },
    {
      "inputs": [
        {
          "internalType": "uint256",
          "name": "tokenId",
          "type": "uint256"
        }
      ],
      "name": "isFullySigned",
      "outputs": [
        {
          "internalType": "bool",
          "name": "",
          "type": "bool"
        }
      ],
      "stateMutability": "view",
      "type": "function"
    },
    {
      "inputs": [
        {
          "internalType": "uint256",
          "name": "tokenId",
          "type": "uint256"
        }
      ],
      "name": "isSignedByIVSL",
      "outputs": [
        {
          "internalType": "bool",
          "name": "",
          "type": "bool"
        }
      ],
      "stateMutability": "view",
      "type": "function"
    },
    {
      "inputs": [
        {
          "internalType": "uint256",
          "name": "tokenId",
          "type": "uint256"
        }
      ],
      "name": "isSignedByNotary",
      "outputs": [
        {
          "internalType": "bool",
          "name": "",
          "type": "bool"
        }
      ],
      "stateMutability": "view",
      "type": "function"
    },
    {
      "inputs": [
        {
          "internalType": "uint256",
          "name": "tokenId",
          "type": "uint256"
        }
      ],
      "name": "isSignedBySurveyor",
      "outputs": [
        {
          "internalType": "bool",
          "name": "",
          "type": "bool"
        }
      ],
      "stateMutability": "view",
      "type": "function"
    },
    {
      "inputs": [
        {
          "internalType": "address",
          "name": "to",
          "type": "address"
        },
        {
          "internalType": "string",
          "name": "ipfsHash",
          "type": "string"
        },
        {
          "internalType": "string",
          "name": "dbHash",
          "type": "string"
        }
      ],
      "name": "mintProperty",
      "outputs": [],
      "stateMutability": "nonpayable",
      "type": "function"
    },
    {
      "inputs": [],
      "name": "name",
      "outputs": [
        {
          "internalType": "string",
          "name": "",
          "type": "string"
        }
      ],
      "stateMutability": "view",
      "type": "function"
    },
    {
      "inputs": [],
      "name": "nextTokenId",
      "outputs": [
        {
          "internalType": "uint256",
          "name": "",
          "type": "uint256"
        }
      ],
      "stateMutability": "view",
      "type": "function"
    },
    {
      "inputs": [],
      "name": "owner",
      "outputs": [
        {
          "internalType": "address",
          "name": "",
          "type": "address"
        }
      ],
      "stateMutability": "view",
      "type": "function"
    },
    {
      "inputs": [
        {
          "internalType": "uint256",
          "name": "tokenId",
          "type": "uint256"
        }
      ],
      "name": "ownerOf",
      "outputs": [
        {
          "internalType": "address",
          "name": "",
          "type": "address"
        }
      ],
      "stateMutability": "view",
      "type": "function"
    },
    {
      "inputs": [],
      "name": "renounceOwnership",
      "outputs": [],
      "stateMutability": "nonpayable",
      "type": "function"
    },
    {
      "inputs": [
        {
          "internalType": "bytes32",
          "name": "role",
          "type": "bytes32"
        },
        {
          "internalType": "address",
          "name": "callerConfirmation",
          "type": "address"
        }
      ],
      "name": "renounceRole",
      "outputs": [],
      "stateMutability": "nonpayable",
      "type": "function"
    },
    {
      "inputs": [
        {
          "internalType": "bytes32",
          "name": "role",
          "type": "bytes32"
        },
        {
          "internalType": "address",
          "name": "account",
          "type": "address"
        }
      ],
      "name": "revokeRole",
      "outputs": [],
      "stateMutability": "nonpayable",
      "type": "function"
    },
    {
      "inputs": [
        {
          "internalType": "address",
          "name": "from",
          "type": "address"
        },
        {
          "internalType": "address",
          "name": "to",
          "type": "address"
        },
        {
          "internalType": "uint256",
          "name": "tokenId",
          "type": "uint256"
        }
      ],
      "name": "safeTransferFrom",
      "outputs": [],
      "stateMutability": "nonpayable",
      "type": "function"
    },
    {
      "inputs": [
        {
          "internalType": "address",
          "name": "from",
          "type": "address"
        },
        {
          "internalType": "address",
          "name": "to",
          "type": "address"
        },
        {
          "internalType": "uint256",
          "name": "tokenId",
          "type": "uint256"
        },
        {
          "internalType": "bytes",
          "name": "data",
          "type": "bytes"
        }
      ],
      "name": "safeTransferFrom",
      "outputs": [],
      "stateMutability": "nonpayable",
      "type": "function"
    },
    {
      "inputs": [
        {
          "internalType": "address",
          "name": "operator",
          "type": "address"
        },
        {
          "internalType": "bool",
          "name": "approved",
          "type": "bool"
        }
      ],
      "name": "setApprovalForAll",
      "outputs": [],
      "stateMutability": "nonpayable",
      "type": "function"
    },
    {
      "inputs": [
        {
          "internalType": "uint256",
          "name": "tokenId",
          "type": "uint256"
        }
      ],
      "name": "signProperty",
      "outputs": [],
      "stateMutability": "nonpayable",
      "type": "function"
    },
    {
      "inputs": [
        {
          "internalType": "bytes4",
          "name": "interfaceId",
          "type": "bytes4"
        }
      ],
      "name": "supportsInterface",
      "outputs": [
        {
          "internalType": "bool",
          "name": "",
          "type": "bool"
        }
      ],
      "stateMutability": "view",
      "type": "function"
    },
    {
      "inputs": [],
      "name": "symbol",
      "outputs": [
        {
          "internalType": "string",
          "name": "",
          "type": "string"
        }
      ],
      "stateMutability": "view",
      "type": "function"
    },
    {
      "inputs": [
        {
          "internalType": "uint256",
          "name": "tokenId",
          "type": "uint256"
        }
      ],
      "name": "tokenURI",
      "outputs": [
        {
          "internalType": "string",
          "name": "",
          "type": "string"
        }
      ],
      "stateMutability": "view",
      "type": "function"
    },
    {
      "inputs": [
        {
          "internalType": "address",
          "name": "from",
          "type": "address"
        },
        {
          "internalType": "address",
          "name": "to",
          "type": "address"
        },
        {
          "internalType": "uint256",
          "name": "tokenId",
          "type": "uint256"
        }
      ],
      "name": "transferFrom",
      "outputs": [],
      "stateMutability": "nonpayable",
      "type": "function"
    },
    {
      "inputs": [
        {
          "internalType": "address",
          "name": "newOwner",
          "type": "address"
        }
      ],
      "name": "transferOwnership",
      "outputs": [],
      "stateMutability": "nonpayable",
      "type": "function"
    }
  ],
  "bytecode": "0x608060405234801561001057600080fd5b5060405161236038038061236083398101604081905261002f916101e0565b806040518060400160405280600d81526020016c1499585b115cdd185d19539195609a1b8152506040518060400160405280600681526020016514914b53919560d21b815250816000908161008491906102af565b50600161009182826102af565b5050506001600160a01b0381166100c257604051631e4fbdf760e01b81526000600482015260240160405180910390fd5b6100cb816100de565b506100d7600082610130565b505061036d565b600680546001600160a01b038381166001600160a01b0319831681179093556040519116919082907f8be0079c531659141344cd1fd0a4f28419497f9722a3daafe3b4186f6b6457e090600090a35050565b60008281526007602090815260408083206001600160a01b038516845290915281205460ff166101d65760008381526007602090815260408083206001600160a01b03861684529091529020805460ff1916600117905561018e3390565b6001600160a01b0316826001600160a01b0316847f2f8788117e7eff1d82e926ec794901d17c78024a50270940304540a733656f0d60405160405180910390a45060016101da565b5060005b92915050565b6000602082840312156101f257600080fd5b81516001600160a01b038116811461020957600080fd5b9392505050565b634e487b7160e01b600052604160045260246000fd5b600181811c9082168061023a57607f821691505b60208210810361025a57634e487b7160e01b600052602260045260246000fd5b50919050565b601f8211156102aa57806000526020600020601f840160051c810160208510156102875750805b601f840160051c820191505b818110156102a75760008155600101610293565b50505b505050565b81516001600160401b038111156102c8576102c8610210565b6102dc816102d68454610226565b84610260565b6020601f82116001811461031057600083156102f85750848201515b600019600385901b1c1916600184901b1784556102a7565b600084815260208120601f198516915b828110156103405787850151825560209485019460019092019101610320565b508482101561035e5786840151600019600387901b60f8161c191681555b50505050600190811b01905550565b611fe48061037c6000396000f3fe608060405234801561001057600080fd5b50600436106102115760003560e01c806391d1485411610125578063c87b56dd116100ad578063e4ceebfc1161007c578063e4ceebfc146104bc578063e985e9c5146104cf578063f2fde38b146104e2578063f4eccb8f146104f5578063f568414f1461053257600080fd5b8063c87b56dd14610470578063d547741f14610483578063e317f75614610496578063e4b4e9c8146104a957600080fd5b8063a574cea4116100f4578063a574cea4146103db578063b2e50f58146103fc578063b88d4fde1461040f578063be47e02814610422578063c48b0baa1461044957600080fd5b806391d14854146103a557806395d89b41146103b8578063a217fddf146103c0578063a22cb465146103c857600080fd5b806336568abe116101a857806370a082311161017757806370a0823114610349578063715018a61461035c57806375794a3c146103645780638c238b791461036d5780638da5cb5b1461039457600080fd5b806336568abe146102fd57806342842e0e146103105780636352211e146103235780636e777dd81461033657600080fd5b8063095ea7b3116101e4578063095ea7b31461029357806323b872dd146102a6578063248a9ca3146102b95780632f2ff15d146102ea57600080fd5b806301ffc9a7146102165780630675ec801461023e57806306fdde0314610253578063081812fc14610268575b600080fd5b6102296102243660046119cc565b610564565b60405190151581526020015b60405180910390f35b61025161024c3660046119e9565b610575565b005b61025b61087d565b6040516102359190611a52565b61027b6102763660046119e9565b61090f565b6040516001600160a01b039091168152602001610235565b6102516102a1366004611a81565b610938565b6102516102b4366004611aab565b610947565b6102dc6102c73660046119e9565b60009081526007602052604090206001015490565b604051908152602001610235565b6102516102f8366004611ae8565b6109d2565b61025161030b366004611ae8565b6109f7565b61025161031e366004611aab565b610a2f565b61027b6103313660046119e9565b610a4a565b610251610344366004611bc4565b610a55565b6102dc610357366004611c3d565b610ac4565b610251610b0c565b6102dc60085481565b6102dc7f4f3724b2b11e1ff14982c16ee1ccbeeddf1e15256c41dccf7ecbd129a3e5d27681565b6006546001600160a01b031661027b565b6102296103b3366004611ae8565b610b20565b61025b610b4b565b6102dc600081565b6102516103d6366004611c58565b610b5a565b6103ee6103e93660046119e9565b610b65565b604051610235929190611c94565b61022961040a3660046119e9565b610ce9565b61025161041d366004611cc2565b610d39565b6102dc7f2876b6444ca73956040d49b0d48b2a7c03b6b34daa638a812177f0309da79c7e81565b6102dc7f014df5ee2861d7f34562399ffa112fc59b51f810d2b875c3609ba0c31ac873d081565b61025b61047e3660046119e9565b610d51565b610251610491366004611ae8565b610dc6565b6102296104a43660046119e9565b610deb565b6102296104b73660046119e9565b610e3e565b6102296104ca3660046119e9565b610e91565b6102296104dd366004611d3e565b610f2a565b6102516104f0366004611c3d565b610f58565b6105086105033660046119e9565b610f93565b604080516001600160a01b0394851681529284166020840152921691810191909152606001610235565b610545610540366004611c3d565b611013565b6040805193151584529115156020840152151590820152606001610235565b600061056f826110a3565b92915050565b600061058082610a4a565b6001600160a01b0316036105af5760405162461bcd60e51b81526004016105a690611d68565b60405180910390fd5b6105d97f2876b6444ca73956040d49b0d48b2a7c03b6b34daa638a812177f0309da79c7e33610b20565b1561068d576000818152600a60205260409020546001600160a01b0316156106135760405162461bcd60e51b81526004016105a690611d96565b6000818152600a60205260409081902080546001600160a01b03191633908117909155905182907fbbf4fe4b13ab354e887b8d523b66c461a295fabdeaacaee470958888ce85b3bc906106829060208082526008908201526729aaa92b22aca7a960c11b604082015260600190565b60405180910390a350565b6106b77f014df5ee2861d7f34562399ffa112fc59b51f810d2b875c3609ba0c31ac873d033610b20565b15610764576000818152600a60205260409020600101546001600160a01b0316156106f45760405162461bcd60e51b81526004016105a690611d96565b6000818152600a60205260409081902060010180546001600160a01b03191633908117909155905182907fbbf4fe4b13ab354e887b8d523b66c461a295fabdeaacaee470958888ce85b3bc90610682906020808252600690820152654e4f5441525960d01b604082015260600190565b61078e7f4f3724b2b11e1ff14982c16ee1ccbeeddf1e15256c41dccf7ecbd129a3e5d27633610b20565b15610839576000818152600a60205260409020600201546001600160a01b0316156107cb5760405162461bcd60e51b81526004016105a690611d96565b6000818152600a60205260409081902060020180546001600160a01b03191633908117909155905182907fbbf4fe4b13ab354e887b8d523b66c461a295fabdeaacaee470958888ce85b3bc9061068290602080825260049082015263125594d360e21b604082015260600190565b60405162461bcd60e51b81526020600482015260166024820152752737ba1030baba3437b934bd32b2103a379039b4b3b760511b60448201526064016105a6565b50565b60606000805461088c90611dbe565b80601f01602080910402602001604051908101604052809291908181526020018280546108b890611dbe565b80156109055780601f106108da57610100808354040283529160200191610905565b820191906000526020600020905b8154815290600101906020018083116108e857829003601f168201915b5050505050905090565b600061091a826110c8565b506000828152600460205260409020546001600160a01b031661056f565b610943828233611101565b5050565b6001600160a01b03821661097157604051633250574960e11b8152600060048201526024016105a6565b600061097e83833361110e565b9050836001600160a01b0316816001600160a01b0316146109cc576040516364283d7b60e01b81526001600160a01b03808616600483015260248201849052821660448201526064016105a6565b50505050565b6000828152600760205260409020600101546109ed81611207565b6109cc8383611211565b6001600160a01b0381163314610a205760405163334bd91960e11b815260040160405180910390fd5b610a2a82826112a5565b505050565b610a2a83838360405180602001604052806000815250610d39565b600061056f826110c8565b6008805460009182610a6683611df8565b919050559050610a768482611312565b6040805180820182528481526020808201859052600084815260099091529190912081518190610aa69082611e66565b5060208201516001820190610abb9082611e66565b50505050505050565b60006001600160a01b038216610af0576040516322718ad960e21b8152600060048201526024016105a6565b506001600160a01b031660009081526003602052604090205490565b610b1461132c565b610b1e6000611359565b565b60009182526007602090815260408084206001600160a01b0393909316845291905290205460ff1690565b60606001805461088c90611dbe565b6109433383836113ab565b6060806000610b7384610a4a565b6001600160a01b031603610b995760405162461bcd60e51b81526004016105a690611d68565b6000838152600960205260408082208151808301909252805482908290610bbf90611dbe565b80601f0160208091040260200160405190810160405280929190818152602001828054610beb90611dbe565b8015610c385780601f10610c0d57610100808354040283529160200191610c38565b820191906000526020600020905b815481529060010190602001808311610c1b57829003601f168201915b50505050508152602001600182018054610c5190611dbe565b80601f0160208091040260200160405190810160405280929190818152602001828054610c7d90611dbe565b8015610cca5780601f10610c9f57610100808354040283529160200191610cca565b820191906000526020600020905b815481529060010190602001808311610cad57829003601f168201915b5050505050815250509050806000015181602001519250925050915091565b600080610cf583610a4a565b6001600160a01b031603610d1b5760405162461bcd60e51b81526004016105a690611d68565b506000908152600a60205260409020546001600160a01b0316151590565b610d44848484610947565b6109cc338585858561144a565b6060610d5c826110c8565b506000610d7460408051602081019091526000815290565b90506000815111610d945760405180602001604052806000815250610dbf565b80610d9e84611575565b604051602001610daf929190611f25565b6040516020818303038152906040525b9392505050565b600082815260076020526040902060010154610de181611207565b6109cc83836112a5565b600080610df783610a4a565b6001600160a01b031603610e1d5760405162461bcd60e51b81526004016105a690611d68565b506000908152600a60205260409020600101546001600160a01b0316151590565b600080610e4a83610a4a565b6001600160a01b031603610e705760405162461bcd60e51b81526004016105a690611d68565b506000908152600a60205260409020600201546001600160a01b0316151590565b600080610e9d83610a4a565b6001600160a01b031603610ec35760405162461bcd60e51b81526004016105a690611d68565b6000828152600a60205260409020546001600160a01b031615801590610f0257506000828152600a60205260409020600101546001600160a01b031615155b801561056f5750506000908152600a60205260409020600201546001600160a01b0316151590565b6001600160a01b03918216600090815260056020908152604080832093909416825291909152205460ff1690565b610f6061132c565b6001600160a01b038116610f8a57604051631e4fbdf760e01b8152600060048201526024016105a6565b61087a81611359565b6000808080610fa185610a4a565b6001600160a01b031603610fc75760405162461bcd60e51b81526004016105a690611d68565b5050506000818152600a6020908152604091829020825160608101845281546001600160a01b039081168083526001840154821694830185905260029093015416930183905293909250565b60008060006110427f2876b6444ca73956040d49b0d48b2a7c03b6b34daa638a812177f0309da79c7e85610b20565b61106c7f014df5ee2861d7f34562399ffa112fc59b51f810d2b875c3609ba0c31ac873d086610b20565b6110967f4f3724b2b11e1ff14982c16ee1ccbeeddf1e15256c41dccf7ecbd129a3e5d27687610b20565b9250925092509193909250565b60006001600160e01b03198216637965db0b60e01b148061056f575061056f82611608565b6000818152600260205260408120546001600160a01b03168061056f57604051637e27328960e01b8152600481018490526024016105a6565b610a2a8383836001611658565b6000828152600260205260408120546001600160a01b039081169083161561113b5761113b81848661175e565b6001600160a01b0381161561117957611158600085600080611658565b6001600160a01b038116600090815260036020526040902080546000190190555b6001600160a01b038516156111a8576001600160a01b0385166000908152600360205260409020805460010190555b60008481526002602052604080822080546001600160a01b0319166001600160a01b0389811691821790925591518793918516917fddf252ad1be2c89b69c2b068fc378daa952ba7f163c4a11628f55a4df523b3ef91a4949350505050565b61087a81336117c2565b600061121d8383610b20565b61129d5760008381526007602090815260408083206001600160a01b03861684529091529020805460ff191660011790556112553390565b6001600160a01b0316826001600160a01b0316847f2f8788117e7eff1d82e926ec794901d17c78024a50270940304540a733656f0d60405160405180910390a450600161056f565b50600061056f565b60006112b18383610b20565b1561129d5760008381526007602090815260408083206001600160a01b0386168085529252808320805460ff1916905551339286917ff6391f5c32d9c69d2a47ea670b442974b53935d1edc7fd64eb21e047a839171b9190a450600161056f565b6109438282604051806020016040528060008152506117fb565b6006546001600160a01b03163314610b1e5760405163118cdaa760e01b81523360048201526024016105a6565b600680546001600160a01b038381166001600160a01b0319831681179093556040519116919082907f8be0079c531659141344cd1fd0a4f28419497f9722a3daafe3b4186f6b6457e090600090a35050565b6001600160a01b0382166113dd57604051630b61174360e31b81526001600160a01b03831660048201526024016105a6565b6001600160a01b03838116600081815260056020908152604080832094871680845294825291829020805460ff191686151590811790915591519182527f17307eab39ab6107e8899845ad3d59bd9653f200f220920489ca2b5937696c31910160405180910390a3505050565b6001600160a01b0383163b1561156e57604051630a85bd0160e11b81526001600160a01b0384169063150b7a029061148c908890889087908790600401611f54565b6020604051808303816000875af19250505080156114c7575060408051601f3d908101601f191682019092526114c491810190611f91565b60015b611530573d8080156114f5576040519150601f19603f3d011682016040523d82523d6000602084013e6114fa565b606091505b50805160000361152857604051633250574960e11b81526001600160a01b03851660048201526024016105a6565b805160208201fd5b6001600160e01b03198116630a85bd0160e11b1461156c57604051633250574960e11b81526001600160a01b03851660048201526024016105a6565b505b5050505050565b6060600061158283611813565b600101905060008167ffffffffffffffff8111156115a2576115a2611b14565b6040519080825280601f01601f1916602001820160405280156115cc576020820181803683370190505b5090508181016020015b600019016f181899199a1a9b1b9c1cb0b131b232b360811b600a86061a8153600a85049450846115d657509392505050565b60006001600160e01b031982166380ac58cd60e01b148061163957506001600160e01b03198216635b5e139f60e01b145b8061056f57506301ffc9a760e01b6001600160e01b031983161461056f565b808061166c57506001600160a01b03821615155b1561172e57600061167c846110c8565b90506001600160a01b038316158015906116a85750826001600160a01b0316816001600160a01b031614155b80156116bb57506116b98184610f2a565b155b156116e45760405163a9fbf51f60e01b81526001600160a01b03841660048201526024016105a6565b811561172c5783856001600160a01b0316826001600160a01b03167f8c5be1e5ebec7d5bd14f71427d1e84f3dd0314c0f7b2291e5b200ac8c7c3b92560405160405180910390a45b505b5050600090815260046020526040902080546001600160a01b0319166001600160a01b0392909216919091179055565b6117698383836118eb565b610a2a576001600160a01b03831661179757604051637e27328960e01b8152600481018290526024016105a6565b60405163177e802f60e01b81526001600160a01b0383166004820152602481018290526044016105a6565b6117cc8282610b20565b6109435760405163e2517d3f60e01b81526001600160a01b0382166004820152602481018390526044016105a6565b6118058383611951565b610a2a33600085858561144a565b60008072184f03e93ff9f4daa797ed6e38ed64bf6a1f0160401b83106118525772184f03e93ff9f4daa797ed6e38ed64bf6a1f0160401b830492506040015b6d04ee2d6d415b85acef8100000000831061187e576d04ee2d6d415b85acef8100000000830492506020015b662386f26fc10000831061189c57662386f26fc10000830492506010015b6305f5e10083106118b4576305f5e100830492506008015b61271083106118c857612710830492506004015b606483106118da576064830492506002015b600a831061056f5760010192915050565b60006001600160a01b038316158015906119495750826001600160a01b0316846001600160a01b0316148061192557506119258484610f2a565b8061194957506000828152600460205260409020546001600160a01b038481169116145b949350505050565b6001600160a01b03821661197b57604051633250574960e11b8152600060048201526024016105a6565b60006119898383600061110e565b90506001600160a01b03811615610a2a576040516339e3563760e11b8152600060048201526024016105a6565b6001600160e01b03198116811461087a57600080fd5b6000602082840312156119de57600080fd5b8135610dbf816119b6565b6000602082840312156119fb57600080fd5b5035919050565b60005b83811015611a1d578181015183820152602001611a05565b50506000910152565b60008151808452611a3e816020860160208601611a02565b601f01601f19169290920160200192915050565b602081526000610dbf6020830184611a26565b80356001600160a01b0381168114611a7c57600080fd5b919050565b60008060408385031215611a9457600080fd5b611a9d83611a65565b946020939093013593505050565b600080600060608486031215611ac057600080fd5b611ac984611a65565b9250611ad760208501611a65565b929592945050506040919091013590565b60008060408385031215611afb57600080fd5b82359150611b0b60208401611a65565b90509250929050565b634e487b7160e01b600052604160045260246000fd5b60008067ffffffffffffffff841115611b4557611b45611b14565b50604051601f19601f85018116603f0116810181811067ffffffffffffffff82111715611b7457611b74611b14565b604052838152905080828401851015611b8c57600080fd5b83836020830137600060208583010152509392505050565b600082601f830112611bb557600080fd5b610dbf83833560208501611b2a565b600080600060608486031215611bd957600080fd5b611be284611a65565b9250602084013567ffffffffffffffff811115611bfe57600080fd5b611c0a86828701611ba4565b925050604084013567ffffffffffffffff811115611c2757600080fd5b611c3386828701611ba4565b9150509250925092565b600060208284031215611c4f57600080fd5b610dbf82611a65565b60008060408385031215611c6b57600080fd5b611c7483611a65565b915060208301358015158114611c8957600080fd5b809150509250929050565b604081526000611ca76040830185611a26565b8281036020840152611cb98185611a26565b95945050505050565b60008060008060808587031215611cd857600080fd5b611ce185611a65565b9350611cef60208601611a65565b925060408501359150606085013567ffffffffffffffff811115611d1257600080fd5b8501601f81018713611d2357600080fd5b611d3287823560208401611b2a565b91505092959194509250565b60008060408385031215611d5157600080fd5b611d5a83611a65565b9150611b0b60208401611a65565b602080825260149082015273151bdad95b88191bd95cc81b9bdd08195e1a5cdd60621b604082015260600190565b6020808252600e908201526d105b1c9958591e481cda59db995960921b604082015260600190565b600181811c90821680611dd257607f821691505b602082108103611df257634e487b7160e01b600052602260045260246000fd5b50919050565b600060018201611e1857634e487b7160e01b600052601160045260246000fd5b5060010190565b601f821115610a2a57806000526020600020601f840160051c81016020851015611e465750805b601f840160051c820191505b8181101561156e5760008155600101611e52565b815167ffffffffffffffff811115611e8057611e80611b14565b611e9481611e8e8454611dbe565b84611e1f565b6020601f821160018114611ec85760008315611eb05750848201515b600019600385901b1c1916600184901b17845561156e565b600084815260208120601f198516915b82811015611ef85787850151825560209485019460019092019101611ed8565b5084821015611f165786840151600019600387901b60f8161c191681555b50505050600190811b01905550565b60008351611f37818460208801611a02565b835190830190611f4b818360208801611a02565b01949350505050565b6001600160a01b0385811682528416602082015260408101839052608060608201819052600090611f8790830184611a26565b9695505050505050565b600060208284031215611fa357600080fd5b8151610dbf816119b656fea2646970667358221220bc882f6e932ec48ca0b0bf416809c23971f334e7d5979498b21b4816d8b8068a64736f6c634300081b0033",
  "linkReferences": {},
  "deployedLinkReferences": {}
}