{
  "_format": "hh-sol-artifact-1",
  "contractName": "PropertyNFT",
  "sourceName": "contracts/PropertyNFT.sol",
  "abi": [
    {
      "inputs": [
        {
          "internalType": "address",
          "name": "initialOwner",
          "type": "address"
        }
      ],
      "stateMutability": "nonpayable",
      "type": "constructor"
    },
    {
      "inputs": [
        {
          "internalType": "address",
          "name": "sender",
          "type": "address"
        },
        {
          "internalType": "uint256",
          "name": "tokenId",
          "type": "uint256"
        },
        {
          "internalType": "address",
          "name": "owner",
          "type": "address"
        }
      ],
      "name": "ERC721IncorrectOwner",
      "type": "error"
    },
    {
      "inputs": [
        {
          "internalType": "address",
          "name": "operator",
          "type": "address"
        },
        {
          "internalType": "uint256",
          "name": "tokenId",
          "type": "uint256"
        }
      ],
      "name": "ERC721InsufficientApproval",
      "type": "error"
    },
    {
      "inputs": [
        {
          "internalType": "address",
          "name": "approver",
          "type": "address"
        }
      ],
      "name": "ERC721InvalidApprover",
      "type": "error"
    },
    {
      "inputs": [
        {
          "internalType": "address",
          "name": "operator",
          "type": "address"
        }
      ],
      "name": "ERC721InvalidOperator",
      "type": "error"
    },
    {
      "inputs": [
        {
          "internalType": "address",
          "name": "owner",
          "type": "address"
        }
      ],
      "name": "ERC721InvalidOwner",
      "type": "error"
    },
    {
      "inputs": [
        {
          "internalType": "address",
          "name": "receiver",
          "type": "address"
        }
      ],
      "name": "ERC721InvalidReceiver",
      "type": "error"
    },
    {
      "inputs": [
        {
          "internalType": "address",
          "name": "sender",
          "type": "address"
        }
      ],
      "name": "ERC721InvalidSender",
      "type": "error"
    },
    {
      "inputs": [
        {
          "internalType": "uint256",
          "name": "tokenId",
          "type": "uint256"
        }
      ],
      "name": "ERC721NonexistentToken",
      "type": "error"
    },
    {
      "inputs": [
        {
          "internalType": "address",
          "name": "owner",
          "type": "address"
        }
      ],
      "name": "OwnableInvalidOwner",
      "type": "error"
    },
    {
      "inputs": [
        {
          "internalType": "address",
          "name": "account",
          "type": "address"
        }
      ],
      "name": "OwnableUnauthorizedAccount",
      "type": "error"
    },
    {
      "anonymous": false,
      "inputs": [
        {
          "indexed": true,
          "internalType": "address",
          "name": "owner",
          "type": "address"
        },
        {
          "indexed": true,
          "internalType": "address",
          "name": "approved",
          "type": "address"
        },
        {
          "indexed": true,
          "internalType": "uint256",
          "name": "tokenId",
          "type": "uint256"
        }
      ],
      "name": "Approval",
      "type": "event"
    },
    {
      "anonymous": false,
      "inputs": [
        {
          "indexed": true,
          "internalType": "address",
          "name": "owner",
          "type": "address"
        },
        {
          "indexed": true,
          "internalType": "address",
          "name": "operator",
          "type": "address"
        },
        {
          "indexed": false,
          "internalType": "bool",
          "name": "approved",
          "type": "bool"
        }
      ],
      "name": "ApprovalForAll",
      "type": "event"
    },
    {
      "anonymous": false,
      "inputs": [
        {
          "indexed": true,
          "internalType": "address",
          "name": "previousOwner",
          "type": "address"
        },
        {
          "indexed": true,
          "internalType": "address",
          "name": "newOwner",
          "type": "address"
        }
      ],
      "name": "OwnershipTransferred",
      "type": "event"
    },
    {
      "anonymous": false,
      "inputs": [
        {
          "indexed": true,
          "internalType": "address",
          "name": "from",
          "type": "address"
        },
        {
          "indexed": true,
          "internalType": "address",
          "name": "to",
          "type": "address"
        },
        {
          "indexed": true,
          "internalType": "uint256",
          "name": "tokenId",
          "type": "uint256"
        }
      ],
      "name": "Transfer",
      "type": "event"
    },
    {
      "inputs": [
        {
          "internalType": "address",
          "name": "to",
          "type": "address"
        },
        {
          "internalType": "uint256",
          "name": "tokenId",
          "type": "uint256"
        }
      ],
      "name": "approve",
      "outputs": [],
      "stateMutability": "nonpayable",
      "type": "function"
    },
    {
      "inputs": [
        {
          "internalType": "address",
          "name": "owner",
          "type": "address"
        }
      ],
      "name": "balanceOf",
      "outputs": [
        {
          "internalType": "uint256",
          "name": "",
          "type": "uint256"
        }
      ],
      "stateMutability": "view",
      "type": "function"
    },
    {
      "inputs": [
        {
          "internalType": "uint256",
          "name": "tokenId",
          "type": "uint256"
        }
      ],
      "name": "dbURI",
      "outputs": [
        {
          "internalType": "string",
          "name": "",
          "type": "string"
        }
      ],
      "stateMutability": "view",
      "type": "function"
    },
    {
      "inputs": [
        {
          "internalType": "uint256",
          "name": "tokenId",
          "type": "uint256"
        }
      ],
      "name": "getApproved",
      "outputs": [
        {
          "internalType": "address",
          "name": "",
          "type": "address"
        }
      ],
      "stateMutability": "view",
      "type": "function"
    },
    {
      "inputs": [
        {
          "internalType": "uint256",
          "name": "tokenId",
          "type": "uint256"
        }
      ],
      "name": "getProperty",
      "outputs": [
        {
          "internalType": "address",
          "name": "owner",
          "type": "address"
        },
        {
          "internalType": "string",
          "name": "ipfsURI",
          "type": "string"
        },
        {
          "internalType": "string",
          "name": "databaseURI",
          "type": "string"
        }
      ],
      "stateMutability": "view",
      "type": "function"
    },
    {
      "inputs": [
        {
          "internalType": "address",
          "name": "owner",
          "type": "address"
        },
        {
          "internalType": "address",
          "name": "operator",
          "type": "address"
        }
      ],
      "name": "isApprovedForAll",
      "outputs": [
        {
          "internalType": "bool",
          "name": "",
          "type": "bool"
        }
      ],
      "stateMutability": "view",
      "type": "function"
    },
    {
      "inputs": [
        {
          "internalType": "address",
          "name": "to",
          "type": "address"
        },
        {
          "internalType": "string",
          "name": "ipfsURI",
          "type": "string"
        },
        {
          "internalType": "string",
          "name": "databaseURI",
          "type": "string"
        }
      ],
      "name": "mintProperty",
      "outputs": [],
      "stateMutability": "nonpayable",
      "type": "function"
    },
    {
      "inputs": [],
      "name": "name",
      "outputs": [
        {
          "internalType": "string",
          "name": "",
          "type": "string"
        }
      ],
      "stateMutability": "view",
      "type": "function"
    },
    {
      "inputs": [],
      "name": "nextTokenId",
      "outputs": [
        {
          "internalType": "uint256",
          "name": "",
          "type": "uint256"
        }
      ],
      "stateMutability": "view",
      "type": "function"
    },
    {
      "inputs": [],
      "name": "owner",
      "outputs": [
        {
          "internalType": "address",
          "name": "",
          "type": "address"
        }
      ],
      "stateMutability": "view",
      "type": "function"
    },
    {
      "inputs": [
        {
          "internalType": "uint256",
          "name": "tokenId",
          "type": "uint256"
        }
      ],
      "name": "ownerOf",
      "outputs": [
        {
          "internalType": "address",
          "name": "",
          "type": "address"
        }
      ],
      "stateMutability": "view",
      "type": "function"
    },
    {
      "inputs": [],
      "name": "renounceOwnership",
      "outputs": [],
      "stateMutability": "nonpayable",
      "type": "function"
    },
    {
      "inputs": [
        {
          "internalType": "address",
          "name": "from",
          "type": "address"
        },
        {
          "internalType": "address",
          "name": "to",
          "type": "address"
        },
        {
          "internalType": "uint256",
          "name": "tokenId",
          "type": "uint256"
        }
      ],
      "name": "safeTransferFrom",
      "outputs": [],
      "stateMutability": "nonpayable",
      "type": "function"
    },
    {
      "inputs": [
        {
          "internalType": "address",
          "name": "from",
          "type": "address"
        },
        {
          "internalType": "address",
          "name": "to",
          "type": "address"
        },
        {
          "internalType": "uint256",
          "name": "tokenId",
          "type": "uint256"
        },
        {
          "internalType": "bytes",
          "name": "data",
          "type": "bytes"
        }
      ],
      "name": "safeTransferFrom",
      "outputs": [],
      "stateMutability": "nonpayable",
      "type": "function"
    },
    {
      "inputs": [
        {
          "internalType": "address",
          "name": "operator",
          "type": "address"
        },
        {
          "internalType": "bool",
          "name": "approved",
          "type": "bool"
        }
      ],
      "name": "setApprovalForAll",
      "outputs": [],
      "stateMutability": "nonpayable",
      "type": "function"
    },
    {
      "inputs": [
        {
          "internalType": "bytes4",
          "name": "interfaceId",
          "type": "bytes4"
        }
      ],
      "name": "supportsInterface",
      "outputs": [
        {
          "internalType": "bool",
          "name": "",
          "type": "bool"
        }
      ],
      "stateMutability": "view",
      "type": "function"
    },
    {
      "inputs": [],
      "name": "symbol",
      "outputs": [
        {
          "internalType": "string",
          "name": "",
          "type": "string"
        }
      ],
      "stateMutability": "view",
      "type": "function"
    },
    {
      "inputs": [
        {
          "internalType": "uint256",
          "name": "tokenId",
          "type": "uint256"
        }
      ],
      "name": "tokenURI",
      "outputs": [
        {
          "internalType": "string",
          "name": "",
          "type": "string"
        }
      ],
      "stateMutability": "view",
      "type": "function"
    },
    {
      "inputs": [
        {
          "internalType": "address",
          "name": "from",
          "type": "address"
        },
        {
          "internalType": "address",
          "name": "to",
          "type": "address"
        },
        {
          "internalType": "uint256",
          "name": "tokenId",
          "type": "uint256"
        }
      ],
      "name": "transferFrom",
      "outputs": [],
      "stateMutability": "nonpayable",
      "type": "function"
    },
    {
      "inputs": [
        {
          "internalType": "address",
          "name": "newOwner",
          "type": "address"
        }
      ],
      "name": "transferOwnership",
      "outputs": [],
      "stateMutability": "nonpayable",
      "type": "function"
    }
  ],
  "bytecode": "0x608060405234801561001057600080fd5b506040516116eb3803806116eb83398101604081905261002f91610124565b806040518060400160405280600d81526020016c1499585b115cdd185d19539195609a1b8152506040518060400160405280600681526020016514914b53919560d21b815250816000908161008491906101f3565b50600161009182826101f3565b5050506001600160a01b0381166100c257604051631e4fbdf760e01b81526000600482015260240160405180910390fd5b6100cb816100d2565b50506102b1565b600680546001600160a01b038381166001600160a01b0319831681179093556040519116919082907f8be0079c531659141344cd1fd0a4f28419497f9722a3daafe3b4186f6b6457e090600090a35050565b60006020828403121561013657600080fd5b81516001600160a01b038116811461014d57600080fd5b9392505050565b634e487b7160e01b600052604160045260246000fd5b600181811c9082168061017e57607f821691505b60208210810361019e57634e487b7160e01b600052602260045260246000fd5b50919050565b601f8211156101ee57806000526020600020601f840160051c810160208510156101cb5750805b601f840160051c820191505b818110156101eb57600081556001016101d7565b50505b505050565b81516001600160401b0381111561020c5761020c610154565b6102208161021a845461016a565b846101a4565b6020601f821160018114610254576000831561023c5750848201515b600019600385901b1c1916600184901b1784556101eb565b600084815260208120601f198516915b828110156102845787850151825560209485019460019092019101610264565b50848210156102a25786840151600019600387901b60f8161c191681555b50505050600190811b01905550565b61142b806102c06000396000f3fe608060405234801561001057600080fd5b506004361061012c5760003560e01c806370a08231116100ad578063a22cb46511610071578063a22cb4651461027a578063b88d4fde1461028d578063c87b56dd146102a0578063e985e9c5146102b3578063f2fde38b146102c657600080fd5b806370a082311461022f578063715018a61461025057806375794a3c146102585780638da5cb5b1461026157806395d89b411461027257600080fd5b806332665ffb116100f457806332665ffb146101c1578063379269e7146101e357806342842e0e146101f65780636352211e146102095780636e777dd81461021c57600080fd5b806301ffc9a71461013157806306fdde0314610159578063081812fc1461016e578063095ea7b31461019957806323b872dd146101ae575b600080fd5b61014461013f366004610eb6565b6102d9565b60405190151581526020015b60405180910390f35b61016161032b565b6040516101509190610f20565b61018161017c366004610f33565b6103bd565b6040516001600160a01b039091168152602001610150565b6101ac6101a7366004610f68565b6103e6565b005b6101ac6101bc366004610f92565b6103f5565b6101d46101cf366004610f33565b610485565b60405161015093929190610fcf565b6101616101f1366004610f33565b61065b565b6101ac610204366004610f92565b610700565b610181610217366004610f33565b610720565b6101ac61022a3660046110bf565b61072b565b61024261023d366004611138565b61079a565b604051908152602001610150565b6101ac6107e2565b61024260075481565b6006546001600160a01b0316610181565b6101616107f6565b6101ac610288366004611153565b610805565b6101ac61029b36600461118f565b610810565b6101616102ae366004610f33565b610828565b6101446102c136600461120b565b610845565b6101ac6102d4366004611138565b610873565b60006001600160e01b031982166380ac58cd60e01b148061030a57506001600160e01b03198216635b5e139f60e01b145b8061032557506301ffc9a760e01b6001600160e01b03198316145b92915050565b60606000805461033a9061123e565b80601f01602080910402602001604051908101604052809291908181526020018280546103669061123e565b80156103b35780601f10610388576101008083540402835291602001916103b3565b820191906000526020600020905b81548152906001019060200180831161039657829003601f168201915b5050505050905090565b60006103c8826108b1565b506000828152600460205260409020546001600160a01b0316610325565b6103f18282336108ea565b5050565b6001600160a01b03821661042457604051633250574960e11b8152600060048201526024015b60405180910390fd5b60006104318383336108f7565b9050836001600160a01b0316816001600160a01b03161461047f576040516364283d7b60e01b81526001600160a01b038086166004830152602482018490528216604482015260640161041b565b50505050565b6000606080826104aa856000908152600260205260409020546001600160a01b031690565b6001600160a01b0316036104f75760405162461bcd60e51b8152602060048201526014602482015273151bdad95b88191bd95cc81b9bdd08195e1a5cdd60621b604482015260640161041b565b61050084610720565b92506000600860008681526020019081526020016000206040518060400160405290816000820180546105329061123e565b80601f016020809104026020016040519081016040528092919081815260200182805461055e9061123e565b80156105ab5780601f10610580576101008083540402835291602001916105ab565b820191906000526020600020905b81548152906001019060200180831161058e57829003601f168201915b505050505081526020016001820180546105c49061123e565b80601f01602080910402602001604051908101604052809291908181526020018280546105f09061123e565b801561063d5780601f106106125761010080835404028352916020019161063d565b820191906000526020600020905b81548152906001019060200180831161062057829003601f168201915b50505091909252505081516020909201519597919650909350505050565b600081815260086020526040902060010180546060919061067b9061123e565b80601f01602080910402602001604051908101604052809291908181526020018280546106a79061123e565b80156106f45780601f106106c9576101008083540402835291602001916106f4565b820191906000526020600020905b8154815290600101906020018083116106d757829003601f168201915b50505050509050919050565b61071b83838360405180602001604052806000815250610810565b505050565b6000610325826108b1565b600780546000918261073c83611278565b91905055905061074c84826109f0565b604080518082018252848152602080820185905260008481526008909152919091208151819061077c90826112e6565b506020820151600182019061079190826112e6565b50505050505050565b60006001600160a01b0382166107c6576040516322718ad960e21b81526000600482015260240161041b565b506001600160a01b031660009081526003602052604090205490565b6107ea610a0a565b6107f46000610a37565b565b60606001805461033a9061123e565b6103f1338383610a89565b61081b8484846103f5565b61047f3385858585610b28565b600081815260086020526040902080546060919061067b9061123e565b6001600160a01b03918216600090815260056020908152604080832093909416825291909152205460ff1690565b61087b610a0a565b6001600160a01b0381166108a557604051631e4fbdf760e01b81526000600482015260240161041b565b6108ae81610a37565b50565b6000818152600260205260408120546001600160a01b03168061032557604051637e27328960e01b81526004810184905260240161041b565b61071b8383836001610c53565b6000828152600260205260408120546001600160a01b039081169083161561092457610924818486610d59565b6001600160a01b0381161561096257610941600085600080610c53565b6001600160a01b038116600090815260036020526040902080546000190190555b6001600160a01b03851615610991576001600160a01b0385166000908152600360205260409020805460010190555b60008481526002602052604080822080546001600160a01b0319166001600160a01b0389811691821790925591518793918516917fddf252ad1be2c89b69c2b068fc378daa952ba7f163c4a11628f55a4df523b3ef91a4949350505050565b6103f1828260405180602001604052806000815250610dbd565b6006546001600160a01b031633146107f45760405163118cdaa760e01b815233600482015260240161041b565b600680546001600160a01b038381166001600160a01b0319831681179093556040519116919082907f8be0079c531659141344cd1fd0a4f28419497f9722a3daafe3b4186f6b6457e090600090a35050565b6001600160a01b038216610abb57604051630b61174360e31b81526001600160a01b038316600482015260240161041b565b6001600160a01b03838116600081815260056020908152604080832094871680845294825291829020805460ff191686151590811790915591519182527f17307eab39ab6107e8899845ad3d59bd9653f200f220920489ca2b5937696c31910160405180910390a3505050565b6001600160a01b0383163b15610c4c57604051630a85bd0160e11b81526001600160a01b0384169063150b7a0290610b6a9088908890879087906004016113a5565b6020604051808303816000875af1925050508015610ba5575060408051601f3d908101601f19168201909252610ba2918101906113d8565b60015b610c0e573d808015610bd3576040519150601f19603f3d011682016040523d82523d6000602084013e610bd8565b606091505b508051600003610c0657604051633250574960e11b81526001600160a01b038516600482015260240161041b565b805160208201fd5b6001600160e01b03198116630a85bd0160e11b14610c4a57604051633250574960e11b81526001600160a01b038516600482015260240161041b565b505b5050505050565b8080610c6757506001600160a01b03821615155b15610d29576000610c77846108b1565b90506001600160a01b03831615801590610ca35750826001600160a01b0316816001600160a01b031614155b8015610cb65750610cb48184610845565b155b15610cdf5760405163a9fbf51f60e01b81526001600160a01b038416600482015260240161041b565b8115610d275783856001600160a01b0316826001600160a01b03167f8c5be1e5ebec7d5bd14f71427d1e84f3dd0314c0f7b2291e5b200ac8c7c3b92560405160405180910390a45b505b5050600090815260046020526040902080546001600160a01b0319166001600160a01b0392909216919091179055565b610d64838383610dd5565b61071b576001600160a01b038316610d9257604051637e27328960e01b81526004810182905260240161041b565b60405163177e802f60e01b81526001600160a01b03831660048201526024810182905260440161041b565b610dc78383610e3b565b61071b336000858585610b28565b60006001600160a01b03831615801590610e335750826001600160a01b0316846001600160a01b03161480610e0f5750610e0f8484610845565b80610e3357506000828152600460205260409020546001600160a01b038481169116145b949350505050565b6001600160a01b038216610e6557604051633250574960e11b81526000600482015260240161041b565b6000610e73838360006108f7565b90506001600160a01b0381161561071b576040516339e3563760e11b81526000600482015260240161041b565b6001600160e01b0319811681146108ae57600080fd5b600060208284031215610ec857600080fd5b8135610ed381610ea0565b9392505050565b6000815180845260005b81811015610f0057602081850181015186830182015201610ee4565b506000602082860101526020601f19601f83011685010191505092915050565b602081526000610ed36020830184610eda565b600060208284031215610f4557600080fd5b5035919050565b80356001600160a01b0381168114610f6357600080fd5b919050565b60008060408385031215610f7b57600080fd5b610f8483610f4c565b946020939093013593505050565b600080600060608486031215610fa757600080fd5b610fb084610f4c565b9250610fbe60208501610f4c565b929592945050506040919091013590565b6001600160a01b0384168152606060208201819052600090610ff390830185610eda565b82810360408401526110058185610eda565b9695505050505050565b634e487b7160e01b600052604160045260246000fd5b60008067ffffffffffffffff8411156110405761104061100f565b50604051601f19601f85018116603f0116810181811067ffffffffffffffff8211171561106f5761106f61100f565b60405283815290508082840185101561108757600080fd5b83836020830137600060208583010152509392505050565b600082601f8301126110b057600080fd5b610ed383833560208501611025565b6000806000606084860312156110d457600080fd5b6110dd84610f4c565b9250602084013567ffffffffffffffff8111156110f957600080fd5b6111058682870161109f565b925050604084013567ffffffffffffffff81111561112257600080fd5b61112e8682870161109f565b9150509250925092565b60006020828403121561114a57600080fd5b610ed382610f4c565b6000806040838503121561116657600080fd5b61116f83610f4c565b91506020830135801515811461118457600080fd5b809150509250929050565b600080600080608085870312156111a557600080fd5b6111ae85610f4c565b93506111bc60208601610f4c565b925060408501359150606085013567ffffffffffffffff8111156111df57600080fd5b8501601f810187136111f057600080fd5b6111ff87823560208401611025565b91505092959194509250565b6000806040838503121561121e57600080fd5b61122783610f4c565b915061123560208401610f4c565b90509250929050565b600181811c9082168061125257607f821691505b60208210810361127257634e487b7160e01b600052602260045260246000fd5b50919050565b60006001820161129857634e487b7160e01b600052601160045260246000fd5b5060010190565b601f82111561071b57806000526020600020601f840160051c810160208510156112c65750805b601f840160051c820191505b81811015610c4c57600081556001016112d2565b815167ffffffffffffffff8111156113005761130061100f565b6113148161130e845461123e565b8461129f565b6020601f82116001811461134857600083156113305750848201515b600019600385901b1c1916600184901b178455610c4c565b600084815260208120601f198516915b828110156113785787850151825560209485019460019092019101611358565b50848210156113965786840151600019600387901b60f8161c191681555b50505050600190811b01905550565b6001600160a01b038581168252841660208201526040810183905260806060820181905260009061100590830184610eda565b6000602082840312156113ea57600080fd5b8151610ed381610ea056fea2646970667358221220d68cbeb5c728e60238a48600470bb863a09af9fe64682cec7e17c6533213126264736f6c634300081b0033",
  "linkReferences": {},
  "deployedLinkReferences": {}
}