{
  "_format": "hh-sol-artifact-1",
  "contractName": "PropertyNFT",
  "sourceName": "contracts/PropertyNFT.sol",
  "abi": [
    {
      "inputs": [
        {
          "internalType": "address",
          "name": "initialOwner",
          "type": "address"
        }
      ],
      "stateMutability": "nonpayable",
      "type": "constructor"
    },
    {
      "inputs": [],
      "name": "AccessControlBadConfirmation",
      "type": "error"
    },
    {
      "inputs": [
        {
          "internalType": "address",
          "name": "account",
          "type": "address"
        },
        {
          "internalType": "bytes32",
          "name": "neededRole",
          "type": "bytes32"
        }
      ],
      "name": "AccessControlUnauthorizedAccount",
      "type": "error"
    },
    {
      "inputs": [
        {
          "internalType": "address",
          "name": "sender",
          "type": "address"
        },
        {
          "internalType": "uint256",
          "name": "tokenId",
          "type": "uint256"
        },
        {
          "internalType": "address",
          "name": "owner",
          "type": "address"
        }
      ],
      "name": "ERC721IncorrectOwner",
      "type": "error"
    },
    {
      "inputs": [
        {
          "internalType": "address",
          "name": "operator",
          "type": "address"
        },
        {
          "internalType": "uint256",
          "name": "tokenId",
          "type": "uint256"
        }
      ],
      "name": "ERC721InsufficientApproval",
      "type": "error"
    },
    {
      "inputs": [
        {
          "internalType": "address",
          "name": "approver",
          "type": "address"
        }
      ],
      "name": "ERC721InvalidApprover",
      "type": "error"
    },
    {
      "inputs": [
        {
          "internalType": "address",
          "name": "operator",
          "type": "address"
        }
      ],
      "name": "ERC721InvalidOperator",
      "type": "error"
    },
    {
      "inputs": [
        {
          "internalType": "address",
          "name": "owner",
          "type": "address"
        }
      ],
      "name": "ERC721InvalidOwner",
      "type": "error"
    },
    {
      "inputs": [
        {
          "internalType": "address",
          "name": "receiver",
          "type": "address"
        }
      ],
      "name": "ERC721InvalidReceiver",
      "type": "error"
    },
    {
      "inputs": [
        {
          "internalType": "address",
          "name": "sender",
          "type": "address"
        }
      ],
      "name": "ERC721InvalidSender",
      "type": "error"
    },
    {
      "inputs": [
        {
          "internalType": "uint256",
          "name": "tokenId",
          "type": "uint256"
        }
      ],
      "name": "ERC721NonexistentToken",
      "type": "error"
    },
    {
      "inputs": [
        {
          "internalType": "address",
          "name": "owner",
          "type": "address"
        }
      ],
      "name": "OwnableInvalidOwner",
      "type": "error"
    },
    {
      "inputs": [
        {
          "internalType": "address",
          "name": "account",
          "type": "address"
        }
      ],
      "name": "OwnableUnauthorizedAccount",
      "type": "error"
    },
    {
      "anonymous": false,
      "inputs": [
        {
          "indexed": true,
          "internalType": "address",
          "name": "owner",
          "type": "address"
        },
        {
          "indexed": true,
          "internalType": "address",
          "name": "approved",
          "type": "address"
        },
        {
          "indexed": true,
          "internalType": "uint256",
          "name": "tokenId",
          "type": "uint256"
        }
      ],
      "name": "Approval",
      "type": "event"
    },
    {
      "anonymous": false,
      "inputs": [
        {
          "indexed": true,
          "internalType": "address",
          "name": "owner",
          "type": "address"
        },
        {
          "indexed": true,
          "internalType": "address",
          "name": "operator",
          "type": "address"
        },
        {
          "indexed": false,
          "internalType": "bool",
          "name": "approved",
          "type": "bool"
        }
      ],
      "name": "ApprovalForAll",
      "type": "event"
    },
    {
      "anonymous": false,
      "inputs": [
        {
          "indexed": true,
          "internalType": "address",
          "name": "previousOwner",
          "type": "address"
        },
        {
          "indexed": true,
          "internalType": "address",
          "name": "newOwner",
          "type": "address"
        }
      ],
      "name": "OwnershipTransferred",
      "type": "event"
    },
    {
      "anonymous": false,
      "inputs": [
        {
          "indexed": true,
          "internalType": "uint256",
          "name": "tokenId",
          "type": "uint256"
        },
        {
          "indexed": true,
          "internalType": "address",
          "name": "agent",
          "type": "address"
        },
        {
          "indexed": false,
          "internalType": "enum PropertyNFT.PoARights",
          "name": "right",
          "type": "uint8"
        },
        {
          "indexed": false,
          "internalType": "bool",
          "name": "allowed",
          "type": "bool"
        },
        {
          "indexed": false,
          "internalType": "uint256",
          "name": "start",
          "type": "uint256"
        },
        {
          "indexed": false,
          "internalType": "uint256",
          "name": "end",
          "type": "uint256"
        }
      ],
      "name": "PoASet",
      "type": "event"
    },
    {
      "anonymous": false,
      "inputs": [
        {
          "indexed": true,
          "internalType": "uint256",
          "name": "tokenId",
          "type": "uint256"
        },
        {
          "indexed": true,
          "internalType": "address",
          "name": "signer",
          "type": "address"
        },
        {
          "indexed": false,
          "internalType": "string",
          "name": "role",
          "type": "string"
        }
      ],
      "name": "PropertySigned",
      "type": "event"
    },
    {
      "anonymous": false,
      "inputs": [
        {
          "indexed": true,
          "internalType": "uint256",
          "name": "tokenId",
          "type": "uint256"
        },
        {
          "indexed": true,
          "internalType": "address",
          "name": "payer",
          "type": "address"
        },
        {
          "indexed": false,
          "internalType": "uint256",
          "name": "amount",
          "type": "uint256"
        },
        {
          "indexed": false,
          "internalType": "uint256",
          "name": "timestamp",
          "type": "uint256"
        }
      ],
      "name": "RentPaid",
      "type": "event"
    },
    {
      "anonymous": false,
      "inputs": [
        {
          "indexed": true,
          "internalType": "bytes32",
          "name": "role",
          "type": "bytes32"
        },
        {
          "indexed": true,
          "internalType": "bytes32",
          "name": "previousAdminRole",
          "type": "bytes32"
        },
        {
          "indexed": true,
          "internalType": "bytes32",
          "name": "newAdminRole",
          "type": "bytes32"
        }
      ],
      "name": "RoleAdminChanged",
      "type": "event"
    },
    {
      "anonymous": false,
      "inputs": [
        {
          "indexed": true,
          "internalType": "bytes32",
          "name": "role",
          "type": "bytes32"
        },
        {
          "indexed": true,
          "internalType": "address",
          "name": "account",
          "type": "address"
        },
        {
          "indexed": true,
          "internalType": "address",
          "name": "sender",
          "type": "address"
        }
      ],
      "name": "RoleGranted",
      "type": "event"
    },
    {
      "anonymous": false,
      "inputs": [
        {
          "indexed": true,
          "internalType": "bytes32",
          "name": "role",
          "type": "bytes32"
        },
        {
          "indexed": true,
          "internalType": "address",
          "name": "account",
          "type": "address"
        },
        {
          "indexed": true,
          "internalType": "address",
          "name": "sender",
          "type": "address"
        }
      ],
      "name": "RoleRevoked",
      "type": "event"
    },
    {
      "anonymous": false,
      "inputs": [
        {
          "indexed": true,
          "internalType": "address",
          "name": "from",
          "type": "address"
        },
        {
          "indexed": true,
          "internalType": "address",
          "name": "to",
          "type": "address"
        },
        {
          "indexed": true,
          "internalType": "uint256",
          "name": "tokenId",
          "type": "uint256"
        }
      ],
      "name": "Transfer",
      "type": "event"
    },
    {
      "inputs": [],
      "name": "DEFAULT_ADMIN_ROLE",
      "outputs": [
        {
          "internalType": "bytes32",
          "name": "",
          "type": "bytes32"
        }
      ],
      "stateMutability": "view",
      "type": "function"
    },
    {
      "inputs": [],
      "name": "IVSL_ROLE",
      "outputs": [
        {
          "internalType": "bytes32",
          "name": "",
          "type": "bytes32"
        }
      ],
      "stateMutability": "view",
      "type": "function"
    },
    {
      "inputs": [],
      "name": "NOTARY_ROLE",
      "outputs": [
        {
          "internalType": "bytes32",
          "name": "",
          "type": "bytes32"
        }
      ],
      "stateMutability": "view",
      "type": "function"
    },
    {
      "inputs": [],
      "name": "SURVEYOR_ROLE",
      "outputs": [
        {
          "internalType": "bytes32",
          "name": "",
          "type": "bytes32"
        }
      ],
      "stateMutability": "view",
      "type": "function"
    },
    {
      "inputs": [
        {
          "internalType": "address",
          "name": "to",
          "type": "address"
        },
        {
          "internalType": "uint256",
          "name": "tokenId",
          "type": "uint256"
        }
      ],
      "name": "approve",
      "outputs": [],
      "stateMutability": "nonpayable",
      "type": "function"
    },
    {
      "inputs": [
        {
          "internalType": "address",
          "name": "owner",
          "type": "address"
        }
      ],
      "name": "balanceOf",
      "outputs": [
        {
          "internalType": "uint256",
          "name": "",
          "type": "uint256"
        }
      ],
      "stateMutability": "view",
      "type": "function"
    },
    {
      "inputs": [
        {
          "internalType": "uint256",
          "name": "tokenId",
          "type": "uint256"
        }
      ],
      "name": "getApproved",
      "outputs": [
        {
          "internalType": "address",
          "name": "",
          "type": "address"
        }
      ],
      "stateMutability": "view",
      "type": "function"
    },
    {
      "inputs": [
        {
          "internalType": "uint256",
          "name": "tokenId",
          "type": "uint256"
        }
      ],
      "name": "getMetadata",
      "outputs": [
        {
          "internalType": "string",
          "name": "",
          "type": "string"
        },
        {
          "internalType": "string",
          "name": "",
          "type": "string"
        }
      ],
      "stateMutability": "view",
      "type": "function"
    },
    {
      "inputs": [
        {
          "internalType": "bytes32",
          "name": "role",
          "type": "bytes32"
        }
      ],
      "name": "getRoleAdmin",
      "outputs": [
        {
          "internalType": "bytes32",
          "name": "",
          "type": "bytes32"
        }
      ],
      "stateMutability": "view",
      "type": "function"
    },
    {
      "inputs": [
        {
          "internalType": "address",
          "name": "account",
          "type": "address"
        }
      ],
      "name": "getRolesOf",
      "outputs": [
        {
          "internalType": "bool",
          "name": "",
          "type": "bool"
        },
        {
          "internalType": "bool",
          "name": "",
          "type": "bool"
        },
        {
          "internalType": "bool",
          "name": "",
          "type": "bool"
        }
      ],
      "stateMutability": "view",
      "type": "function"
    },
    {
      "inputs": [
        {
          "internalType": "uint256",
          "name": "tokenId",
          "type": "uint256"
        }
      ],
      "name": "getSignatures",
      "outputs": [
        {
          "internalType": "address",
          "name": "",
          "type": "address"
        },
        {
          "internalType": "address",
          "name": "",
          "type": "address"
        },
        {
          "internalType": "address",
          "name": "",
          "type": "address"
        }
      ],
      "stateMutability": "view",
      "type": "function"
    },
    {
      "inputs": [
        {
          "internalType": "bytes32",
          "name": "role",
          "type": "bytes32"
        },
        {
          "internalType": "address",
          "name": "account",
          "type": "address"
        }
      ],
      "name": "grantRole",
      "outputs": [],
      "stateMutability": "nonpayable",
      "type": "function"
    },
    {
      "inputs": [
        {
          "internalType": "bytes32",
          "name": "role",
          "type": "bytes32"
        },
        {
          "internalType": "address",
          "name": "account",
          "type": "address"
        }
      ],
      "name": "hasRole",
      "outputs": [
        {
          "internalType": "bool",
          "name": "",
          "type": "bool"
        }
      ],
      "stateMutability": "view",
      "type": "function"
    },
    {
      "inputs": [
        {
          "internalType": "address",
          "name": "owner",
          "type": "address"
        },
        {
          "internalType": "address",
          "name": "operator",
          "type": "address"
        }
      ],
      "name": "isApprovedForAll",
      "outputs": [
        {
          "internalType": "bool",
          "name": "",
          "type": "bool"
        }
      ],
      "stateMutability": "view",
      "type": "function"
    },
    {
      "inputs": [
        {
          "internalType": "uint256",
          "name": "tokenId",
          "type": "uint256"
        }
      ],
      "name": "isFullySigned",
      "outputs": [
        {
          "internalType": "bool",
          "name": "",
          "type": "bool"
        }
      ],
      "stateMutability": "view",
      "type": "function"
    },
    {
      "inputs": [
        {
          "internalType": "uint256",
          "name": "tokenId",
          "type": "uint256"
        }
      ],
      "name": "isRentActive",
      "outputs": [
        {
          "internalType": "bool",
          "name": "",
          "type": "bool"
        }
      ],
      "stateMutability": "view",
      "type": "function"
    },
    {
      "inputs": [
        {
          "internalType": "uint256",
          "name": "tokenId",
          "type": "uint256"
        }
      ],
      "name": "isSignedByIVSL",
      "outputs": [
        {
          "internalType": "bool",
          "name": "",
          "type": "bool"
        }
      ],
      "stateMutability": "view",
      "type": "function"
    },
    {
      "inputs": [
        {
          "internalType": "uint256",
          "name": "tokenId",
          "type": "uint256"
        }
      ],
      "name": "isSignedByNotary",
      "outputs": [
        {
          "internalType": "bool",
          "name": "",
          "type": "bool"
        }
      ],
      "stateMutability": "view",
      "type": "function"
    },
    {
      "inputs": [
        {
          "internalType": "uint256",
          "name": "tokenId",
          "type": "uint256"
        }
      ],
      "name": "isSignedBySurveyor",
      "outputs": [
        {
          "internalType": "bool",
          "name": "",
          "type": "bool"
        }
      ],
      "stateMutability": "view",
      "type": "function"
    },
    {
      "inputs": [
        {
          "internalType": "address",
          "name": "to",
          "type": "address"
        },
        {
          "internalType": "string",
          "name": "ipfsHash",
          "type": "string"
        },
        {
          "internalType": "string",
          "name": "dbHash",
          "type": "string"
        }
      ],
      "name": "mintProperty",
      "outputs": [],
      "stateMutability": "nonpayable",
      "type": "function"
    },
    {
      "inputs": [],
      "name": "name",
      "outputs": [
        {
          "internalType": "string",
          "name": "",
          "type": "string"
        }
      ],
      "stateMutability": "view",
      "type": "function"
    },
    {
      "inputs": [],
      "name": "nextTokenId",
      "outputs": [
        {
          "internalType": "uint256",
          "name": "",
          "type": "uint256"
        }
      ],
      "stateMutability": "view",
      "type": "function"
    },
    {
      "inputs": [],
      "name": "owner",
      "outputs": [
        {
          "internalType": "address",
          "name": "",
          "type": "address"
        }
      ],
      "stateMutability": "view",
      "type": "function"
    },
    {
      "inputs": [
        {
          "internalType": "uint256",
          "name": "tokenId",
          "type": "uint256"
        }
      ],
      "name": "ownerOf",
      "outputs": [
        {
          "internalType": "address",
          "name": "",
          "type": "address"
        }
      ],
      "stateMutability": "view",
      "type": "function"
    },
    {
      "inputs": [
        {
          "internalType": "uint256",
          "name": "tokenId",
          "type": "uint256"
        }
      ],
      "name": "payRent",
      "outputs": [],
      "stateMutability": "payable",
      "type": "function"
    },
    {
      "inputs": [
        {
          "internalType": "uint256",
          "name": "",
          "type": "uint256"
        },
        {
          "internalType": "address",
          "name": "",
          "type": "address"
        },
        {
          "internalType": "enum PropertyNFT.PoARights",
          "name": "",
          "type": "uint8"
        }
      ],
      "name": "poa",
      "outputs": [
        {
          "internalType": "bool",
          "name": "allowed",
          "type": "bool"
        },
        {
          "internalType": "uint256",
          "name": "start",
          "type": "uint256"
        },
        {
          "internalType": "uint256",
          "name": "end",
          "type": "uint256"
        }
      ],
      "stateMutability": "view",
      "type": "function"
    },
    {
      "inputs": [],
      "name": "renounceOwnership",
      "outputs": [],
      "stateMutability": "nonpayable",
      "type": "function"
    },
    {
      "inputs": [
        {
          "internalType": "bytes32",
          "name": "role",
          "type": "bytes32"
        },
        {
          "internalType": "address",
          "name": "callerConfirmation",
          "type": "address"
        }
      ],
      "name": "renounceRole",
      "outputs": [],
      "stateMutability": "nonpayable",
      "type": "function"
    },
    {
      "inputs": [
        {
          "internalType": "uint256",
          "name": "",
          "type": "uint256"
        }
      ],
      "name": "rentInfo",
      "outputs": [
        {
          "internalType": "uint256",
          "name": "amount",
          "type": "uint256"
        },
        {
          "internalType": "uint256",
          "name": "period",
          "type": "uint256"
        },
        {
          "internalType": "uint256",
          "name": "lastPaid",
          "type": "uint256"
        },
        {
          "internalType": "address",
          "name": "receiver",
          "type": "address"
        }
      ],
      "stateMutability": "view",
      "type": "function"
    },
    {
      "inputs": [
        {
          "internalType": "bytes32",
          "name": "role",
          "type": "bytes32"
        },
        {
          "internalType": "address",
          "name": "account",
          "type": "address"
        }
      ],
      "name": "revokeRole",
      "outputs": [],
      "stateMutability": "nonpayable",
      "type": "function"
    },
    {
      "inputs": [
        {
          "internalType": "address",
          "name": "from",
          "type": "address"
        },
        {
          "internalType": "address",
          "name": "to",
          "type": "address"
        },
        {
          "internalType": "uint256",
          "name": "tokenId",
          "type": "uint256"
        }
      ],
      "name": "safeTransferFrom",
      "outputs": [],
      "stateMutability": "nonpayable",
      "type": "function"
    },
    {
      "inputs": [
        {
          "internalType": "address",
          "name": "from",
          "type": "address"
        },
        {
          "internalType": "address",
          "name": "to",
          "type": "address"
        },
        {
          "internalType": "uint256",
          "name": "tokenId",
          "type": "uint256"
        },
        {
          "internalType": "bytes",
          "name": "data",
          "type": "bytes"
        }
      ],
      "name": "safeTransferFrom",
      "outputs": [],
      "stateMutability": "nonpayable",
      "type": "function"
    },
    {
      "inputs": [
        {
          "internalType": "address",
          "name": "operator",
          "type": "address"
        },
        {
          "internalType": "bool",
          "name": "approved",
          "type": "bool"
        }
      ],
      "name": "setApprovalForAll",
      "outputs": [],
      "stateMutability": "nonpayable",
      "type": "function"
    },
    {
      "inputs": [
        {
          "internalType": "uint256",
          "name": "tokenId",
          "type": "uint256"
        },
        {
          "internalType": "address",
          "name": "agent",
          "type": "address"
        },
        {
          "internalType": "enum PropertyNFT.PoARights",
          "name": "right",
          "type": "uint8"
        },
        {
          "internalType": "bool",
          "name": "allowed",
          "type": "bool"
        },
        {
          "internalType": "uint256",
          "name": "start",
          "type": "uint256"
        },
        {
          "internalType": "uint256",
          "name": "end",
          "type": "uint256"
        }
      ],
      "name": "setPoA",
      "outputs": [],
      "stateMutability": "nonpayable",
      "type": "function"
    },
    {
      "inputs": [
        {
          "internalType": "uint256",
          "name": "tokenId",
          "type": "uint256"
        },
        {
          "internalType": "uint256",
          "name": "amount",
          "type": "uint256"
        },
        {
          "internalType": "uint256",
          "name": "period",
          "type": "uint256"
        },
        {
          "internalType": "address",
          "name": "receiver",
          "type": "address"
        }
      ],
      "name": "setRent",
      "outputs": [],
      "stateMutability": "nonpayable",
      "type": "function"
    },
    {
      "inputs": [
        {
          "internalType": "uint256",
          "name": "tokenId",
          "type": "uint256"
        }
      ],
      "name": "signProperty",
      "outputs": [],
      "stateMutability": "nonpayable",
      "type": "function"
    },
    {
      "inputs": [
        {
          "internalType": "bytes4",
          "name": "interfaceId",
          "type": "bytes4"
        }
      ],
      "name": "supportsInterface",
      "outputs": [
        {
          "internalType": "bool",
          "name": "",
          "type": "bool"
        }
      ],
      "stateMutability": "view",
      "type": "function"
    },
    {
      "inputs": [],
      "name": "symbol",
      "outputs": [
        {
          "internalType": "string",
          "name": "",
          "type": "string"
        }
      ],
      "stateMutability": "view",
      "type": "function"
    },
    {
      "inputs": [
        {
          "internalType": "uint256",
          "name": "tokenId",
          "type": "uint256"
        }
      ],
      "name": "tokenURI",
      "outputs": [
        {
          "internalType": "string",
          "name": "",
          "type": "string"
        }
      ],
      "stateMutability": "view",
      "type": "function"
    },
    {
      "inputs": [
        {
          "internalType": "address",
          "name": "from",
          "type": "address"
        },
        {
          "internalType": "address",
          "name": "to",
          "type": "address"
        },
        {
          "internalType": "uint256",
          "name": "tokenId",
          "type": "uint256"
        }
      ],
      "name": "transferFrom",
      "outputs": [],
      "stateMutability": "nonpayable",
      "type": "function"
    },
    {
      "inputs": [
        {
          "internalType": "address",
          "name": "newOwner",
          "type": "address"
        }
      ],
      "name": "transferOwnership",
      "outputs": [],
      "stateMutability": "nonpayable",
      "type": "function"
    }
  ],
  "bytecode": "0x608060405234801561001057600080fd5b50604051612da5380380612da583398101604081905261002f916101e0565b806040518060400160405280600d81526020016c1499585b115cdd185d19539195609a1b8152506040518060400160405280600681526020016514914b53919560d21b815250816000908161008491906102af565b50600161009182826102af565b5050506001600160a01b0381166100c257604051631e4fbdf760e01b81526000600482015260240160405180910390fd5b6100cb816100de565b506100d7600082610130565b505061036d565b600680546001600160a01b038381166001600160a01b0319831681179093556040519116919082907f8be0079c531659141344cd1fd0a4f28419497f9722a3daafe3b4186f6b6457e090600090a35050565b60008281526007602090815260408083206001600160a01b038516845290915281205460ff166101d65760008381526007602090815260408083206001600160a01b03861684529091529020805460ff1916600117905561018e3390565b6001600160a01b0316826001600160a01b0316847f2f8788117e7eff1d82e926ec794901d17c78024a50270940304540a733656f0d60405160405180910390a45060016101da565b5060005b92915050565b6000602082840312156101f257600080fd5b81516001600160a01b038116811461020957600080fd5b9392505050565b634e487b7160e01b600052604160045260246000fd5b600181811c9082168061023a57607f821691505b60208210810361025a57634e487b7160e01b600052602260045260246000fd5b50919050565b601f8211156102aa57806000526020600020601f840160051c810160208510156102875750805b601f840160051c820191505b818110156102a75760008155600101610293565b50505b505050565b81516001600160401b038111156102c8576102c8610210565b6102dc816102d68454610226565b84610260565b6020601f82116001811461031057600083156102f85750848201515b600019600385901b1c1916600184901b1784556102a7565b600084815260208120601f198516915b828110156103405787850151825560209485019460019092019101610320565b508482101561035e5786840151600019600387901b60f8161c191681555b50505050600190811b01905550565b612a298061037c6000396000f3fe6080604052600436106102465760003560e01c806395d89b4111610139578063c87b56dd116100b6578063e4b4e9c81161007a578063e4b4e9c8146107ac578063e4ceebfc146107cc578063e985e9c5146107ec578063f2fde38b1461080c578063f4eccb8f1461082c578063f568414f1461087657600080fd5b8063c87b56dd146106cb578063cc77443e146106eb578063d547741f14610759578063d9e8843f14610779578063e317f7561461078c57600080fd5b8063b2e50f58116100fd578063b2e50f58146105af578063b88d4fde146105cf578063be47e028146105ef578063c48b0baa14610623578063c5430a9d1461065757600080fd5b806395d89b4114610517578063a217fddf1461052c578063a22cb46514610541578063a574cea414610561578063b2832b121461058f57600080fd5b806342842e0e116101c7578063715018a61161018b578063715018a61461047a57806375794a3c1461048f5780638c238b79146104a55780638da5cb5b146104d957806391d14854146104f757600080fd5b806342842e0e146103da5780636352211e146103fa578063667345261461041a5780636e777dd81461043a57806370a082311461045a57600080fd5b806323b872dd1161020e57806323b872dd1461031c578063248a9ca31461033c5780632f2ff15d1461037a57806336568abe1461039a5780633d1c2718146103ba57600080fd5b806301ffc9a71461024b5780630675ec801461028057806306fdde03146102a2578063081812fc146102c4578063095ea7b3146102fc575b600080fd5b34801561025757600080fd5b5061026b6102663660046122c4565b6108b5565b60405190151581526020015b60405180910390f35b34801561028c57600080fd5b506102a061029b3660046122e1565b6108c6565b005b3480156102ae57600080fd5b506102b7610bce565b604051610277919061234a565b3480156102d057600080fd5b506102e46102df3660046122e1565b610c60565b6040516001600160a01b039091168152602001610277565b34801561030857600080fd5b506102a0610317366004612379565b610c89565b34801561032857600080fd5b506102a06103373660046123a3565b610c98565b34801561034857600080fd5b5061036c6103573660046122e1565b60009081526007602052604090206001015490565b604051908152602001610277565b34801561038657600080fd5b506102a06103953660046123e0565b610d23565b3480156103a657600080fd5b506102a06103b53660046123e0565b610d48565b3480156103c657600080fd5b506102a06103d536600461242b565b610d80565b3480156103e657600080fd5b506102a06103f53660046123a3565b610f05565b34801561040657600080fd5b506102e46104153660046122e1565b610f20565b34801561042657600080fd5b5061026b6104353660046122e1565b610f2b565b34801561044657600080fd5b506102a061045536600461253a565b610f85565b34801561046657600080fd5b5061036c6104753660046125b3565b610ff4565b34801561048657600080fd5b506102a061103c565b34801561049b57600080fd5b5061036c60085481565b3480156104b157600080fd5b5061036c7f4f3724b2b11e1ff14982c16ee1ccbeeddf1e15256c41dccf7ecbd129a3e5d27681565b3480156104e557600080fd5b506006546001600160a01b03166102e4565b34801561050357600080fd5b5061026b6105123660046123e0565b611050565b34801561052357600080fd5b506102b761107b565b34801561053857600080fd5b5061036c600081565b34801561054d57600080fd5b506102a061055c3660046125ce565b61108a565b34801561056d57600080fd5b5061058161057c3660046122e1565b611095565b6040516102779291906125f8565b34801561059b57600080fd5b506102a06105aa36600461261d565b611219565b3480156105bb57600080fd5b5061026b6105ca3660046122e1565b6112e3565b3480156105db57600080fd5b506102a06105ea36600461265c565b611333565b3480156105fb57600080fd5b5061036c7f2876b6444ca73956040d49b0d48b2a7c03b6b34daa638a812177f0309da79c7e81565b34801561062f57600080fd5b5061036c7f014df5ee2861d7f34562399ffa112fc59b51f810d2b875c3609ba0c31ac873d081565b34801561066357600080fd5b506106a26106723660046122e1565b600b602052600090815260409020805460018201546002830154600390930154919290916001600160a01b031684565b604080519485526020850193909352918301526001600160a01b03166060820152608001610277565b3480156106d757600080fd5b506102b76106e63660046122e1565b61134b565b3480156106f757600080fd5b5061073c6107063660046126d8565b600c60209081526000938452604080852082529284528284209052825290208054600182015460029092015460ff909116919083565b604080519315158452602084019290925290820152606001610277565b34801561076557600080fd5b506102a06107743660046123e0565b6113c0565b6102a06107873660046122e1565b6113e5565b34801561079857600080fd5b5061026b6107a73660046122e1565b6115e6565b3480156107b857600080fd5b5061026b6107c73660046122e1565b611639565b3480156107d857600080fd5b5061026b6107e73660046122e1565b61168c565b3480156107f857600080fd5b5061026b610807366004612714565b611725565b34801561081857600080fd5b506102a06108273660046125b3565b611753565b34801561083857600080fd5b5061084c6108473660046122e1565b61178e565b604080516001600160a01b0394851681529284166020840152921691810191909152606001610277565b34801561088257600080fd5b506108966108913660046125b3565b61180e565b6040805193151584529115156020840152151590820152606001610277565b60006108c08261189e565b92915050565b60006108d1826118c3565b6001600160a01b0316036109005760405162461bcd60e51b81526004016108f79061273e565b60405180910390fd5b61092a7f2876b6444ca73956040d49b0d48b2a7c03b6b34daa638a812177f0309da79c7e33611050565b156109de576000818152600a60205260409020546001600160a01b0316156109645760405162461bcd60e51b81526004016108f79061276c565b6000818152600a60205260409081902080546001600160a01b03191633908117909155905182907fbbf4fe4b13ab354e887b8d523b66c461a295fabdeaacaee470958888ce85b3bc906109d39060208082526008908201526729aaa92b22aca7a960c11b604082015260600190565b60405180910390a350565b610a087f014df5ee2861d7f34562399ffa112fc59b51f810d2b875c3609ba0c31ac873d033611050565b15610ab5576000818152600a60205260409020600101546001600160a01b031615610a455760405162461bcd60e51b81526004016108f79061276c565b6000818152600a60205260409081902060010180546001600160a01b03191633908117909155905182907fbbf4fe4b13ab354e887b8d523b66c461a295fabdeaacaee470958888ce85b3bc906109d3906020808252600690820152654e4f5441525960d01b604082015260600190565b610adf7f4f3724b2b11e1ff14982c16ee1ccbeeddf1e15256c41dccf7ecbd129a3e5d27633611050565b15610b8a576000818152600a60205260409020600201546001600160a01b031615610b1c5760405162461bcd60e51b81526004016108f79061276c565b6000818152600a60205260409081902060020180546001600160a01b03191633908117909155905182907fbbf4fe4b13ab354e887b8d523b66c461a295fabdeaacaee470958888ce85b3bc906109d390602080825260049082015263125594d360e21b604082015260600190565b60405162461bcd60e51b81526020600482015260166024820152752737ba1030baba3437b934bd32b2103a379039b4b3b760511b60448201526064016108f7565b50565b606060008054610bdd90612794565b80601f0160208091040260200160405190810160405280929190818152602001828054610c0990612794565b8015610c565780601f10610c2b57610100808354040283529160200191610c56565b820191906000526020600020905b815481529060010190602001808311610c3957829003601f168201915b5050505050905090565b6000610c6b826118de565b506000828152600460205260409020546001600160a01b03166108c0565b610c94828233611916565b5050565b6001600160a01b038216610cc257604051633250574960e11b8152600060048201526024016108f7565b6000610ccf838333611923565b9050836001600160a01b0316816001600160a01b031614610d1d576040516364283d7b60e01b81526001600160a01b03808616600483015260248201849052821660448201526064016108f7565b50505050565b600082815260076020526040902060010154610d3e816119bf565b610d1d83836119c9565b6001600160a01b0381163314610d715760405163334bd91960e11b815260040160405180910390fd5b610d7b8282611a5d565b505050565b33610d8a87610f20565b6001600160a01b031614610de05760405162461bcd60e51b815260206004820152601960248201527f4f6e6c79206f776e65722063616e2061737369676e20506f410000000000000060448201526064016108f7565b818111610e205760405162461bcd60e51b815260206004820152600e60248201526d125b9d985b1a59081c195c9a5bd960921b60448201526064016108f7565b60408051606081018252841515815260208082018590528183018490526000898152600c82528381206001600160a01b038a1682529091529182209091866003811115610e6f57610e6f6127ce565b6003811115610e8057610e806127ce565b815260208082019290925260409081016000208351815460ff191690151517815591830151600183015591820151600290910155516001600160a01b0386169087907fda596b5d81b735965c664fa53e182703da93005a6956dd6840597c762ebb16d090610ef59088908890889088906127e4565b60405180910390a3505050505050565b610d7b83838360405180602001604052806000815250611333565b60006108c0826118de565b6000818152600b60209081526040808320815160808101835281548152600182015493810184905260028201549281018390526003909101546001600160a01b0316606082015291610f7c91612838565b42109392505050565b6008805460009182610f968361284b565b919050559050610fa68482611aca565b6040805180820182528481526020808201859052600084815260099091529190912081518190610fd690826128ab565b5060208201516001820190610feb90826128ab565b50505050505050565b60006001600160a01b038216611020576040516322718ad960e21b8152600060048201526024016108f7565b506001600160a01b031660009081526003602052604090205490565b611044611ae4565b61104e6000611b11565b565b60009182526007602090815260408084206001600160a01b0393909316845291905290205460ff1690565b606060018054610bdd90612794565b610c94338383611b63565b60608060006110a3846118c3565b6001600160a01b0316036110c95760405162461bcd60e51b81526004016108f79061273e565b60008381526009602052604080822081518083019092528054829082906110ef90612794565b80601f016020809104026020016040519081016040528092919081815260200182805461111b90612794565b80156111685780601f1061113d57610100808354040283529160200191611168565b820191906000526020600020905b81548152906001019060200180831161114b57829003601f168201915b5050505050815260200160018201805461118190612794565b80601f01602080910402602001604051908101604052809291908181526020018280546111ad90612794565b80156111fa5780601f106111cf576101008083540402835291602001916111fa565b820191906000526020600020905b8154815290600101906020018083116111dd57829003601f168201915b5050505050815250509050806000015181602001519250925050915091565b3361122385610f20565b6001600160a01b0316146112795760405162461bcd60e51b815260206004820152601760248201527f4f6e6c79206f776e65722063616e207365742072656e7400000000000000000060448201526064016108f7565b604080516080810182529384526020808501938452428583019081526001600160a01b03938416606087019081526000978852600b909252919095209351845591516001840155905160028301559151600390910180546001600160a01b03191691909216179055565b6000806112ef836118c3565b6001600160a01b0316036113155760405162461bcd60e51b81526004016108f79061273e565b506000908152600a60205260409020546001600160a01b0316151590565b61133e848484610c98565b610d1d3385858585611c02565b6060611356826118de565b50600061136e60408051602081019091526000815290565b9050600081511161138e57604051806020016040528060008152506113b9565b8061139884611d2d565b6040516020016113a992919061296a565b6040516020818303038152906040525b9392505050565b6000828152600760205260409020600101546113db816119bf565b610d1d8383611a5d565b6000818152600c6020908152604080832033845282528083206003808552908352928190208151606081018352815460ff1615158152600182015493810193909352600201549082015282919061143d838383611dc0565b61147a5760405162461bcd60e51b815260206004820152600e60248201526d139bdd08185d5d1a1bdc9a5e995960921b60448201526064016108f7565b6000848152600b6020526040902080546114c55760405162461bcd60e51b815260206004820152600c60248201526b14995b9d081b9bdd081cd95d60a21b60448201526064016108f7565b805434146115085760405162461bcd60e51b815260206004820152601060248201526f125b98dbdc9c9958dd08185b5bdd5b9d60821b60448201526064016108f7565b8060010154816002015461151c9190612838565b4210156115615760405162461bcd60e51b815260206004820152601360248201527214185e5b595b9d081b9bdd08191d59481e595d606a1b60448201526064016108f7565b42600282015560038101546040516001600160a01b03909116903480156108fc02916000818181858888f193505050501580156115a2573d6000803e3d6000fd5b5060408051348152426020820152339187917fe7b793c2d375aa5934e16873f97e647671990418e9fead32b65a4d41e8fb4d1d910160405180910390a35050505050565b6000806115f2836118c3565b6001600160a01b0316036116185760405162461bcd60e51b81526004016108f79061273e565b506000908152600a60205260409020600101546001600160a01b0316151590565b600080611645836118c3565b6001600160a01b03160361166b5760405162461bcd60e51b81526004016108f79061273e565b506000908152600a60205260409020600201546001600160a01b0316151590565b600080611698836118c3565b6001600160a01b0316036116be5760405162461bcd60e51b81526004016108f79061273e565b6000828152600a60205260409020546001600160a01b0316158015906116fd57506000828152600a60205260409020600101546001600160a01b031615155b80156108c05750506000908152600a60205260409020600201546001600160a01b0316151590565b6001600160a01b03918216600090815260056020908152604080832093909416825291909152205460ff1690565b61175b611ae4565b6001600160a01b03811661178557604051631e4fbdf760e01b8152600060048201526024016108f7565b610bcb81611b11565b600080808061179c856118c3565b6001600160a01b0316036117c25760405162461bcd60e51b81526004016108f79061273e565b5050506000818152600a6020908152604091829020825160608101845281546001600160a01b039081168083526001840154821694830185905260029093015416930183905293909250565b600080600061183d7f2876b6444ca73956040d49b0d48b2a7c03b6b34daa638a812177f0309da79c7e85611050565b6118677f014df5ee2861d7f34562399ffa112fc59b51f810d2b875c3609ba0c31ac873d086611050565b6118917f4f3724b2b11e1ff14982c16ee1ccbeeddf1e15256c41dccf7ecbd129a3e5d27687611050565b9250925092509193909250565b60006001600160e01b03198216637965db0b60e01b14806108c057506108c082611e0f565b6000908152600260205260409020546001600160a01b031690565b6000806118ea836118c3565b90506001600160a01b0381166108c057604051637e27328960e01b8152600481018490526024016108f7565b610d7b8383836001611e5f565b60008061192f846118c3565b90506001600160a01b038116156119ab576119498461168c565b6119ab5760405162461bcd60e51b815260206004820152602d60248201527f50726f7065727479206d7573742062652066756c6c79207369676e656420626560448201526c3337b932903a3930b739b332b960991b60648201526084016108f7565b6119b6858585611f65565b95945050505050565b610bcb8133612059565b60006119d58383611050565b611a555760008381526007602090815260408083206001600160a01b03861684529091529020805460ff19166001179055611a0d3390565b6001600160a01b0316826001600160a01b0316847f2f8788117e7eff1d82e926ec794901d17c78024a50270940304540a733656f0d60405160405180910390a45060016108c0565b5060006108c0565b6000611a698383611050565b15611a555760008381526007602090815260408083206001600160a01b0386168085529252808320805460ff1916905551339286917ff6391f5c32d9c69d2a47ea670b442974b53935d1edc7fd64eb21e047a839171b9190a45060016108c0565b610c94828260405180602001604052806000815250612092565b6006546001600160a01b0316331461104e5760405163118cdaa760e01b81523360048201526024016108f7565b600680546001600160a01b038381166001600160a01b0319831681179093556040519116919082907f8be0079c531659141344cd1fd0a4f28419497f9722a3daafe3b4186f6b6457e090600090a35050565b6001600160a01b038216611b9557604051630b61174360e31b81526001600160a01b03831660048201526024016108f7565b6001600160a01b03838116600081815260056020908152604080832094871680845294825291829020805460ff191686151590811790915591519182527f17307eab39ab6107e8899845ad3d59bd9653f200f220920489ca2b5937696c31910160405180910390a3505050565b6001600160a01b0383163b15611d2657604051630a85bd0160e11b81526001600160a01b0384169063150b7a0290611c44908890889087908790600401612999565b6020604051808303816000875af1925050508015611c7f575060408051601f3d908101601f19168201909252611c7c918101906129d6565b60015b611ce8573d808015611cad576040519150601f19603f3d011682016040523d82523d6000602084013e611cb2565b606091505b508051600003611ce057604051633250574960e11b81526001600160a01b03851660048201526024016108f7565b805160208201fd5b6001600160e01b03198116630a85bd0160e11b14611d2457604051633250574960e11b81526001600160a01b03851660048201526024016108f7565b505b5050505050565b60606000611d3a836120aa565b600101905060008167ffffffffffffffff811115611d5a57611d5a61248a565b6040519080825280601f01601f191660200182016040528015611d84576020820181803683370190505b5090508181016020015b600019016f181899199a1a9b1b9c1cb0b131b232b360811b600a86061a8153600a8504945084611d8e57509392505050565b6000611dcb84610f20565b6001600160a01b0316336001600160a01b03161480611e07575081518015611df7575081602001514210155b8015611e07575081604001514211155b949350505050565b60006001600160e01b031982166380ac58cd60e01b1480611e4057506001600160e01b03198216635b5e139f60e01b145b806108c057506301ffc9a760e01b6001600160e01b03198316146108c0565b8080611e7357506001600160a01b03821615155b15611f35576000611e83846118de565b90506001600160a01b03831615801590611eaf5750826001600160a01b0316816001600160a01b031614155b8015611ec25750611ec08184611725565b155b15611eeb5760405163a9fbf51f60e01b81526001600160a01b03841660048201526024016108f7565b8115611f335783856001600160a01b0316826001600160a01b03167f8c5be1e5ebec7d5bd14f71427d1e84f3dd0314c0f7b2291e5b200ac8c7c3b92560405160405180910390a45b505b5050600090815260046020526040902080546001600160a01b0319166001600160a01b0392909216919091179055565b600080611f71846118c3565b90506001600160a01b03831615611f8d57611f8d818486612182565b6001600160a01b03811615611fcb57611faa600085600080611e5f565b6001600160a01b038116600090815260036020526040902080546000190190555b6001600160a01b03851615611ffa576001600160a01b0385166000908152600360205260409020805460010190555b60008481526002602052604080822080546001600160a01b0319166001600160a01b0389811691821790925591518793918516917fddf252ad1be2c89b69c2b068fc378daa952ba7f163c4a11628f55a4df523b3ef91a4949350505050565b6120638282611050565b610c945760405163e2517d3f60e01b81526001600160a01b0382166004820152602481018390526044016108f7565b61209c83836121e6565b610d7b336000858585611c02565b60008072184f03e93ff9f4daa797ed6e38ed64bf6a1f0160401b83106120e95772184f03e93ff9f4daa797ed6e38ed64bf6a1f0160401b830492506040015b6d04ee2d6d415b85acef81000000008310612115576d04ee2d6d415b85acef8100000000830492506020015b662386f26fc10000831061213357662386f26fc10000830492506010015b6305f5e100831061214b576305f5e100830492506008015b612710831061215f57612710830492506004015b60648310612171576064830492506002015b600a83106108c05760010192915050565b61218d83838361224b565b610d7b576001600160a01b0383166121bb57604051637e27328960e01b8152600481018290526024016108f7565b60405163177e802f60e01b81526001600160a01b0383166004820152602481018290526044016108f7565b6001600160a01b03821661221057604051633250574960e11b8152600060048201526024016108f7565b600061221e83836000611923565b90506001600160a01b03811615610d7b576040516339e3563760e11b8152600060048201526024016108f7565b60006001600160a01b03831615801590611e075750826001600160a01b0316846001600160a01b0316148061228557506122858484611725565b80611e075750506000908152600460205260409020546001600160a01b03908116911614919050565b6001600160e01b031981168114610bcb57600080fd5b6000602082840312156122d657600080fd5b81356113b9816122ae565b6000602082840312156122f357600080fd5b5035919050565b60005b838110156123155781810151838201526020016122fd565b50506000910152565b600081518084526123368160208601602086016122fa565b601f01601f19169290920160200192915050565b6020815260006113b9602083018461231e565b80356001600160a01b038116811461237457600080fd5b919050565b6000806040838503121561238c57600080fd5b6123958361235d565b946020939093013593505050565b6000806000606084860312156123b857600080fd5b6123c18461235d565b92506123cf6020850161235d565b929592945050506040919091013590565b600080604083850312156123f357600080fd5b823591506124036020840161235d565b90509250929050565b80356004811061237457600080fd5b8035801515811461237457600080fd5b60008060008060008060c0878903121561244457600080fd5b863595506124546020880161235d565b94506124626040880161240c565b93506124706060880161241b565b9598949750929560808101359460a0909101359350915050565b634e487b7160e01b600052604160045260246000fd5b60008067ffffffffffffffff8411156124bb576124bb61248a565b50604051601f19601f85018116603f0116810181811067ffffffffffffffff821117156124ea576124ea61248a565b60405283815290508082840185101561250257600080fd5b83836020830137600060208583010152509392505050565b600082601f83011261252b57600080fd5b6113b9838335602085016124a0565b60008060006060848603121561254f57600080fd5b6125588461235d565b9250602084013567ffffffffffffffff81111561257457600080fd5b6125808682870161251a565b925050604084013567ffffffffffffffff81111561259d57600080fd5b6125a98682870161251a565b9150509250925092565b6000602082840312156125c557600080fd5b6113b98261235d565b600080604083850312156125e157600080fd5b6125ea8361235d565b91506124036020840161241b565b60408152600061260b604083018561231e565b82810360208401526119b6818561231e565b6000806000806080858703121561263357600080fd5b8435935060208501359250604085013591506126516060860161235d565b905092959194509250565b6000806000806080858703121561267257600080fd5b61267b8561235d565b93506126896020860161235d565b925060408501359150606085013567ffffffffffffffff8111156126ac57600080fd5b8501601f810187136126bd57600080fd5b6126cc878235602084016124a0565b91505092959194509250565b6000806000606084860312156126ed57600080fd5b833592506126fd6020850161235d565b915061270b6040850161240c565b90509250925092565b6000806040838503121561272757600080fd5b6127308361235d565b91506124036020840161235d565b602080825260149082015273151bdad95b88191bd95cc81b9bdd08195e1a5cdd60621b604082015260600190565b6020808252600e908201526d105b1c9958591e481cda59db995960921b604082015260600190565b600181811c908216806127a857607f821691505b6020821081036127c857634e487b7160e01b600052602260045260246000fd5b50919050565b634e487b7160e01b600052602160045260246000fd5b608081016004861061280657634e487b7160e01b600052602160045260246000fd5b9481529215156020840152604083019190915260609091015290565b634e487b7160e01b600052601160045260246000fd5b808201808211156108c0576108c0612822565b60006001820161285d5761285d612822565b5060010190565b601f821115610d7b57806000526020600020601f840160051c8101602085101561288b5750805b601f840160051c820191505b81811015611d265760008155600101612897565b815167ffffffffffffffff8111156128c5576128c561248a565b6128d9816128d38454612794565b84612864565b6020601f82116001811461290d57600083156128f55750848201515b600019600385901b1c1916600184901b178455611d26565b600084815260208120601f198516915b8281101561293d578785015182556020948501946001909201910161291d565b508482101561295b5786840151600019600387901b60f8161c191681555b50505050600190811b01905550565b6000835161297c8184602088016122fa565b8351908301906129908183602088016122fa565b01949350505050565b6001600160a01b03858116825284166020820152604081018390526080606082018190526000906129cc9083018461231e565b9695505050505050565b6000602082840312156129e857600080fd5b81516113b9816122ae56fea264697066735822122070210048a4e1e4fb0415c6ce467c3fd83ed092b7f479ea714a6d7065c74072de64736f6c634300081b0033",
  "linkReferences": {},
  "deployedLinkReferences": {}
}