{
  "_format": "hh-sol-artifact-1",
  "contractName": "PropertyNFT",
  "sourceName": "contracts/PropertyNFT.sol",
  "abi": [
    {
      "inputs": [
        {
          "internalType": "address",
          "name": "initialOwner",
          "type": "address"
        }
      ],
      "stateMutability": "nonpayable",
      "type": "constructor"
    },
    {
      "inputs": [
        {
          "internalType": "address",
          "name": "sender",
          "type": "address"
        },
        {
          "internalType": "uint256",
          "name": "tokenId",
          "type": "uint256"
        },
        {
          "internalType": "address",
          "name": "owner",
          "type": "address"
        }
      ],
      "name": "ERC721IncorrectOwner",
      "type": "error"
    },
    {
      "inputs": [
        {
          "internalType": "address",
          "name": "operator",
          "type": "address"
        },
        {
          "internalType": "uint256",
          "name": "tokenId",
          "type": "uint256"
        }
      ],
      "name": "ERC721InsufficientApproval",
      "type": "error"
    },
    {
      "inputs": [
        {
          "internalType": "address",
          "name": "approver",
          "type": "address"
        }
      ],
      "name": "ERC721InvalidApprover",
      "type": "error"
    },
    {
      "inputs": [
        {
          "internalType": "address",
          "name": "operator",
          "type": "address"
        }
      ],
      "name": "ERC721InvalidOperator",
      "type": "error"
    },
    {
      "inputs": [
        {
          "internalType": "address",
          "name": "owner",
          "type": "address"
        }
      ],
      "name": "ERC721InvalidOwner",
      "type": "error"
    },
    {
      "inputs": [
        {
          "internalType": "address",
          "name": "receiver",
          "type": "address"
        }
      ],
      "name": "ERC721InvalidReceiver",
      "type": "error"
    },
    {
      "inputs": [
        {
          "internalType": "address",
          "name": "sender",
          "type": "address"
        }
      ],
      "name": "ERC721InvalidSender",
      "type": "error"
    },
    {
      "inputs": [
        {
          "internalType": "uint256",
          "name": "tokenId",
          "type": "uint256"
        }
      ],
      "name": "ERC721NonexistentToken",
      "type": "error"
    },
    {
      "inputs": [
        {
          "internalType": "address",
          "name": "owner",
          "type": "address"
        }
      ],
      "name": "OwnableInvalidOwner",
      "type": "error"
    },
    {
      "inputs": [
        {
          "internalType": "address",
          "name": "account",
          "type": "address"
        }
      ],
      "name": "OwnableUnauthorizedAccount",
      "type": "error"
    },
    {
      "anonymous": false,
      "inputs": [
        {
          "indexed": true,
          "internalType": "address",
          "name": "owner",
          "type": "address"
        },
        {
          "indexed": true,
          "internalType": "address",
          "name": "approved",
          "type": "address"
        },
        {
          "indexed": true,
          "internalType": "uint256",
          "name": "tokenId",
          "type": "uint256"
        }
      ],
      "name": "Approval",
      "type": "event"
    },
    {
      "anonymous": false,
      "inputs": [
        {
          "indexed": true,
          "internalType": "address",
          "name": "owner",
          "type": "address"
        },
        {
          "indexed": true,
          "internalType": "address",
          "name": "operator",
          "type": "address"
        },
        {
          "indexed": false,
          "internalType": "bool",
          "name": "approved",
          "type": "bool"
        }
      ],
      "name": "ApprovalForAll",
      "type": "event"
    },
    {
      "anonymous": false,
      "inputs": [
        {
          "indexed": true,
          "internalType": "address",
          "name": "previousOwner",
          "type": "address"
        },
        {
          "indexed": true,
          "internalType": "address",
          "name": "newOwner",
          "type": "address"
        }
      ],
      "name": "OwnershipTransferred",
      "type": "event"
    },
    {
      "anonymous": false,
      "inputs": [
        {
          "indexed": true,
          "internalType": "address",
          "name": "from",
          "type": "address"
        },
        {
          "indexed": true,
          "internalType": "address",
          "name": "to",
          "type": "address"
        },
        {
          "indexed": true,
          "internalType": "uint256",
          "name": "tokenId",
          "type": "uint256"
        }
      ],
      "name": "Transfer",
      "type": "event"
    },
    {
      "inputs": [
        {
          "internalType": "address",
          "name": "to",
          "type": "address"
        },
        {
          "internalType": "uint256",
          "name": "tokenId",
          "type": "uint256"
        }
      ],
      "name": "approve",
      "outputs": [],
      "stateMutability": "nonpayable",
      "type": "function"
    },
    {
      "inputs": [
        {
          "internalType": "address",
          "name": "owner",
          "type": "address"
        }
      ],
      "name": "balanceOf",
      "outputs": [
        {
          "internalType": "uint256",
          "name": "",
          "type": "uint256"
        }
      ],
      "stateMutability": "view",
      "type": "function"
    },
    {
      "inputs": [
        {
          "internalType": "uint256",
          "name": "tokenId",
          "type": "uint256"
        }
      ],
      "name": "getApproved",
      "outputs": [
        {
          "internalType": "address",
          "name": "",
          "type": "address"
        }
      ],
      "stateMutability": "view",
      "type": "function"
    },
    {
      "inputs": [
        {
          "internalType": "address",
          "name": "owner",
          "type": "address"
        },
        {
          "internalType": "address",
          "name": "operator",
          "type": "address"
        }
      ],
      "name": "isApprovedForAll",
      "outputs": [
        {
          "internalType": "bool",
          "name": "",
          "type": "bool"
        }
      ],
      "stateMutability": "view",
      "type": "function"
    },
    {
      "inputs": [
        {
          "internalType": "address",
          "name": "to",
          "type": "address"
        },
        {
          "internalType": "string",
          "name": "uri",
          "type": "string"
        }
      ],
      "name": "mintProperty",
      "outputs": [],
      "stateMutability": "nonpayable",
      "type": "function"
    },
    {
      "inputs": [],
      "name": "name",
      "outputs": [
        {
          "internalType": "string",
          "name": "",
          "type": "string"
        }
      ],
      "stateMutability": "view",
      "type": "function"
    },
    {
      "inputs": [],
      "name": "nextTokenId",
      "outputs": [
        {
          "internalType": "uint256",
          "name": "",
          "type": "uint256"
        }
      ],
      "stateMutability": "view",
      "type": "function"
    },
    {
      "inputs": [],
      "name": "owner",
      "outputs": [
        {
          "internalType": "address",
          "name": "",
          "type": "address"
        }
      ],
      "stateMutability": "view",
      "type": "function"
    },
    {
      "inputs": [
        {
          "internalType": "uint256",
          "name": "tokenId",
          "type": "uint256"
        }
      ],
      "name": "ownerOf",
      "outputs": [
        {
          "internalType": "address",
          "name": "",
          "type": "address"
        }
      ],
      "stateMutability": "view",
      "type": "function"
    },
    {
      "inputs": [],
      "name": "renounceOwnership",
      "outputs": [],
      "stateMutability": "nonpayable",
      "type": "function"
    },
    {
      "inputs": [
        {
          "internalType": "address",
          "name": "from",
          "type": "address"
        },
        {
          "internalType": "address",
          "name": "to",
          "type": "address"
        },
        {
          "internalType": "uint256",
          "name": "tokenId",
          "type": "uint256"
        }
      ],
      "name": "safeTransferFrom",
      "outputs": [],
      "stateMutability": "nonpayable",
      "type": "function"
    },
    {
      "inputs": [
        {
          "internalType": "address",
          "name": "from",
          "type": "address"
        },
        {
          "internalType": "address",
          "name": "to",
          "type": "address"
        },
        {
          "internalType": "uint256",
          "name": "tokenId",
          "type": "uint256"
        },
        {
          "internalType": "bytes",
          "name": "data",
          "type": "bytes"
        }
      ],
      "name": "safeTransferFrom",
      "outputs": [],
      "stateMutability": "nonpayable",
      "type": "function"
    },
    {
      "inputs": [
        {
          "internalType": "address",
          "name": "operator",
          "type": "address"
        },
        {
          "internalType": "bool",
          "name": "approved",
          "type": "bool"
        }
      ],
      "name": "setApprovalForAll",
      "outputs": [],
      "stateMutability": "nonpayable",
      "type": "function"
    },
    {
      "inputs": [
        {
          "internalType": "bytes4",
          "name": "interfaceId",
          "type": "bytes4"
        }
      ],
      "name": "supportsInterface",
      "outputs": [
        {
          "internalType": "bool",
          "name": "",
          "type": "bool"
        }
      ],
      "stateMutability": "view",
      "type": "function"
    },
    {
      "inputs": [],
      "name": "symbol",
      "outputs": [
        {
          "internalType": "string",
          "name": "",
          "type": "string"
        }
      ],
      "stateMutability": "view",
      "type": "function"
    },
    {
      "inputs": [
        {
          "internalType": "uint256",
          "name": "tokenId",
          "type": "uint256"
        }
      ],
      "name": "tokenURI",
      "outputs": [
        {
          "internalType": "string",
          "name": "",
          "type": "string"
        }
      ],
      "stateMutability": "view",
      "type": "function"
    },
    {
      "inputs": [
        {
          "internalType": "uint256",
          "name": "",
          "type": "uint256"
        }
      ],
      "name": "tokenURIMap",
      "outputs": [
        {
          "internalType": "string",
          "name": "",
          "type": "string"
        }
      ],
      "stateMutability": "view",
      "type": "function"
    },
    {
      "inputs": [
        {
          "internalType": "address",
          "name": "from",
          "type": "address"
        },
        {
          "internalType": "address",
          "name": "to",
          "type": "address"
        },
        {
          "internalType": "uint256",
          "name": "tokenId",
          "type": "uint256"
        }
      ],
      "name": "transferFrom",
      "outputs": [],
      "stateMutability": "nonpayable",
      "type": "function"
    },
    {
      "inputs": [
        {
          "internalType": "address",
          "name": "newOwner",
          "type": "address"
        }
      ],
      "name": "transferOwnership",
      "outputs": [],
      "stateMutability": "nonpayable",
      "type": "function"
    }
  ],
  "bytecode": "0x608060405234801561001057600080fd5b506040516114c73803806114c783398101604081905261002f91610124565b806040518060400160405280600d81526020016c1499585b115cdd185d19539195609a1b8152506040518060400160405280600681526020016514914b53919560d21b815250816000908161008491906101f3565b50600161009182826101f3565b5050506001600160a01b0381166100c257604051631e4fbdf760e01b81526000600482015260240160405180910390fd5b6100cb816100d2565b50506102b1565b600680546001600160a01b038381166001600160a01b0319831681179093556040519116919082907f8be0079c531659141344cd1fd0a4f28419497f9722a3daafe3b4186f6b6457e090600090a35050565b60006020828403121561013657600080fd5b81516001600160a01b038116811461014d57600080fd5b9392505050565b634e487b7160e01b600052604160045260246000fd5b600181811c9082168061017e57607f821691505b60208210810361019e57634e487b7160e01b600052602260045260246000fd5b50919050565b601f8211156101ee57806000526020600020601f840160051c810160208510156101cb5750805b601f840160051c820191505b818110156101eb57600081556001016101d7565b50505b505050565b81516001600160401b0381111561020c5761020c610154565b6102208161021a845461016a565b846101a4565b6020601f821160018114610254576000831561023c5750848201515b600019600385901b1c1916600184901b1784556101eb565b600084815260208120601f198516915b828110156102845787850151825560209485019460019092019101610264565b50848210156102a25786840151600019600387901b60f8161c191681555b50505050600190811b01905550565b611207806102c06000396000f3fe608060405234801561001057600080fd5b50600436106101215760003560e01c806370a08231116100ad578063a22cb46511610071578063a22cb4651461024d578063b88d4fde14610260578063c87b56dd14610273578063e985e9c514610286578063f2fde38b1461029957600080fd5b806370a0823114610202578063715018a61461022357806375794a3c1461022b5780638da5cb5b1461023457806395d89b411461024557600080fd5b8063177dc17f116100f4578063177dc17f146101a357806323b872dd146101b657806342842e0e146101c95780635a18ee1a146101dc5780636352211e146101ef57600080fd5b806301ffc9a71461012657806306fdde031461014e578063081812fc14610163578063095ea7b31461018e575b600080fd5b610139610134366004610cff565b6102ac565b60405190151581526020015b60405180910390f35b6101566102fe565b6040516101459190610d69565b610176610171366004610d7c565b610390565b6040516001600160a01b039091168152602001610145565b6101a161019c366004610db1565b6103b9565b005b6101a16101b1366004610e6b565b6103c8565b6101a16101c4366004610ecd565b61040f565b6101a16101d7366004610ecd565b610499565b6101566101ea366004610d7c565b6104b9565b6101766101fd366004610d7c565b610553565b610215610210366004610f0a565b61055e565b604051908152602001610145565b6101a16105a6565b61021560075481565b6006546001600160a01b0316610176565b6101566105ba565b6101a161025b366004610f25565b6105c9565b6101a161026e366004610f61565b6105d4565b610156610281366004610d7c565b6105ec565b610139610294366004610fdd565b61068e565b6101a16102a7366004610f0a565b6106bc565b60006001600160e01b031982166380ac58cd60e01b14806102dd57506001600160e01b03198216635b5e139f60e01b145b806102f857506301ffc9a760e01b6001600160e01b03198316145b92915050565b60606000805461030d90611010565b80601f016020809104026020016040519081016040528092919081815260200182805461033990611010565b80156103865780601f1061035b57610100808354040283529160200191610386565b820191906000526020600020905b81548152906001019060200180831161036957829003601f168201915b5050505050905090565b600061039b826106fa565b506000828152600460205260409020546001600160a01b03166102f8565b6103c4828233610733565b5050565b6103d0610740565b60078054600091826103e18361104a565b9190505590506103f1838261076d565b600081815260086020526040902061040983826110b8565b50505050565b6001600160a01b03821661043e57604051633250574960e11b8152600060048201526024015b60405180910390fd5b600061044b838333610787565b9050836001600160a01b0316816001600160a01b031614610409576040516364283d7b60e01b81526001600160a01b0380861660048301526024820184905282166044820152606401610435565b6104b4838383604051806020016040528060008152506105d4565b505050565b600860205260009081526040902080546104d290611010565b80601f01602080910402602001604051908101604052809291908181526020018280546104fe90611010565b801561054b5780601f106105205761010080835404028352916020019161054b565b820191906000526020600020905b81548152906001019060200180831161052e57829003601f168201915b505050505081565b60006102f8826106fa565b60006001600160a01b03821661058a576040516322718ad960e21b815260006004820152602401610435565b506001600160a01b031660009081526003602052604090205490565b6105ae610740565b6105b86000610880565b565b60606001805461030d90611010565b6103c43383836108d2565b6105df84848461040f565b6104093385858585610971565b600081815260086020526040902080546060919061060990611010565b80601f016020809104026020016040519081016040528092919081815260200182805461063590611010565b80156106825780601f1061065757610100808354040283529160200191610682565b820191906000526020600020905b81548152906001019060200180831161066557829003601f168201915b50505050509050919050565b6001600160a01b03918216600090815260056020908152604080832093909416825291909152205460ff1690565b6106c4610740565b6001600160a01b0381166106ee57604051631e4fbdf760e01b815260006004820152602401610435565b6106f781610880565b50565b6000818152600260205260408120546001600160a01b0316806102f857604051637e27328960e01b815260048101849052602401610435565b6104b48383836001610a9c565b6006546001600160a01b031633146105b85760405163118cdaa760e01b8152336004820152602401610435565b6103c4828260405180602001604052806000815250610ba2565b6000828152600260205260408120546001600160a01b03908116908316156107b4576107b4818486610bba565b6001600160a01b038116156107f2576107d1600085600080610a9c565b6001600160a01b038116600090815260036020526040902080546000190190555b6001600160a01b03851615610821576001600160a01b0385166000908152600360205260409020805460010190555b60008481526002602052604080822080546001600160a01b0319166001600160a01b0389811691821790925591518793918516917fddf252ad1be2c89b69c2b068fc378daa952ba7f163c4a11628f55a4df523b3ef91a4949350505050565b600680546001600160a01b038381166001600160a01b0319831681179093556040519116919082907f8be0079c531659141344cd1fd0a4f28419497f9722a3daafe3b4186f6b6457e090600090a35050565b6001600160a01b03821661090457604051630b61174360e31b81526001600160a01b0383166004820152602401610435565b6001600160a01b03838116600081815260056020908152604080832094871680845294825291829020805460ff191686151590811790915591519182527f17307eab39ab6107e8899845ad3d59bd9653f200f220920489ca2b5937696c31910160405180910390a3505050565b6001600160a01b0383163b15610a9557604051630a85bd0160e11b81526001600160a01b0384169063150b7a02906109b3908890889087908790600401611177565b6020604051808303816000875af19250505080156109ee575060408051601f3d908101601f191682019092526109eb918101906111b4565b60015b610a57573d808015610a1c576040519150601f19603f3d011682016040523d82523d6000602084013e610a21565b606091505b508051600003610a4f57604051633250574960e11b81526001600160a01b0385166004820152602401610435565b805160208201fd5b6001600160e01b03198116630a85bd0160e11b14610a9357604051633250574960e11b81526001600160a01b0385166004820152602401610435565b505b5050505050565b8080610ab057506001600160a01b03821615155b15610b72576000610ac0846106fa565b90506001600160a01b03831615801590610aec5750826001600160a01b0316816001600160a01b031614155b8015610aff5750610afd818461068e565b155b15610b285760405163a9fbf51f60e01b81526001600160a01b0384166004820152602401610435565b8115610b705783856001600160a01b0316826001600160a01b03167f8c5be1e5ebec7d5bd14f71427d1e84f3dd0314c0f7b2291e5b200ac8c7c3b92560405160405180910390a45b505b5050600090815260046020526040902080546001600160a01b0319166001600160a01b0392909216919091179055565b610bac8383610c1e565b6104b4336000858585610971565b610bc5838383610c83565b6104b4576001600160a01b038316610bf357604051637e27328960e01b815260048101829052602401610435565b60405163177e802f60e01b81526001600160a01b038316600482015260248101829052604401610435565b6001600160a01b038216610c4857604051633250574960e11b815260006004820152602401610435565b6000610c5683836000610787565b90506001600160a01b038116156104b4576040516339e3563760e11b815260006004820152602401610435565b60006001600160a01b03831615801590610ce15750826001600160a01b0316846001600160a01b03161480610cbd5750610cbd848461068e565b80610ce157506000828152600460205260409020546001600160a01b038481169116145b949350505050565b6001600160e01b0319811681146106f757600080fd5b600060208284031215610d1157600080fd5b8135610d1c81610ce9565b9392505050565b6000815180845260005b81811015610d4957602081850181015186830182015201610d2d565b506000602082860101526020601f19601f83011685010191505092915050565b602081526000610d1c6020830184610d23565b600060208284031215610d8e57600080fd5b5035919050565b80356001600160a01b0381168114610dac57600080fd5b919050565b60008060408385031215610dc457600080fd5b610dcd83610d95565b946020939093013593505050565b634e487b7160e01b600052604160045260246000fd5b60008067ffffffffffffffff841115610e0c57610e0c610ddb565b50604051601f19601f85018116603f0116810181811067ffffffffffffffff82111715610e3b57610e3b610ddb565b604052838152905080828401851015610e5357600080fd5b83836020830137600060208583010152509392505050565b60008060408385031215610e7e57600080fd5b610e8783610d95565b9150602083013567ffffffffffffffff811115610ea357600080fd5b8301601f81018513610eb457600080fd5b610ec385823560208401610df1565b9150509250929050565b600080600060608486031215610ee257600080fd5b610eeb84610d95565b9250610ef960208501610d95565b929592945050506040919091013590565b600060208284031215610f1c57600080fd5b610d1c82610d95565b60008060408385031215610f3857600080fd5b610f4183610d95565b915060208301358015158114610f5657600080fd5b809150509250929050565b60008060008060808587031215610f7757600080fd5b610f8085610d95565b9350610f8e60208601610d95565b925060408501359150606085013567ffffffffffffffff811115610fb157600080fd5b8501601f81018713610fc257600080fd5b610fd187823560208401610df1565b91505092959194509250565b60008060408385031215610ff057600080fd5b610ff983610d95565b915061100760208401610d95565b90509250929050565b600181811c9082168061102457607f821691505b60208210810361104457634e487b7160e01b600052602260045260246000fd5b50919050565b60006001820161106a57634e487b7160e01b600052601160045260246000fd5b5060010190565b601f8211156104b457806000526020600020601f840160051c810160208510156110985750805b601f840160051c820191505b81811015610a9557600081556001016110a4565b815167ffffffffffffffff8111156110d2576110d2610ddb565b6110e6816110e08454611010565b84611071565b6020601f82116001811461111a57600083156111025750848201515b600019600385901b1c1916600184901b178455610a95565b600084815260208120601f198516915b8281101561114a578785015182556020948501946001909201910161112a565b50848210156111685786840151600019600387901b60f8161c191681555b50505050600190811b01905550565b6001600160a01b03858116825284166020820152604081018390526080606082018190526000906111aa90830184610d23565b9695505050505050565b6000602082840312156111c657600080fd5b8151610d1c81610ce956fea2646970667358221220bbbb20d8b42badfa8f1effab41218ceef90907539d512088ebf7bed02aaf522464736f6c634300081b0033",
  "linkReferences": {},
  "deployedLinkReferences": {}
}