{
  "_format": "hh-sol-artifact-1",
  "contractName": "PropertyNFT",
  "sourceName": "contracts/PropertyNFT.sol",
  "abi": [
    {
      "inputs": [
        {
          "internalType": "address",
          "name": "initialOwner",
          "type": "address"
        }
      ],
      "stateMutability": "nonpayable",
      "type": "constructor"
    },
    {
      "inputs": [
        {
          "internalType": "address",
          "name": "sender",
          "type": "address"
        },
        {
          "internalType": "uint256",
          "name": "tokenId",
          "type": "uint256"
        },
        {
          "internalType": "address",
          "name": "owner",
          "type": "address"
        }
      ],
      "name": "ERC721IncorrectOwner",
      "type": "error"
    },
    {
      "inputs": [
        {
          "internalType": "address",
          "name": "operator",
          "type": "address"
        },
        {
          "internalType": "uint256",
          "name": "tokenId",
          "type": "uint256"
        }
      ],
      "name": "ERC721InsufficientApproval",
      "type": "error"
    },
    {
      "inputs": [
        {
          "internalType": "address",
          "name": "approver",
          "type": "address"
        }
      ],
      "name": "ERC721InvalidApprover",
      "type": "error"
    },
    {
      "inputs": [
        {
          "internalType": "address",
          "name": "operator",
          "type": "address"
        }
      ],
      "name": "ERC721InvalidOperator",
      "type": "error"
    },
    {
      "inputs": [
        {
          "internalType": "address",
          "name": "owner",
          "type": "address"
        }
      ],
      "name": "ERC721InvalidOwner",
      "type": "error"
    },
    {
      "inputs": [
        {
          "internalType": "address",
          "name": "receiver",
          "type": "address"
        }
      ],
      "name": "ERC721InvalidReceiver",
      "type": "error"
    },
    {
      "inputs": [
        {
          "internalType": "address",
          "name": "sender",
          "type": "address"
        }
      ],
      "name": "ERC721InvalidSender",
      "type": "error"
    },
    {
      "inputs": [
        {
          "internalType": "uint256",
          "name": "tokenId",
          "type": "uint256"
        }
      ],
      "name": "ERC721NonexistentToken",
      "type": "error"
    },
    {
      "inputs": [
        {
          "internalType": "address",
          "name": "owner",
          "type": "address"
        }
      ],
      "name": "OwnableInvalidOwner",
      "type": "error"
    },
    {
      "inputs": [
        {
          "internalType": "address",
          "name": "account",
          "type": "address"
        }
      ],
      "name": "OwnableUnauthorizedAccount",
      "type": "error"
    },
    {
      "anonymous": false,
      "inputs": [
        {
          "indexed": true,
          "internalType": "address",
          "name": "owner",
          "type": "address"
        },
        {
          "indexed": true,
          "internalType": "address",
          "name": "approved",
          "type": "address"
        },
        {
          "indexed": true,
          "internalType": "uint256",
          "name": "tokenId",
          "type": "uint256"
        }
      ],
      "name": "Approval",
      "type": "event"
    },
    {
      "anonymous": false,
      "inputs": [
        {
          "indexed": true,
          "internalType": "address",
          "name": "owner",
          "type": "address"
        },
        {
          "indexed": true,
          "internalType": "address",
          "name": "operator",
          "type": "address"
        },
        {
          "indexed": false,
          "internalType": "bool",
          "name": "approved",
          "type": "bool"
        }
      ],
      "name": "ApprovalForAll",
      "type": "event"
    },
    {
      "anonymous": false,
      "inputs": [
        {
          "indexed": true,
          "internalType": "address",
          "name": "previousOwner",
          "type": "address"
        },
        {
          "indexed": true,
          "internalType": "address",
          "name": "newOwner",
          "type": "address"
        }
      ],
      "name": "OwnershipTransferred",
      "type": "event"
    },
    {
      "anonymous": false,
      "inputs": [
        {
          "indexed": true,
          "internalType": "address",
          "name": "from",
          "type": "address"
        },
        {
          "indexed": true,
          "internalType": "address",
          "name": "to",
          "type": "address"
        },
        {
          "indexed": true,
          "internalType": "uint256",
          "name": "tokenId",
          "type": "uint256"
        }
      ],
      "name": "Transfer",
      "type": "event"
    },
    {
      "inputs": [
        {
          "internalType": "address",
          "name": "to",
          "type": "address"
        },
        {
          "internalType": "uint256",
          "name": "tokenId",
          "type": "uint256"
        }
      ],
      "name": "approve",
      "outputs": [],
      "stateMutability": "nonpayable",
      "type": "function"
    },
    {
      "inputs": [
        {
          "internalType": "address",
          "name": "owner",
          "type": "address"
        }
      ],
      "name": "balanceOf",
      "outputs": [
        {
          "internalType": "uint256",
          "name": "",
          "type": "uint256"
        }
      ],
      "stateMutability": "view",
      "type": "function"
    },
    {
      "inputs": [
        {
          "internalType": "uint256",
          "name": "tokenId",
          "type": "uint256"
        }
      ],
      "name": "getApproved",
      "outputs": [
        {
          "internalType": "address",
          "name": "",
          "type": "address"
        }
      ],
      "stateMutability": "view",
      "type": "function"
    },
    {
      "inputs": [
        {
          "internalType": "address",
          "name": "owner",
          "type": "address"
        },
        {
          "internalType": "address",
          "name": "operator",
          "type": "address"
        }
      ],
      "name": "isApprovedForAll",
      "outputs": [
        {
          "internalType": "bool",
          "name": "",
          "type": "bool"
        }
      ],
      "stateMutability": "view",
      "type": "function"
    },
    {
      "inputs": [
        {
          "internalType": "address",
          "name": "to",
          "type": "address"
        },
        {
          "internalType": "string",
          "name": "uri",
          "type": "string"
        }
      ],
      "name": "mintProperty",
      "outputs": [],
      "stateMutability": "nonpayable",
      "type": "function"
    },
    {
      "inputs": [],
      "name": "name",
      "outputs": [
        {
          "internalType": "string",
          "name": "",
          "type": "string"
        }
      ],
      "stateMutability": "view",
      "type": "function"
    },
    {
      "inputs": [],
      "name": "nextTokenId",
      "outputs": [
        {
          "internalType": "uint256",
          "name": "",
          "type": "uint256"
        }
      ],
      "stateMutability": "view",
      "type": "function"
    },
    {
      "inputs": [],
      "name": "owner",
      "outputs": [
        {
          "internalType": "address",
          "name": "",
          "type": "address"
        }
      ],
      "stateMutability": "view",
      "type": "function"
    },
    {
      "inputs": [
        {
          "internalType": "uint256",
          "name": "tokenId",
          "type": "uint256"
        }
      ],
      "name": "ownerOf",
      "outputs": [
        {
          "internalType": "address",
          "name": "",
          "type": "address"
        }
      ],
      "stateMutability": "view",
      "type": "function"
    },
    {
      "inputs": [],
      "name": "renounceOwnership",
      "outputs": [],
      "stateMutability": "nonpayable",
      "type": "function"
    },
    {
      "inputs": [
        {
          "internalType": "address",
          "name": "from",
          "type": "address"
        },
        {
          "internalType": "address",
          "name": "to",
          "type": "address"
        },
        {
          "internalType": "uint256",
          "name": "tokenId",
          "type": "uint256"
        }
      ],
      "name": "safeTransferFrom",
      "outputs": [],
      "stateMutability": "nonpayable",
      "type": "function"
    },
    {
      "inputs": [
        {
          "internalType": "address",
          "name": "from",
          "type": "address"
        },
        {
          "internalType": "address",
          "name": "to",
          "type": "address"
        },
        {
          "internalType": "uint256",
          "name": "tokenId",
          "type": "uint256"
        },
        {
          "internalType": "bytes",
          "name": "data",
          "type": "bytes"
        }
      ],
      "name": "safeTransferFrom",
      "outputs": [],
      "stateMutability": "nonpayable",
      "type": "function"
    },
    {
      "inputs": [
        {
          "internalType": "address",
          "name": "operator",
          "type": "address"
        },
        {
          "internalType": "bool",
          "name": "approved",
          "type": "bool"
        }
      ],
      "name": "setApprovalForAll",
      "outputs": [],
      "stateMutability": "nonpayable",
      "type": "function"
    },
    {
      "inputs": [
        {
          "internalType": "bytes4",
          "name": "interfaceId",
          "type": "bytes4"
        }
      ],
      "name": "supportsInterface",
      "outputs": [
        {
          "internalType": "bool",
          "name": "",
          "type": "bool"
        }
      ],
      "stateMutability": "view",
      "type": "function"
    },
    {
      "inputs": [],
      "name": "symbol",
      "outputs": [
        {
          "internalType": "string",
          "name": "",
          "type": "string"
        }
      ],
      "stateMutability": "view",
      "type": "function"
    },
    {
      "inputs": [
        {
          "internalType": "uint256",
          "name": "tokenId",
          "type": "uint256"
        }
      ],
      "name": "tokenURI",
      "outputs": [
        {
          "internalType": "string",
          "name": "",
          "type": "string"
        }
      ],
      "stateMutability": "view",
      "type": "function"
    },
    {
      "inputs": [
        {
          "internalType": "uint256",
          "name": "",
          "type": "uint256"
        }
      ],
      "name": "tokenURIMap",
      "outputs": [
        {
          "internalType": "string",
          "name": "",
          "type": "string"
        }
      ],
      "stateMutability": "view",
      "type": "function"
    },
    {
      "inputs": [
        {
          "internalType": "address",
          "name": "from",
          "type": "address"
        },
        {
          "internalType": "address",
          "name": "to",
          "type": "address"
        },
        {
          "internalType": "uint256",
          "name": "tokenId",
          "type": "uint256"
        }
      ],
      "name": "transferFrom",
      "outputs": [],
      "stateMutability": "nonpayable",
      "type": "function"
    },
    {
      "inputs": [
        {
          "internalType": "address",
          "name": "newOwner",
          "type": "address"
        }
      ],
      "name": "transferOwnership",
      "outputs": [],
      "stateMutability": "nonpayable",
      "type": "function"
    }
  ],
  "bytecode": "0x608060405234801561001057600080fd5b506040516114bf3803806114bf83398101604081905261002f91610124565b806040518060400160405280600d81526020016c1499585b115cdd185d19539195609a1b8152506040518060400160405280600681526020016514914b53919560d21b815250816000908161008491906101f3565b50600161009182826101f3565b5050506001600160a01b0381166100c257604051631e4fbdf760e01b81526000600482015260240160405180910390fd5b6100cb816100d2565b50506102b1565b600680546001600160a01b038381166001600160a01b0319831681179093556040519116919082907f8be0079c531659141344cd1fd0a4f28419497f9722a3daafe3b4186f6b6457e090600090a35050565b60006020828403121561013657600080fd5b81516001600160a01b038116811461014d57600080fd5b9392505050565b634e487b7160e01b600052604160045260246000fd5b600181811c9082168061017e57607f821691505b60208210810361019e57634e487b7160e01b600052602260045260246000fd5b50919050565b601f8211156101ee57806000526020600020601f840160051c810160208510156101cb5750805b601f840160051c820191505b818110156101eb57600081556001016101d7565b50505b505050565b81516001600160401b0381111561020c5761020c610154565b6102208161021a845461016a565b846101a4565b6020601f821160018114610254576000831561023c5750848201515b600019600385901b1c1916600184901b1784556101eb565b600084815260208120601f198516915b828110156102845787850151825560209485019460019092019101610264565b50848210156102a25786840151600019600387901b60f8161c191681555b50505050600190811b01905550565b6111ff806102c06000396000f3fe608060405234801561001057600080fd5b50600436106101215760003560e01c806370a08231116100ad578063a22cb46511610071578063a22cb4651461024d578063b88d4fde14610260578063c87b56dd14610273578063e985e9c514610286578063f2fde38b1461029957600080fd5b806370a0823114610202578063715018a61461022357806375794a3c1461022b5780638da5cb5b1461023457806395d89b411461024557600080fd5b8063177dc17f116100f4578063177dc17f146101a357806323b872dd146101b657806342842e0e146101c95780635a18ee1a146101dc5780636352211e146101ef57600080fd5b806301ffc9a71461012657806306fdde031461014e578063081812fc14610163578063095ea7b31461018e575b600080fd5b610139610134366004610cf7565b6102ac565b60405190151581526020015b60405180910390f35b6101566102fe565b6040516101459190610d61565b610176610171366004610d74565b610390565b6040516001600160a01b039091168152602001610145565b6101a161019c366004610da9565b6103b9565b005b6101a16101b1366004610e63565b6103c8565b6101a16101c4366004610ec5565b610407565b6101a16101d7366004610ec5565b610491565b6101566101ea366004610d74565b6104b1565b6101766101fd366004610d74565b61054b565b610215610210366004610f02565b610556565b604051908152602001610145565b6101a161059e565b61021560075481565b6006546001600160a01b0316610176565b6101566105b2565b6101a161025b366004610f1d565b6105c1565b6101a161026e366004610f59565b6105cc565b610156610281366004610d74565b6105e4565b610139610294366004610fd5565b610686565b6101a16102a7366004610f02565b6106b4565b60006001600160e01b031982166380ac58cd60e01b14806102dd57506001600160e01b03198216635b5e139f60e01b145b806102f857506301ffc9a760e01b6001600160e01b03198316145b92915050565b60606000805461030d90611008565b80601f016020809104026020016040519081016040528092919081815260200182805461033990611008565b80156103865780601f1061035b57610100808354040283529160200191610386565b820191906000526020600020905b81548152906001019060200180831161036957829003601f168201915b5050505050905090565b600061039b826106f2565b506000828152600460205260409020546001600160a01b03166102f8565b6103c482823361072b565b5050565b60078054600091826103d983611042565b9190505590506103e98382610738565b600081815260086020526040902061040183826110b0565b50505050565b6001600160a01b03821661043657604051633250574960e11b8152600060048201526024015b60405180910390fd5b6000610443838333610752565b9050836001600160a01b0316816001600160a01b031614610401576040516364283d7b60e01b81526001600160a01b038086166004830152602482018490528216604482015260640161042d565b6104ac838383604051806020016040528060008152506105cc565b505050565b600860205260009081526040902080546104ca90611008565b80601f01602080910402602001604051908101604052809291908181526020018280546104f690611008565b80156105435780601f1061051857610100808354040283529160200191610543565b820191906000526020600020905b81548152906001019060200180831161052657829003601f168201915b505050505081565b60006102f8826106f2565b60006001600160a01b038216610582576040516322718ad960e21b81526000600482015260240161042d565b506001600160a01b031660009081526003602052604090205490565b6105a661084b565b6105b06000610878565b565b60606001805461030d90611008565b6103c43383836108ca565b6105d7848484610407565b6104013385858585610969565b600081815260086020526040902080546060919061060190611008565b80601f016020809104026020016040519081016040528092919081815260200182805461062d90611008565b801561067a5780601f1061064f5761010080835404028352916020019161067a565b820191906000526020600020905b81548152906001019060200180831161065d57829003601f168201915b50505050509050919050565b6001600160a01b03918216600090815260056020908152604080832093909416825291909152205460ff1690565b6106bc61084b565b6001600160a01b0381166106e657604051631e4fbdf760e01b81526000600482015260240161042d565b6106ef81610878565b50565b6000818152600260205260408120546001600160a01b0316806102f857604051637e27328960e01b81526004810184905260240161042d565b6104ac8383836001610a94565b6103c4828260405180602001604052806000815250610b9a565b6000828152600260205260408120546001600160a01b039081169083161561077f5761077f818486610bb2565b6001600160a01b038116156107bd5761079c600085600080610a94565b6001600160a01b038116600090815260036020526040902080546000190190555b6001600160a01b038516156107ec576001600160a01b0385166000908152600360205260409020805460010190555b60008481526002602052604080822080546001600160a01b0319166001600160a01b0389811691821790925591518793918516917fddf252ad1be2c89b69c2b068fc378daa952ba7f163c4a11628f55a4df523b3ef91a4949350505050565b6006546001600160a01b031633146105b05760405163118cdaa760e01b815233600482015260240161042d565b600680546001600160a01b038381166001600160a01b0319831681179093556040519116919082907f8be0079c531659141344cd1fd0a4f28419497f9722a3daafe3b4186f6b6457e090600090a35050565b6001600160a01b0382166108fc57604051630b61174360e31b81526001600160a01b038316600482015260240161042d565b6001600160a01b03838116600081815260056020908152604080832094871680845294825291829020805460ff191686151590811790915591519182527f17307eab39ab6107e8899845ad3d59bd9653f200f220920489ca2b5937696c31910160405180910390a3505050565b6001600160a01b0383163b15610a8d57604051630a85bd0160e11b81526001600160a01b0384169063150b7a02906109ab90889088908790879060040161116f565b6020604051808303816000875af19250505080156109e6575060408051601f3d908101601f191682019092526109e3918101906111ac565b60015b610a4f573d808015610a14576040519150601f19603f3d011682016040523d82523d6000602084013e610a19565b606091505b508051600003610a4757604051633250574960e11b81526001600160a01b038516600482015260240161042d565b805160208201fd5b6001600160e01b03198116630a85bd0160e11b14610a8b57604051633250574960e11b81526001600160a01b038516600482015260240161042d565b505b5050505050565b8080610aa857506001600160a01b03821615155b15610b6a576000610ab8846106f2565b90506001600160a01b03831615801590610ae45750826001600160a01b0316816001600160a01b031614155b8015610af75750610af58184610686565b155b15610b205760405163a9fbf51f60e01b81526001600160a01b038416600482015260240161042d565b8115610b685783856001600160a01b0316826001600160a01b03167f8c5be1e5ebec7d5bd14f71427d1e84f3dd0314c0f7b2291e5b200ac8c7c3b92560405160405180910390a45b505b5050600090815260046020526040902080546001600160a01b0319166001600160a01b0392909216919091179055565b610ba48383610c16565b6104ac336000858585610969565b610bbd838383610c7b565b6104ac576001600160a01b038316610beb57604051637e27328960e01b81526004810182905260240161042d565b60405163177e802f60e01b81526001600160a01b03831660048201526024810182905260440161042d565b6001600160a01b038216610c4057604051633250574960e11b81526000600482015260240161042d565b6000610c4e83836000610752565b90506001600160a01b038116156104ac576040516339e3563760e11b81526000600482015260240161042d565b60006001600160a01b03831615801590610cd95750826001600160a01b0316846001600160a01b03161480610cb55750610cb58484610686565b80610cd957506000828152600460205260409020546001600160a01b038481169116145b949350505050565b6001600160e01b0319811681146106ef57600080fd5b600060208284031215610d0957600080fd5b8135610d1481610ce1565b9392505050565b6000815180845260005b81811015610d4157602081850181015186830182015201610d25565b506000602082860101526020601f19601f83011685010191505092915050565b602081526000610d146020830184610d1b565b600060208284031215610d8657600080fd5b5035919050565b80356001600160a01b0381168114610da457600080fd5b919050565b60008060408385031215610dbc57600080fd5b610dc583610d8d565b946020939093013593505050565b634e487b7160e01b600052604160045260246000fd5b60008067ffffffffffffffff841115610e0457610e04610dd3565b50604051601f19601f85018116603f0116810181811067ffffffffffffffff82111715610e3357610e33610dd3565b604052838152905080828401851015610e4b57600080fd5b83836020830137600060208583010152509392505050565b60008060408385031215610e7657600080fd5b610e7f83610d8d565b9150602083013567ffffffffffffffff811115610e9b57600080fd5b8301601f81018513610eac57600080fd5b610ebb85823560208401610de9565b9150509250929050565b600080600060608486031215610eda57600080fd5b610ee384610d8d565b9250610ef160208501610d8d565b929592945050506040919091013590565b600060208284031215610f1457600080fd5b610d1482610d8d565b60008060408385031215610f3057600080fd5b610f3983610d8d565b915060208301358015158114610f4e57600080fd5b809150509250929050565b60008060008060808587031215610f6f57600080fd5b610f7885610d8d565b9350610f8660208601610d8d565b925060408501359150606085013567ffffffffffffffff811115610fa957600080fd5b8501601f81018713610fba57600080fd5b610fc987823560208401610de9565b91505092959194509250565b60008060408385031215610fe857600080fd5b610ff183610d8d565b9150610fff60208401610d8d565b90509250929050565b600181811c9082168061101c57607f821691505b60208210810361103c57634e487b7160e01b600052602260045260246000fd5b50919050565b60006001820161106257634e487b7160e01b600052601160045260246000fd5b5060010190565b601f8211156104ac57806000526020600020601f840160051c810160208510156110905750805b601f840160051c820191505b81811015610a8d576000815560010161109c565b815167ffffffffffffffff8111156110ca576110ca610dd3565b6110de816110d88454611008565b84611069565b6020601f82116001811461111257600083156110fa5750848201515b600019600385901b1c1916600184901b178455610a8d565b600084815260208120601f198516915b828110156111425787850151825560209485019460019092019101611122565b50848210156111605786840151600019600387901b60f8161c191681555b50505050600190811b01905550565b6001600160a01b03858116825284166020820152604081018390526080606082018190526000906111a290830184610d1b565b9695505050505050565b6000602082840312156111be57600080fd5b8151610d1481610ce156fea26469706673582212209a7c829ccd3b0a20df64876646516a5e4a1f0b27fc194da9b8d61e1f1e25b98a64736f6c634300081b0033",
  "linkReferences": {},
  "deployedLinkReferences": {}
}