{
  "_format": "hh-sol-artifact-1",
  "contractName": "PropertyNFT",
  "sourceName": "contracts/PropertyNFT.sol",
  "abi": [
    {
      "inputs": [
        {
          "internalType": "address",
          "name": "initialOwner",
          "type": "address"
        }
      ],
      "stateMutability": "nonpayable",
      "type": "constructor"
    },
    {
      "inputs": [],
      "name": "AccessControlBadConfirmation",
      "type": "error"
    },
    {
      "inputs": [
        {
          "internalType": "address",
          "name": "account",
          "type": "address"
        },
        {
          "internalType": "bytes32",
          "name": "neededRole",
          "type": "bytes32"
        }
      ],
      "name": "AccessControlUnauthorizedAccount",
      "type": "error"
    },
    {
      "inputs": [
        {
          "internalType": "address",
          "name": "sender",
          "type": "address"
        },
        {
          "internalType": "uint256",
          "name": "tokenId",
          "type": "uint256"
        },
        {
          "internalType": "address",
          "name": "owner",
          "type": "address"
        }
      ],
      "name": "ERC721IncorrectOwner",
      "type": "error"
    },
    {
      "inputs": [
        {
          "internalType": "address",
          "name": "operator",
          "type": "address"
        },
        {
          "internalType": "uint256",
          "name": "tokenId",
          "type": "uint256"
        }
      ],
      "name": "ERC721InsufficientApproval",
      "type": "error"
    },
    {
      "inputs": [
        {
          "internalType": "address",
          "name": "approver",
          "type": "address"
        }
      ],
      "name": "ERC721InvalidApprover",
      "type": "error"
    },
    {
      "inputs": [
        {
          "internalType": "address",
          "name": "operator",
          "type": "address"
        }
      ],
      "name": "ERC721InvalidOperator",
      "type": "error"
    },
    {
      "inputs": [
        {
          "internalType": "address",
          "name": "owner",
          "type": "address"
        }
      ],
      "name": "ERC721InvalidOwner",
      "type": "error"
    },
    {
      "inputs": [
        {
          "internalType": "address",
          "name": "receiver",
          "type": "address"
        }
      ],
      "name": "ERC721InvalidReceiver",
      "type": "error"
    },
    {
      "inputs": [
        {
          "internalType": "address",
          "name": "sender",
          "type": "address"
        }
      ],
      "name": "ERC721InvalidSender",
      "type": "error"
    },
    {
      "inputs": [
        {
          "internalType": "uint256",
          "name": "tokenId",
          "type": "uint256"
        }
      ],
      "name": "ERC721NonexistentToken",
      "type": "error"
    },
    {
      "inputs": [
        {
          "internalType": "address",
          "name": "owner",
          "type": "address"
        }
      ],
      "name": "OwnableInvalidOwner",
      "type": "error"
    },
    {
      "inputs": [
        {
          "internalType": "address",
          "name": "account",
          "type": "address"
        }
      ],
      "name": "OwnableUnauthorizedAccount",
      "type": "error"
    },
    {
      "anonymous": false,
      "inputs": [
        {
          "indexed": true,
          "internalType": "address",
          "name": "owner",
          "type": "address"
        },
        {
          "indexed": true,
          "internalType": "address",
          "name": "approved",
          "type": "address"
        },
        {
          "indexed": true,
          "internalType": "uint256",
          "name": "tokenId",
          "type": "uint256"
        }
      ],
      "name": "Approval",
      "type": "event"
    },
    {
      "anonymous": false,
      "inputs": [
        {
          "indexed": true,
          "internalType": "address",
          "name": "owner",
          "type": "address"
        },
        {
          "indexed": true,
          "internalType": "address",
          "name": "operator",
          "type": "address"
        },
        {
          "indexed": false,
          "internalType": "bool",
          "name": "approved",
          "type": "bool"
        }
      ],
      "name": "ApprovalForAll",
      "type": "event"
    },
    {
      "anonymous": false,
      "inputs": [
        {
          "indexed": true,
          "internalType": "address",
          "name": "previousOwner",
          "type": "address"
        },
        {
          "indexed": true,
          "internalType": "address",
          "name": "newOwner",
          "type": "address"
        }
      ],
      "name": "OwnershipTransferred",
      "type": "event"
    },
    {
      "anonymous": false,
      "inputs": [
        {
          "indexed": true,
          "internalType": "bytes32",
          "name": "role",
          "type": "bytes32"
        },
        {
          "indexed": true,
          "internalType": "bytes32",
          "name": "previousAdminRole",
          "type": "bytes32"
        },
        {
          "indexed": true,
          "internalType": "bytes32",
          "name": "newAdminRole",
          "type": "bytes32"
        }
      ],
      "name": "RoleAdminChanged",
      "type": "event"
    },
    {
      "anonymous": false,
      "inputs": [
        {
          "indexed": true,
          "internalType": "bytes32",
          "name": "role",
          "type": "bytes32"
        },
        {
          "indexed": true,
          "internalType": "address",
          "name": "account",
          "type": "address"
        },
        {
          "indexed": true,
          "internalType": "address",
          "name": "sender",
          "type": "address"
        }
      ],
      "name": "RoleGranted",
      "type": "event"
    },
    {
      "anonymous": false,
      "inputs": [
        {
          "indexed": true,
          "internalType": "bytes32",
          "name": "role",
          "type": "bytes32"
        },
        {
          "indexed": true,
          "internalType": "address",
          "name": "account",
          "type": "address"
        },
        {
          "indexed": true,
          "internalType": "address",
          "name": "sender",
          "type": "address"
        }
      ],
      "name": "RoleRevoked",
      "type": "event"
    },
    {
      "anonymous": false,
      "inputs": [
        {
          "indexed": true,
          "internalType": "address",
          "name": "from",
          "type": "address"
        },
        {
          "indexed": true,
          "internalType": "address",
          "name": "to",
          "type": "address"
        },
        {
          "indexed": true,
          "internalType": "uint256",
          "name": "tokenId",
          "type": "uint256"
        }
      ],
      "name": "Transfer",
      "type": "event"
    },
    {
      "inputs": [],
      "name": "DEFAULT_ADMIN_ROLE",
      "outputs": [
        {
          "internalType": "bytes32",
          "name": "",
          "type": "bytes32"
        }
      ],
      "stateMutability": "view",
      "type": "function"
    },
    {
      "inputs": [],
      "name": "IVSL_ROLE",
      "outputs": [
        {
          "internalType": "bytes32",
          "name": "",
          "type": "bytes32"
        }
      ],
      "stateMutability": "view",
      "type": "function"
    },
    {
      "inputs": [],
      "name": "NOTARY_ROLE",
      "outputs": [
        {
          "internalType": "bytes32",
          "name": "",
          "type": "bytes32"
        }
      ],
      "stateMutability": "view",
      "type": "function"
    },
    {
      "inputs": [],
      "name": "SURVEYOR_ROLE",
      "outputs": [
        {
          "internalType": "bytes32",
          "name": "",
          "type": "bytes32"
        }
      ],
      "stateMutability": "view",
      "type": "function"
    },
    {
      "inputs": [
        {
          "internalType": "address",
          "name": "to",
          "type": "address"
        },
        {
          "internalType": "uint256",
          "name": "tokenId",
          "type": "uint256"
        }
      ],
      "name": "approve",
      "outputs": [],
      "stateMutability": "nonpayable",
      "type": "function"
    },
    {
      "inputs": [
        {
          "internalType": "address",
          "name": "owner",
          "type": "address"
        }
      ],
      "name": "balanceOf",
      "outputs": [
        {
          "internalType": "uint256",
          "name": "",
          "type": "uint256"
        }
      ],
      "stateMutability": "view",
      "type": "function"
    },
    {
      "inputs": [
        {
          "internalType": "uint256",
          "name": "tokenId",
          "type": "uint256"
        }
      ],
      "name": "getApproved",
      "outputs": [
        {
          "internalType": "address",
          "name": "",
          "type": "address"
        }
      ],
      "stateMutability": "view",
      "type": "function"
    },
    {
      "inputs": [
        {
          "internalType": "uint256",
          "name": "tokenId",
          "type": "uint256"
        }
      ],
      "name": "getMetadata",
      "outputs": [
        {
          "internalType": "string",
          "name": "ipfsHash",
          "type": "string"
        },
        {
          "internalType": "string",
          "name": "dbHash",
          "type": "string"
        }
      ],
      "stateMutability": "view",
      "type": "function"
    },
    {
      "inputs": [
        {
          "internalType": "bytes32",
          "name": "role",
          "type": "bytes32"
        }
      ],
      "name": "getRoleAdmin",
      "outputs": [
        {
          "internalType": "bytes32",
          "name": "",
          "type": "bytes32"
        }
      ],
      "stateMutability": "view",
      "type": "function"
    },
    {
      "inputs": [
        {
          "internalType": "bytes32",
          "name": "role",
          "type": "bytes32"
        },
        {
          "internalType": "address",
          "name": "account",
          "type": "address"
        }
      ],
      "name": "grantRole",
      "outputs": [],
      "stateMutability": "nonpayable",
      "type": "function"
    },
    {
      "inputs": [
        {
          "internalType": "bytes32",
          "name": "role",
          "type": "bytes32"
        },
        {
          "internalType": "address",
          "name": "account",
          "type": "address"
        }
      ],
      "name": "hasRole",
      "outputs": [
        {
          "internalType": "bool",
          "name": "",
          "type": "bool"
        }
      ],
      "stateMutability": "view",
      "type": "function"
    },
    {
      "inputs": [
        {
          "internalType": "address",
          "name": "owner",
          "type": "address"
        },
        {
          "internalType": "address",
          "name": "operator",
          "type": "address"
        }
      ],
      "name": "isApprovedForAll",
      "outputs": [
        {
          "internalType": "bool",
          "name": "",
          "type": "bool"
        }
      ],
      "stateMutability": "view",
      "type": "function"
    },
    {
      "inputs": [
        {
          "internalType": "uint256",
          "name": "tokenId",
          "type": "uint256"
        }
      ],
      "name": "isFullySigned",
      "outputs": [
        {
          "internalType": "bool",
          "name": "",
          "type": "bool"
        }
      ],
      "stateMutability": "view",
      "type": "function"
    },
    {
      "inputs": [
        {
          "internalType": "uint256",
          "name": "tokenId",
          "type": "uint256"
        }
      ],
      "name": "isSignedByIVSL",
      "outputs": [
        {
          "internalType": "bool",
          "name": "",
          "type": "bool"
        }
      ],
      "stateMutability": "view",
      "type": "function"
    },
    {
      "inputs": [
        {
          "internalType": "uint256",
          "name": "tokenId",
          "type": "uint256"
        }
      ],
      "name": "isSignedByNotary",
      "outputs": [
        {
          "internalType": "bool",
          "name": "",
          "type": "bool"
        }
      ],
      "stateMutability": "view",
      "type": "function"
    },
    {
      "inputs": [
        {
          "internalType": "uint256",
          "name": "tokenId",
          "type": "uint256"
        }
      ],
      "name": "isSignedBySurveyor",
      "outputs": [
        {
          "internalType": "bool",
          "name": "",
          "type": "bool"
        }
      ],
      "stateMutability": "view",
      "type": "function"
    },
    {
      "inputs": [
        {
          "internalType": "address",
          "name": "to",
          "type": "address"
        },
        {
          "internalType": "string",
          "name": "ipfsHash",
          "type": "string"
        },
        {
          "internalType": "string",
          "name": "dbHash",
          "type": "string"
        }
      ],
      "name": "mintProperty",
      "outputs": [],
      "stateMutability": "nonpayable",
      "type": "function"
    },
    {
      "inputs": [],
      "name": "name",
      "outputs": [
        {
          "internalType": "string",
          "name": "",
          "type": "string"
        }
      ],
      "stateMutability": "view",
      "type": "function"
    },
    {
      "inputs": [],
      "name": "nextTokenId",
      "outputs": [
        {
          "internalType": "uint256",
          "name": "",
          "type": "uint256"
        }
      ],
      "stateMutability": "view",
      "type": "function"
    },
    {
      "inputs": [],
      "name": "owner",
      "outputs": [
        {
          "internalType": "address",
          "name": "",
          "type": "address"
        }
      ],
      "stateMutability": "view",
      "type": "function"
    },
    {
      "inputs": [
        {
          "internalType": "uint256",
          "name": "tokenId",
          "type": "uint256"
        }
      ],
      "name": "ownerOf",
      "outputs": [
        {
          "internalType": "address",
          "name": "",
          "type": "address"
        }
      ],
      "stateMutability": "view",
      "type": "function"
    },
    {
      "inputs": [],
      "name": "renounceOwnership",
      "outputs": [],
      "stateMutability": "nonpayable",
      "type": "function"
    },
    {
      "inputs": [
        {
          "internalType": "bytes32",
          "name": "role",
          "type": "bytes32"
        },
        {
          "internalType": "address",
          "name": "callerConfirmation",
          "type": "address"
        }
      ],
      "name": "renounceRole",
      "outputs": [],
      "stateMutability": "nonpayable",
      "type": "function"
    },
    {
      "inputs": [
        {
          "internalType": "bytes32",
          "name": "role",
          "type": "bytes32"
        },
        {
          "internalType": "address",
          "name": "account",
          "type": "address"
        }
      ],
      "name": "revokeRole",
      "outputs": [],
      "stateMutability": "nonpayable",
      "type": "function"
    },
    {
      "inputs": [
        {
          "internalType": "address",
          "name": "from",
          "type": "address"
        },
        {
          "internalType": "address",
          "name": "to",
          "type": "address"
        },
        {
          "internalType": "uint256",
          "name": "tokenId",
          "type": "uint256"
        }
      ],
      "name": "safeTransferFrom",
      "outputs": [],
      "stateMutability": "nonpayable",
      "type": "function"
    },
    {
      "inputs": [
        {
          "internalType": "address",
          "name": "from",
          "type": "address"
        },
        {
          "internalType": "address",
          "name": "to",
          "type": "address"
        },
        {
          "internalType": "uint256",
          "name": "tokenId",
          "type": "uint256"
        },
        {
          "internalType": "bytes",
          "name": "data",
          "type": "bytes"
        }
      ],
      "name": "safeTransferFrom",
      "outputs": [],
      "stateMutability": "nonpayable",
      "type": "function"
    },
    {
      "inputs": [
        {
          "internalType": "address",
          "name": "operator",
          "type": "address"
        },
        {
          "internalType": "bool",
          "name": "approved",
          "type": "bool"
        }
      ],
      "name": "setApprovalForAll",
      "outputs": [],
      "stateMutability": "nonpayable",
      "type": "function"
    },
    {
      "inputs": [
        {
          "internalType": "uint256",
          "name": "tokenId",
          "type": "uint256"
        }
      ],
      "name": "signProperty",
      "outputs": [],
      "stateMutability": "nonpayable",
      "type": "function"
    },
    {
      "inputs": [
        {
          "internalType": "bytes4",
          "name": "interfaceId",
          "type": "bytes4"
        }
      ],
      "name": "supportsInterface",
      "outputs": [
        {
          "internalType": "bool",
          "name": "",
          "type": "bool"
        }
      ],
      "stateMutability": "view",
      "type": "function"
    },
    {
      "inputs": [],
      "name": "symbol",
      "outputs": [
        {
          "internalType": "string",
          "name": "",
          "type": "string"
        }
      ],
      "stateMutability": "view",
      "type": "function"
    },
    {
      "inputs": [
        {
          "internalType": "uint256",
          "name": "tokenId",
          "type": "uint256"
        }
      ],
      "name": "tokenURI",
      "outputs": [
        {
          "internalType": "string",
          "name": "",
          "type": "string"
        }
      ],
      "stateMutability": "view",
      "type": "function"
    },
    {
      "inputs": [
        {
          "internalType": "address",
          "name": "from",
          "type": "address"
        },
        {
          "internalType": "address",
          "name": "to",
          "type": "address"
        },
        {
          "internalType": "uint256",
          "name": "tokenId",
          "type": "uint256"
        }
      ],
      "name": "transferFrom",
      "outputs": [],
      "stateMutability": "nonpayable",
      "type": "function"
    },
    {
      "inputs": [
        {
          "internalType": "address",
          "name": "newOwner",
          "type": "address"
        }
      ],
      "name": "transferOwnership",
      "outputs": [],
      "stateMutability": "nonpayable",
      "type": "function"
    }
  ],
  "bytecode": "0x608060405234801561001057600080fd5b506040516120a23803806120a283398101604081905261002f916101e0565b806040518060400160405280600d81526020016c1499585b115cdd185d19539195609a1b8152506040518060400160405280600681526020016514914b53919560d21b815250816000908161008491906102af565b50600161009182826102af565b5050506001600160a01b0381166100c257604051631e4fbdf760e01b81526000600482015260240160405180910390fd5b6100cb816100de565b506100d7600082610130565b505061036d565b600680546001600160a01b038381166001600160a01b0319831681179093556040519116919082907f8be0079c531659141344cd1fd0a4f28419497f9722a3daafe3b4186f6b6457e090600090a35050565b60008281526007602090815260408083206001600160a01b038516845290915281205460ff166101d65760008381526007602090815260408083206001600160a01b03861684529091529020805460ff1916600117905561018e3390565b6001600160a01b0316826001600160a01b0316847f2f8788117e7eff1d82e926ec794901d17c78024a50270940304540a733656f0d60405160405180910390a45060016101da565b5060005b92915050565b6000602082840312156101f257600080fd5b81516001600160a01b038116811461020957600080fd5b9392505050565b634e487b7160e01b600052604160045260246000fd5b600181811c9082168061023a57607f821691505b60208210810361025a57634e487b7160e01b600052602260045260246000fd5b50919050565b601f8211156102aa57806000526020600020601f840160051c810160208510156102875750805b601f840160051c820191505b818110156102a75760008155600101610293565b50505b505050565b81516001600160401b038111156102c8576102c8610210565b6102dc816102d68454610226565b84610260565b6020601f82116001811461031057600083156102f85750848201515b600019600385901b1c1916600184901b1784556102a7565b600084815260208120601f198516915b828110156103405787850151825560209485019460019092019101610320565b508482101561035e5786840151600019600387901b60f8161c191681555b50505050600190811b01905550565b611d268061037c6000396000f3fe608060405234801561001057600080fd5b50600436106101fb5760003560e01c80638da5cb5b1161011a578063be47e028116100ad578063e317f7561161007c578063e317f75614610480578063e4b4e9c814610493578063e4ceebfc146104a6578063e985e9c5146104b9578063f2fde38b146104cc57600080fd5b8063be47e0281461040c578063c48b0baa14610433578063c87b56dd1461045a578063d547741f1461046d57600080fd5b8063a22cb465116100e9578063a22cb465146103b2578063a574cea4146103c5578063b2e50f58146103e6578063b88d4fde146103f957600080fd5b80638da5cb5b1461037e57806391d148541461038f57806395d89b41146103a2578063a217fddf146103aa57600080fd5b806336568abe1161019257806370a082311161016157806370a0823114610333578063715018a61461034657806375794a3c1461034e5780638c238b791461035757600080fd5b806336568abe146102e757806342842e0e146102fa5780636352211e1461030d5780636e777dd81461032057600080fd5b8063095ea7b3116101ce578063095ea7b31461027d57806323b872dd14610290578063248a9ca3146102a35780632f2ff15d146102d457600080fd5b806301ffc9a7146102005780630675ec801461022857806306fdde031461023d578063081812fc14610252575b600080fd5b61021361020e36600461170e565b6104df565b60405190151581526020015b60405180910390f35b61023b61023636600461172b565b6104f0565b005b6102456106ed565b60405161021f9190611794565b61026561026036600461172b565b61077f565b6040516001600160a01b03909116815260200161021f565b61023b61028b3660046117c3565b6107a8565b61023b61029e3660046117ed565b6107b7565b6102c66102b136600461172b565b60009081526007602052604090206001015490565b60405190815260200161021f565b61023b6102e236600461182a565b610842565b61023b6102f536600461182a565b610867565b61023b6103083660046117ed565b61089f565b61026561031b36600461172b565b6108ba565b61023b61032e366004611906565b6108c5565b6102c661034136600461197f565b61093c565b61023b610984565b6102c660085481565b6102c67f4f3724b2b11e1ff14982c16ee1ccbeeddf1e15256c41dccf7ecbd129a3e5d27681565b6006546001600160a01b0316610265565b61021361039d36600461182a565b610998565b6102456109c3565b6102c6600081565b61023b6103c036600461199a565b6109d2565b6103d86103d336600461172b565b6109dd565b60405161021f9291906119d6565b6102136103f436600461172b565b610b61565b61023b610407366004611a04565b610ba9565b6102c67f2876b6444ca73956040d49b0d48b2a7c03b6b34daa638a812177f0309da79c7e81565b6102c67f014df5ee2861d7f34562399ffa112fc59b51f810d2b875c3609ba0c31ac873d081565b61024561046836600461172b565b610bc1565b61023b61047b36600461182a565b610c36565b61021361048e36600461172b565b610c5b565b6102136104a136600461172b565b610ca8565b6102136104b436600461172b565b610cf6565b6102136104c7366004611a80565b610d7c565b61023b6104da36600461197f565b610daa565b60006104ea82610de5565b92915050565b60006104fb826108ba565b6001600160a01b03160361052a5760405162461bcd60e51b815260040161052190611aaa565b60405180910390fd5b6105547f2876b6444ca73956040d49b0d48b2a7c03b6b34daa638a812177f0309da79c7e33610998565b156105a4576000818152600a602052604090205460ff16156105885760405162461bcd60e51b815260040161052190611ad8565b6000818152600a60205260409020805460ff1916600117905550565b6105ce7f014df5ee2861d7f34562399ffa112fc59b51f810d2b875c3609ba0c31ac873d033610998565b15610625576000818152600a6020526040902054610100900460ff16156106075760405162461bcd60e51b815260040161052190611ad8565b6000818152600a60205260409020805461ff00191661010017905550565b61064f7f4f3724b2b11e1ff14982c16ee1ccbeeddf1e15256c41dccf7ecbd129a3e5d27633610998565b156106a9576000818152600a602052604090205462010000900460ff16156106895760405162461bcd60e51b815260040161052190611ad8565b6000818152600a60205260409020805462ff000019166201000017905550565b60405162461bcd60e51b81526020600482015260166024820152752737ba1030baba3437b934bd32b2103a379039b4b3b760511b6044820152606401610521565b50565b6060600080546106fc90611b00565b80601f016020809104026020016040519081016040528092919081815260200182805461072890611b00565b80156107755780601f1061074a57610100808354040283529160200191610775565b820191906000526020600020905b81548152906001019060200180831161075857829003601f168201915b5050505050905090565b600061078a82610e0a565b506000828152600460205260409020546001600160a01b03166104ea565b6107b3828233610e43565b5050565b6001600160a01b0382166107e157604051633250574960e11b815260006004820152602401610521565b60006107ee838333610e50565b9050836001600160a01b0316816001600160a01b03161461083c576040516364283d7b60e01b81526001600160a01b0380861660048301526024820184905282166044820152606401610521565b50505050565b60008281526007602052604090206001015461085d81610f49565b61083c8383610f53565b6001600160a01b03811633146108905760405163334bd91960e11b815260040160405180910390fd5b61089a8282610fe7565b505050565b61089a83838360405180602001604052806000815250610ba9565b60006104ea82610e0a565b6108cd611054565b60088054600091826108de83611b3a565b9190505590506108ee8482611081565b604080518082018252848152602080820185905260008481526009909152919091208151819061091e9082611ba8565b50602082015160018201906109339082611ba8565b50505050505050565b60006001600160a01b038216610968576040516322718ad960e21b815260006004820152602401610521565b506001600160a01b031660009081526003602052604090205490565b61098c611054565b610996600061109b565b565b60009182526007602090815260408084206001600160a01b0393909316845291905290205460ff1690565b6060600180546106fc90611b00565b6107b33383836110ed565b60608060006109eb846108ba565b6001600160a01b031603610a115760405162461bcd60e51b815260040161052190611aaa565b6000838152600960205260408082208151808301909252805482908290610a3790611b00565b80601f0160208091040260200160405190810160405280929190818152602001828054610a6390611b00565b8015610ab05780601f10610a8557610100808354040283529160200191610ab0565b820191906000526020600020905b815481529060010190602001808311610a9357829003601f168201915b50505050508152602001600182018054610ac990611b00565b80601f0160208091040260200160405190810160405280929190818152602001828054610af590611b00565b8015610b425780601f10610b1757610100808354040283529160200191610b42565b820191906000526020600020905b815481529060010190602001808311610b2557829003601f168201915b5050505050815250509050806000015181602001519250925050915091565b600080610b6d836108ba565b6001600160a01b031603610b935760405162461bcd60e51b815260040161052190611aaa565b506000908152600a602052604090205460ff1690565b610bb48484846107b7565b61083c338585858561118c565b6060610bcc82610e0a565b506000610be460408051602081019091526000815290565b90506000815111610c045760405180602001604052806000815250610c2f565b80610c0e846112b7565b604051602001610c1f929190611c67565b6040516020818303038152906040525b9392505050565b600082815260076020526040902060010154610c5181610f49565b61083c8383610fe7565b600080610c67836108ba565b6001600160a01b031603610c8d5760405162461bcd60e51b815260040161052190611aaa565b506000908152600a6020526040902054610100900460ff1690565b600080610cb4836108ba565b6001600160a01b031603610cda5760405162461bcd60e51b815260040161052190611aaa565b506000908152600a602052604090205462010000900460ff1690565b600080610d02836108ba565b6001600160a01b031603610d285760405162461bcd60e51b815260040161052190611aaa565b6000828152600a602052604090205460ff168015610d5957506000828152600a6020526040902054610100900460ff165b80156104ea5750506000908152600a602052604090205462010000900460ff1690565b6001600160a01b03918216600090815260056020908152604080832093909416825291909152205460ff1690565b610db2611054565b6001600160a01b038116610ddc57604051631e4fbdf760e01b815260006004820152602401610521565b6106ea8161109b565b60006001600160e01b03198216637965db0b60e01b14806104ea57506104ea8261134a565b6000818152600260205260408120546001600160a01b0316806104ea57604051637e27328960e01b815260048101849052602401610521565b61089a838383600161139a565b6000828152600260205260408120546001600160a01b0390811690831615610e7d57610e7d8184866114a0565b6001600160a01b03811615610ebb57610e9a60008560008061139a565b6001600160a01b038116600090815260036020526040902080546000190190555b6001600160a01b03851615610eea576001600160a01b0385166000908152600360205260409020805460010190555b60008481526002602052604080822080546001600160a01b0319166001600160a01b0389811691821790925591518793918516917fddf252ad1be2c89b69c2b068fc378daa952ba7f163c4a11628f55a4df523b3ef91a4949350505050565b6106ea8133611504565b6000610f5f8383610998565b610fdf5760008381526007602090815260408083206001600160a01b03861684529091529020805460ff19166001179055610f973390565b6001600160a01b0316826001600160a01b0316847f2f8788117e7eff1d82e926ec794901d17c78024a50270940304540a733656f0d60405160405180910390a45060016104ea565b5060006104ea565b6000610ff38383610998565b15610fdf5760008381526007602090815260408083206001600160a01b0386168085529252808320805460ff1916905551339286917ff6391f5c32d9c69d2a47ea670b442974b53935d1edc7fd64eb21e047a839171b9190a45060016104ea565b6006546001600160a01b031633146109965760405163118cdaa760e01b8152336004820152602401610521565b6107b382826040518060200160405280600081525061153d565b600680546001600160a01b038381166001600160a01b0319831681179093556040519116919082907f8be0079c531659141344cd1fd0a4f28419497f9722a3daafe3b4186f6b6457e090600090a35050565b6001600160a01b03821661111f57604051630b61174360e31b81526001600160a01b0383166004820152602401610521565b6001600160a01b03838116600081815260056020908152604080832094871680845294825291829020805460ff191686151590811790915591519182527f17307eab39ab6107e8899845ad3d59bd9653f200f220920489ca2b5937696c31910160405180910390a3505050565b6001600160a01b0383163b156112b057604051630a85bd0160e11b81526001600160a01b0384169063150b7a02906111ce908890889087908790600401611c96565b6020604051808303816000875af1925050508015611209575060408051601f3d908101601f1916820190925261120691810190611cd3565b60015b611272573d808015611237576040519150601f19603f3d011682016040523d82523d6000602084013e61123c565b606091505b50805160000361126a57604051633250574960e11b81526001600160a01b0385166004820152602401610521565b805160208201fd5b6001600160e01b03198116630a85bd0160e11b146112ae57604051633250574960e11b81526001600160a01b0385166004820152602401610521565b505b5050505050565b606060006112c483611555565b600101905060008167ffffffffffffffff8111156112e4576112e4611856565b6040519080825280601f01601f19166020018201604052801561130e576020820181803683370190505b5090508181016020015b600019016f181899199a1a9b1b9c1cb0b131b232b360811b600a86061a8153600a850494508461131857509392505050565b60006001600160e01b031982166380ac58cd60e01b148061137b57506001600160e01b03198216635b5e139f60e01b145b806104ea57506301ffc9a760e01b6001600160e01b03198316146104ea565b80806113ae57506001600160a01b03821615155b156114705760006113be84610e0a565b90506001600160a01b038316158015906113ea5750826001600160a01b0316816001600160a01b031614155b80156113fd57506113fb8184610d7c565b155b156114265760405163a9fbf51f60e01b81526001600160a01b0384166004820152602401610521565b811561146e5783856001600160a01b0316826001600160a01b03167f8c5be1e5ebec7d5bd14f71427d1e84f3dd0314c0f7b2291e5b200ac8c7c3b92560405160405180910390a45b505b5050600090815260046020526040902080546001600160a01b0319166001600160a01b0392909216919091179055565b6114ab83838361162d565b61089a576001600160a01b0383166114d957604051637e27328960e01b815260048101829052602401610521565b60405163177e802f60e01b81526001600160a01b038316600482015260248101829052604401610521565b61150e8282610998565b6107b35760405163e2517d3f60e01b81526001600160a01b038216600482015260248101839052604401610521565b6115478383611693565b61089a33600085858561118c565b60008072184f03e93ff9f4daa797ed6e38ed64bf6a1f0160401b83106115945772184f03e93ff9f4daa797ed6e38ed64bf6a1f0160401b830492506040015b6d04ee2d6d415b85acef810000000083106115c0576d04ee2d6d415b85acef8100000000830492506020015b662386f26fc1000083106115de57662386f26fc10000830492506010015b6305f5e10083106115f6576305f5e100830492506008015b612710831061160a57612710830492506004015b6064831061161c576064830492506002015b600a83106104ea5760010192915050565b60006001600160a01b0383161580159061168b5750826001600160a01b0316846001600160a01b0316148061166757506116678484610d7c565b8061168b57506000828152600460205260409020546001600160a01b038481169116145b949350505050565b6001600160a01b0382166116bd57604051633250574960e11b815260006004820152602401610521565b60006116cb83836000610e50565b90506001600160a01b0381161561089a576040516339e3563760e11b815260006004820152602401610521565b6001600160e01b0319811681146106ea57600080fd5b60006020828403121561172057600080fd5b8135610c2f816116f8565b60006020828403121561173d57600080fd5b5035919050565b60005b8381101561175f578181015183820152602001611747565b50506000910152565b60008151808452611780816020860160208601611744565b601f01601f19169290920160200192915050565b602081526000610c2f6020830184611768565b80356001600160a01b03811681146117be57600080fd5b919050565b600080604083850312156117d657600080fd5b6117df836117a7565b946020939093013593505050565b60008060006060848603121561180257600080fd5b61180b846117a7565b9250611819602085016117a7565b929592945050506040919091013590565b6000806040838503121561183d57600080fd5b8235915061184d602084016117a7565b90509250929050565b634e487b7160e01b600052604160045260246000fd5b60008067ffffffffffffffff84111561188757611887611856565b50604051601f19601f85018116603f0116810181811067ffffffffffffffff821117156118b6576118b6611856565b6040528381529050808284018510156118ce57600080fd5b83836020830137600060208583010152509392505050565b600082601f8301126118f757600080fd5b610c2f8383356020850161186c565b60008060006060848603121561191b57600080fd5b611924846117a7565b9250602084013567ffffffffffffffff81111561194057600080fd5b61194c868287016118e6565b925050604084013567ffffffffffffffff81111561196957600080fd5b611975868287016118e6565b9150509250925092565b60006020828403121561199157600080fd5b610c2f826117a7565b600080604083850312156119ad57600080fd5b6119b6836117a7565b9150602083013580151581146119cb57600080fd5b809150509250929050565b6040815260006119e96040830185611768565b82810360208401526119fb8185611768565b95945050505050565b60008060008060808587031215611a1a57600080fd5b611a23856117a7565b9350611a31602086016117a7565b925060408501359150606085013567ffffffffffffffff811115611a5457600080fd5b8501601f81018713611a6557600080fd5b611a748782356020840161186c565b91505092959194509250565b60008060408385031215611a9357600080fd5b611a9c836117a7565b915061184d602084016117a7565b602080825260149082015273151bdad95b88191bd95cc81b9bdd08195e1a5cdd60621b604082015260600190565b6020808252600e908201526d105b1c9958591e481cda59db995960921b604082015260600190565b600181811c90821680611b1457607f821691505b602082108103611b3457634e487b7160e01b600052602260045260246000fd5b50919050565b600060018201611b5a57634e487b7160e01b600052601160045260246000fd5b5060010190565b601f82111561089a57806000526020600020601f840160051c81016020851015611b885750805b601f840160051c820191505b818110156112b05760008155600101611b94565b815167ffffffffffffffff811115611bc257611bc2611856565b611bd681611bd08454611b00565b84611b61565b6020601f821160018114611c0a5760008315611bf25750848201515b600019600385901b1c1916600184901b1784556112b0565b600084815260208120601f198516915b82811015611c3a5787850151825560209485019460019092019101611c1a565b5084821015611c585786840151600019600387901b60f8161c191681555b50505050600190811b01905550565b60008351611c79818460208801611744565b835190830190611c8d818360208801611744565b01949350505050565b6001600160a01b0385811682528416602082015260408101839052608060608201819052600090611cc990830184611768565b9695505050505050565b600060208284031215611ce557600080fd5b8151610c2f816116f856fea26469706673582212203ddf55f2ddff66726039df25b1209a7b54989cf92c8a61c6587ad86edd0ef30764736f6c634300081b0033",
  "linkReferences": {},
  "deployedLinkReferences": {}
}